{
	"contracts/OnlyOwnerMintWithModifier.sol": {
		"OnlyOwnerMintWithModifier": {
			"abi": [
				{
					"inputs": [],
					"stateMutability": "nonpayable",
					"type": "constructor"
				},
				{
					"anonymous": false,
					"inputs": [
						{
							"indexed": true,
							"internalType": "address",
							"name": "owner",
							"type": "address"
						},
						{
							"indexed": true,
							"internalType": "address",
							"name": "approved",
							"type": "address"
						},
						{
							"indexed": true,
							"internalType": "uint256",
							"name": "tokenId",
							"type": "uint256"
						}
					],
					"name": "Approval",
					"type": "event"
				},
				{
					"anonymous": false,
					"inputs": [
						{
							"indexed": true,
							"internalType": "address",
							"name": "owner",
							"type": "address"
						},
						{
							"indexed": true,
							"internalType": "address",
							"name": "operator",
							"type": "address"
						},
						{
							"indexed": false,
							"internalType": "bool",
							"name": "approved",
							"type": "bool"
						}
					],
					"name": "ApprovalForAll",
					"type": "event"
				},
				{
					"anonymous": false,
					"inputs": [
						{
							"indexed": true,
							"internalType": "address",
							"name": "from",
							"type": "address"
						},
						{
							"indexed": true,
							"internalType": "address",
							"name": "to",
							"type": "address"
						},
						{
							"indexed": true,
							"internalType": "uint256",
							"name": "tokenId",
							"type": "uint256"
						}
					],
					"name": "Transfer",
					"type": "event"
				},
				{
					"inputs": [
						{
							"internalType": "address",
							"name": "to",
							"type": "address"
						},
						{
							"internalType": "uint256",
							"name": "tokenId",
							"type": "uint256"
						}
					],
					"name": "approve",
					"outputs": [],
					"stateMutability": "nonpayable",
					"type": "function"
				},
				{
					"inputs": [
						{
							"internalType": "address",
							"name": "owner",
							"type": "address"
						}
					],
					"name": "balanceOf",
					"outputs": [
						{
							"internalType": "uint256",
							"name": "",
							"type": "uint256"
						}
					],
					"stateMutability": "view",
					"type": "function"
				},
				{
					"inputs": [
						{
							"internalType": "uint256",
							"name": "tokenId",
							"type": "uint256"
						}
					],
					"name": "getApproved",
					"outputs": [
						{
							"internalType": "address",
							"name": "",
							"type": "address"
						}
					],
					"stateMutability": "view",
					"type": "function"
				},
				{
					"inputs": [
						{
							"internalType": "address",
							"name": "owner",
							"type": "address"
						},
						{
							"internalType": "address",
							"name": "operator",
							"type": "address"
						}
					],
					"name": "isApprovedForAll",
					"outputs": [
						{
							"internalType": "bool",
							"name": "",
							"type": "bool"
						}
					],
					"stateMutability": "view",
					"type": "function"
				},
				{
					"inputs": [],
					"name": "name",
					"outputs": [
						{
							"internalType": "string",
							"name": "",
							"type": "string"
						}
					],
					"stateMutability": "view",
					"type": "function"
				},
				{
					"inputs": [
						{
							"internalType": "uint256",
							"name": "tokenId",
							"type": "uint256"
						}
					],
					"name": "nftMint",
					"outputs": [],
					"stateMutability": "nonpayable",
					"type": "function"
				},
				{
					"inputs": [],
					"name": "nftMint",
					"outputs": [],
					"stateMutability": "nonpayable",
					"type": "function"
				},
				{
					"inputs": [],
					"name": "owner",
					"outputs": [
						{
							"internalType": "address",
							"name": "",
							"type": "address"
						}
					],
					"stateMutability": "view",
					"type": "function"
				},
				{
					"inputs": [
						{
							"internalType": "uint256",
							"name": "tokenId",
							"type": "uint256"
						}
					],
					"name": "ownerOf",
					"outputs": [
						{
							"internalType": "address",
							"name": "",
							"type": "address"
						}
					],
					"stateMutability": "view",
					"type": "function"
				},
				{
					"inputs": [
						{
							"internalType": "address",
							"name": "from",
							"type": "address"
						},
						{
							"internalType": "address",
							"name": "to",
							"type": "address"
						},
						{
							"internalType": "uint256",
							"name": "tokenId",
							"type": "uint256"
						}
					],
					"name": "safeTransferFrom",
					"outputs": [],
					"stateMutability": "nonpayable",
					"type": "function"
				},
				{
					"inputs": [
						{
							"internalType": "address",
							"name": "from",
							"type": "address"
						},
						{
							"internalType": "address",
							"name": "to",
							"type": "address"
						},
						{
							"internalType": "uint256",
							"name": "tokenId",
							"type": "uint256"
						},
						{
							"internalType": "bytes",
							"name": "_data",
							"type": "bytes"
						}
					],
					"name": "safeTransferFrom",
					"outputs": [],
					"stateMutability": "nonpayable",
					"type": "function"
				},
				{
					"inputs": [
						{
							"internalType": "address",
							"name": "operator",
							"type": "address"
						},
						{
							"internalType": "bool",
							"name": "approved",
							"type": "bool"
						}
					],
					"name": "setApprovalForAll",
					"outputs": [],
					"stateMutability": "nonpayable",
					"type": "function"
				},
				{
					"inputs": [
						{
							"internalType": "bytes4",
							"name": "interfaceId",
							"type": "bytes4"
						}
					],
					"name": "supportsInterface",
					"outputs": [
						{
							"internalType": "bool",
							"name": "",
							"type": "bool"
						}
					],
					"stateMutability": "view",
					"type": "function"
				},
				{
					"inputs": [],
					"name": "symbol",
					"outputs": [
						{
							"internalType": "string",
							"name": "",
							"type": "string"
						}
					],
					"stateMutability": "view",
					"type": "function"
				},
				{
					"inputs": [
						{
							"internalType": "uint256",
							"name": "tokenId",
							"type": "uint256"
						}
					],
					"name": "tokenURI",
					"outputs": [
						{
							"internalType": "string",
							"name": "",
							"type": "string"
						}
					],
					"stateMutability": "view",
					"type": "function"
				},
				{
					"inputs": [
						{
							"internalType": "address",
							"name": "from",
							"type": "address"
						},
						{
							"internalType": "address",
							"name": "to",
							"type": "address"
						},
						{
							"internalType": "uint256",
							"name": "tokenId",
							"type": "uint256"
						}
					],
					"name": "transferFrom",
					"outputs": [],
					"stateMutability": "nonpayable",
					"type": "function"
				}
			],
			"devdoc": {
				"kind": "dev",
				"methods": {
					"approve(address,uint256)": {
						"details": "See {IERC721-approve}."
					},
					"balanceOf(address)": {
						"details": "See {IERC721-balanceOf}."
					},
					"getApproved(uint256)": {
						"details": "See {IERC721-getApproved}."
					},
					"isApprovedForAll(address,address)": {
						"details": "See {IERC721-isApprovedForAll}."
					},
					"name()": {
						"details": "See {IERC721Metadata-name}."
					},
					"nftMint(uint256)": {
						"details": "-このコントラクトをデプロイしたアドレスだけmint可能 require -nftMint関数の実行アドレスにtokenIdを紐づけ"
					},
					"ownerOf(uint256)": {
						"details": "See {IERC721-ownerOf}."
					},
					"safeTransferFrom(address,address,uint256)": {
						"details": "See {IERC721-safeTransferFrom}."
					},
					"safeTransferFrom(address,address,uint256,bytes)": {
						"details": "See {IERC721-safeTransferFrom}."
					},
					"setApprovalForAll(address,bool)": {
						"details": "See {IERC721-setApprovalForAll}."
					},
					"supportsInterface(bytes4)": {
						"details": "See {IERC165-supportsInterface}."
					},
					"symbol()": {
						"details": "See {IERC721Metadata-symbol}."
					},
					"tokenURI(uint256)": {
						"details": "See {IERC721Metadata-tokenURI}."
					},
					"transferFrom(address,address,uint256)": {
						"details": "See {IERC721-transferFrom}."
					}
				},
				"stateVariables": {
					"owner": {
						"details": "-このコントラクトをデプロイしたアドレス用変数owner"
					}
				},
				"version": 1
			},
			"evm": {
				"assembly": "    /* \"contracts/OnlyOwnerMintWithModifier.sol\":128:1019  contract OnlyOwnerMintWithModifier is ERC721{... */\n  mstore(0x40, 0x80)\n    /* \"contracts/OnlyOwnerMintWithModifier.sol\":328:428  constructor() ERC721(\"OnlyOwnerMintWithModifier\", \"OwNFTMOD\"){... */\n  callvalue\n  dup1\n  iszero\n  tag_1\n  jumpi\n  0x00\n  dup1\n  revert\ntag_1:\n  pop\n    /* \"@openzeppelin/contracts@4.6.0/token/ERC721/ERC721.sol\":1390:1503  constructor(string memory name_, string memory symbol_) {... */\n  mload(0x40)\n  dup1\n  0x40\n  add\n  0x40\n  mstore\n  dup1\n  0x19\n  dup2\n  mstore\n  0x20\n  add\n  0x4f6e6c794f776e65724d696e74576974684d6f64696669657200000000000000\n  dup2\n  mstore\n  pop\n  mload(0x40)\n  dup1\n  0x40\n  add\n  0x40\n  mstore\n  dup1\n  0x08\n  dup2\n  mstore\n  0x20\n  add\n  0x4f774e46544d4f44000000000000000000000000000000000000000000000000\n  dup2\n  mstore\n  pop\n    /* \"@openzeppelin/contracts@4.6.0/token/ERC721/ERC721.sol\":1464:1469  name_ */\n  dup2\n    /* \"@openzeppelin/contracts@4.6.0/token/ERC721/ERC721.sol\":1456:1461  _name */\n  0x00\n    /* \"@openzeppelin/contracts@4.6.0/token/ERC721/ERC721.sol\":1456:1469  _name = name_ */\n  swap1\n  dup1\n  mload\n  swap1\n  0x20\n  add\n  swap1\n  tag_5\n  swap3\n  swap2\n  swap1\n  tag_6\n  jump\t// in\ntag_5:\n  pop\n    /* \"@openzeppelin/contracts@4.6.0/token/ERC721/ERC721.sol\":1489:1496  symbol_ */\n  dup1\n    /* \"@openzeppelin/contracts@4.6.0/token/ERC721/ERC721.sol\":1479:1486  _symbol */\n  0x01\n    /* \"@openzeppelin/contracts@4.6.0/token/ERC721/ERC721.sol\":1479:1496  _symbol = symbol_ */\n  swap1\n  dup1\n  mload\n  swap1\n  0x20\n  add\n  swap1\n  tag_7\n  swap3\n  swap2\n  swap1\n  tag_6\n  jump\t// in\ntag_7:\n  pop\n    /* \"@openzeppelin/contracts@4.6.0/token/ERC721/ERC721.sol\":1390:1503  constructor(string memory name_, string memory symbol_) {... */\n  pop\n  pop\n    /* \"contracts/OnlyOwnerMintWithModifier.sol\":408:420  _msgSender() */\n  tag_9\n    /* \"contracts/OnlyOwnerMintWithModifier.sol\":408:418  _msgSender */\n  shl(0x20, tag_10)\n    /* \"contracts/OnlyOwnerMintWithModifier.sol\":408:420  _msgSender() */\n  0x20\n  shr\n  jump\t// in\ntag_9:\n    /* \"contracts/OnlyOwnerMintWithModifier.sol\":400:405  owner */\n  0x06\n  0x00\n    /* \"contracts/OnlyOwnerMintWithModifier.sol\":400:420  owner = _msgSender() */\n  0x0100\n  exp\n  dup2\n  sload\n  dup2\n  0xffffffffffffffffffffffffffffffffffffffff\n  mul\n  not\n  and\n  swap1\n  dup4\n  0xffffffffffffffffffffffffffffffffffffffff\n  and\n  mul\n  or\n  swap1\n  sstore\n  pop\n    /* \"contracts/OnlyOwnerMintWithModifier.sol\":128:1019  contract OnlyOwnerMintWithModifier is ERC721{... */\n  jump(tag_11)\n    /* \"@openzeppelin/contracts@4.6.0/utils/Context.sol\":640:736  function _msgSender() internal view virtual returns (address) {... */\ntag_10:\n    /* \"@openzeppelin/contracts@4.6.0/utils/Context.sol\":693:700  address */\n  0x00\n    /* \"@openzeppelin/contracts@4.6.0/utils/Context.sol\":719:729  msg.sender */\n  caller\n    /* \"@openzeppelin/contracts@4.6.0/utils/Context.sol\":712:729  return msg.sender */\n  swap1\n  pop\n    /* \"@openzeppelin/contracts@4.6.0/utils/Context.sol\":640:736  function _msgSender() internal view virtual returns (address) {... */\n  swap1\n  jump\t// out\n    /* \"contracts/OnlyOwnerMintWithModifier.sol\":128:1019  contract OnlyOwnerMintWithModifier is ERC721{... */\ntag_6:\n  dup3\n  dup1\n  sload\n  tag_13\n  swap1\n  tag_14\n  jump\t// in\ntag_13:\n  swap1\n  0x00\n  mstore\n  keccak256(0x00, 0x20)\n  swap1\n  0x1f\n  add\n  0x20\n  swap1\n  div\n  dup2\n  add\n  swap3\n  dup3\n  tag_16\n  jumpi\n  0x00\n  dup6\n  sstore\n  jump(tag_15)\ntag_16:\n  dup3\n  0x1f\n  lt\n  tag_17\n  jumpi\n  dup1\n  mload\n  not(0xff)\n  and\n  dup4\n  dup1\n  add\n  or\n  dup6\n  sstore\n  jump(tag_15)\ntag_17:\n  dup3\n  dup1\n  add\n  0x01\n  add\n  dup6\n  sstore\n  dup3\n  iszero\n  tag_15\n  jumpi\n  swap2\n  dup3\n  add\ntag_18:\n  dup3\n  dup2\n  gt\n  iszero\n  tag_19\n  jumpi\n  dup3\n  mload\n  dup3\n  sstore\n  swap2\n  0x20\n  add\n  swap2\n  swap1\n  0x01\n  add\n  swap1\n  jump(tag_18)\ntag_19:\ntag_15:\n  pop\n  swap1\n  pop\n  tag_20\n  swap2\n  swap1\n  tag_21\n  jump\t// in\ntag_20:\n  pop\n  swap1\n  jump\t// out\ntag_21:\ntag_22:\n  dup1\n  dup3\n  gt\n  iszero\n  tag_23\n  jumpi\n  0x00\n  dup2\n  0x00\n  swap1\n  sstore\n  pop\n  0x01\n  add\n  jump(tag_22)\ntag_23:\n  pop\n  swap1\n  jump\t// out\n    /* \"#utility.yul\":7:187   */\ntag_24:\n    /* \"#utility.yul\":55:132   */\n  0x4e487b7100000000000000000000000000000000000000000000000000000000\n    /* \"#utility.yul\":52:53   */\n  0x00\n    /* \"#utility.yul\":45:133   */\n  mstore\n    /* \"#utility.yul\":152:156   */\n  0x22\n    /* \"#utility.yul\":149:150   */\n  0x04\n    /* \"#utility.yul\":142:157   */\n  mstore\n    /* \"#utility.yul\":176:180   */\n  0x24\n    /* \"#utility.yul\":173:174   */\n  0x00\n    /* \"#utility.yul\":166:181   */\n  revert\n    /* \"#utility.yul\":193:513   */\ntag_14:\n    /* \"#utility.yul\":237:243   */\n  0x00\n    /* \"#utility.yul\":274:275   */\n  0x02\n    /* \"#utility.yul\":268:272   */\n  dup3\n    /* \"#utility.yul\":264:276   */\n  div\n    /* \"#utility.yul\":254:276   */\n  swap1\n  pop\n    /* \"#utility.yul\":321:322   */\n  0x01\n    /* \"#utility.yul\":315:319   */\n  dup3\n    /* \"#utility.yul\":311:323   */\n  and\n    /* \"#utility.yul\":342:360   */\n  dup1\n    /* \"#utility.yul\":332:413   */\n  tag_28\n  jumpi\n    /* \"#utility.yul\":398:402   */\n  0x7f\n    /* \"#utility.yul\":390:396   */\n  dup3\n    /* \"#utility.yul\":386:403   */\n  and\n    /* \"#utility.yul\":376:403   */\n  swap2\n  pop\n    /* \"#utility.yul\":332:413   */\ntag_28:\n    /* \"#utility.yul\":460:462   */\n  0x20\n    /* \"#utility.yul\":452:458   */\n  dup3\n    /* \"#utility.yul\":449:463   */\n  lt\n    /* \"#utility.yul\":429:447   */\n  dup2\n    /* \"#utility.yul\":426:464   */\n  sub\n    /* \"#utility.yul\":423:507   */\n  tag_29\n  jumpi\n    /* \"#utility.yul\":479:497   */\n  tag_30\n  tag_24\n  jump\t// in\ntag_30:\n    /* \"#utility.yul\":423:507   */\ntag_29:\n    /* \"#utility.yul\":244:513   */\n  pop\n    /* \"#utility.yul\":193:513   */\n  swap2\n  swap1\n  pop\n  jump\t// out\n    /* \"contracts/OnlyOwnerMintWithModifier.sol\":128:1019  contract OnlyOwnerMintWithModifier is ERC721{... */\ntag_11:\n  dataSize(sub_0)\n  dup1\n  dataOffset(sub_0)\n  0x00\n  codecopy\n  0x00\n  return\nstop\n\nsub_0: assembly {\n        /* \"contracts/OnlyOwnerMintWithModifier.sol\":128:1019  contract OnlyOwnerMintWithModifier is ERC721{... */\n      mstore(0x40, 0x80)\n      callvalue\n      dup1\n      iszero\n      tag_1\n      jumpi\n      0x00\n      dup1\n      revert\n    tag_1:\n      pop\n      jumpi(tag_2, lt(calldatasize, 0x04))\n      shr(0xe0, calldataload(0x00))\n      dup1\n      0x70a08231\n      gt\n      tag_19\n      jumpi\n      dup1\n      0xa22cb465\n      gt\n      tag_20\n      jumpi\n      dup1\n      0xa22cb465\n      eq\n      tag_15\n      jumpi\n      dup1\n      0xb88d4fde\n      eq\n      tag_16\n      jumpi\n      dup1\n      0xc87b56dd\n      eq\n      tag_17\n      jumpi\n      dup1\n      0xe985e9c5\n      eq\n      tag_18\n      jumpi\n      jump(tag_2)\n    tag_20:\n      dup1\n      0x70a08231\n      eq\n      tag_11\n      jumpi\n      dup1\n      0x719414b4\n      eq\n      tag_12\n      jumpi\n      dup1\n      0x8da5cb5b\n      eq\n      tag_13\n      jumpi\n      dup1\n      0x95d89b41\n      eq\n      tag_14\n      jumpi\n      jump(tag_2)\n    tag_19:\n      dup1\n      0x20e3dfee\n      gt\n      tag_21\n      jumpi\n      dup1\n      0x20e3dfee\n      eq\n      tag_7\n      jumpi\n      dup1\n      0x23b872dd\n      eq\n      tag_8\n      jumpi\n      dup1\n      0x42842e0e\n      eq\n      tag_9\n      jumpi\n      dup1\n      0x6352211e\n      eq\n      tag_10\n      jumpi\n      jump(tag_2)\n    tag_21:\n      dup1\n      0x01ffc9a7\n      eq\n      tag_3\n      jumpi\n      dup1\n      0x06fdde03\n      eq\n      tag_4\n      jumpi\n      dup1\n      0x081812fc\n      eq\n      tag_5\n      jumpi\n      dup1\n      0x095ea7b3\n      eq\n      tag_6\n      jumpi\n    tag_2:\n      0x00\n      dup1\n      revert\n        /* \"@openzeppelin/contracts@4.6.0/token/ERC721/ERC721.sol\":1570:1870  function supportsInterface(bytes4 interfaceId) public view virtual override(ERC165, IERC165) returns (bool) {... */\n    tag_3:\n      tag_22\n      0x04\n      dup1\n      calldatasize\n      sub\n      dup2\n      add\n      swap1\n      tag_23\n      swap2\n      swap1\n      tag_24\n      jump\t// in\n    tag_23:\n      tag_25\n      jump\t// in\n    tag_22:\n      mload(0x40)\n      tag_26\n      swap2\n      swap1\n      tag_27\n      jump\t// in\n    tag_26:\n      mload(0x40)\n      dup1\n      swap2\n      sub\n      swap1\n      return\n        /* \"@openzeppelin/contracts@4.6.0/token/ERC721/ERC721.sol\":2488:2586  function name() public view virtual override returns (string memory) {... */\n    tag_4:\n      tag_28\n      tag_29\n      jump\t// in\n    tag_28:\n      mload(0x40)\n      tag_30\n      swap2\n      swap1\n      tag_31\n      jump\t// in\n    tag_30:\n      mload(0x40)\n      dup1\n      swap2\n      sub\n      swap1\n      return\n        /* \"@openzeppelin/contracts@4.6.0/token/ERC721/ERC721.sol\":4000:4217  function getApproved(uint256 tokenId) public view virtual override returns (address) {... */\n    tag_5:\n      tag_32\n      0x04\n      dup1\n      calldatasize\n      sub\n      dup2\n      add\n      swap1\n      tag_33\n      swap2\n      swap1\n      tag_34\n      jump\t// in\n    tag_33:\n      tag_35\n      jump\t// in\n    tag_32:\n      mload(0x40)\n      tag_36\n      swap2\n      swap1\n      tag_37\n      jump\t// in\n    tag_36:\n      mload(0x40)\n      dup1\n      swap2\n      sub\n      swap1\n      return\n        /* \"@openzeppelin/contracts@4.6.0/token/ERC721/ERC721.sol\":3538:3939  function approve(address to, uint256 tokenId) public virtual override {... */\n    tag_6:\n      tag_38\n      0x04\n      dup1\n      calldatasize\n      sub\n      dup2\n      add\n      swap1\n      tag_39\n      swap2\n      swap1\n      tag_40\n      jump\t// in\n    tag_39:\n      tag_41\n      jump\t// in\n    tag_38:\n      stop\n        /* \"contracts/OnlyOwnerMintWithModifier.sol\":886:982  function nftMint(uint256 tokenId)public onlyOwner{... */\n    tag_7:\n      tag_42\n      0x04\n      dup1\n      calldatasize\n      sub\n      dup2\n      add\n      swap1\n      tag_43\n      swap2\n      swap1\n      tag_34\n      jump\t// in\n    tag_43:\n      tag_44\n      jump\t// in\n    tag_42:\n      stop\n        /* \"@openzeppelin/contracts@4.6.0/token/ERC721/ERC721.sol\":4727:5057  function transferFrom(... */\n    tag_8:\n      tag_45\n      0x04\n      dup1\n      calldatasize\n      sub\n      dup2\n      add\n      swap1\n      tag_46\n      swap2\n      swap1\n      tag_47\n      jump\t// in\n    tag_46:\n      tag_48\n      jump\t// in\n    tag_45:\n      stop\n        /* \"@openzeppelin/contracts@4.6.0/token/ERC721/ERC721.sol\":5123:5302  function safeTransferFrom(... */\n    tag_9:\n      tag_49\n      0x04\n      dup1\n      calldatasize\n      sub\n      dup2\n      add\n      swap1\n      tag_50\n      swap2\n      swap1\n      tag_47\n      jump\t// in\n    tag_50:\n      tag_51\n      jump\t// in\n    tag_49:\n      stop\n        /* \"@openzeppelin/contracts@4.6.0/token/ERC721/ERC721.sol\":2191:2426  function ownerOf(uint256 tokenId) public view virtual override returns (address) {... */\n    tag_10:\n      tag_52\n      0x04\n      dup1\n      calldatasize\n      sub\n      dup2\n      add\n      swap1\n      tag_53\n      swap2\n      swap1\n      tag_34\n      jump\t// in\n    tag_53:\n      tag_54\n      jump\t// in\n    tag_52:\n      mload(0x40)\n      tag_55\n      swap2\n      swap1\n      tag_37\n      jump\t// in\n    tag_55:\n      mload(0x40)\n      dup1\n      swap2\n      sub\n      swap1\n      return\n        /* \"@openzeppelin/contracts@4.6.0/token/ERC721/ERC721.sol\":1929:2134  function balanceOf(address owner) public view virtual override returns (uint256) {... */\n    tag_11:\n      tag_56\n      0x04\n      dup1\n      calldatasize\n      sub\n      dup2\n      add\n      swap1\n      tag_57\n      swap2\n      swap1\n      tag_58\n      jump\t// in\n    tag_57:\n      tag_59\n      jump\t// in\n    tag_56:\n      mload(0x40)\n      tag_60\n      swap2\n      swap1\n      tag_61\n      jump\t// in\n    tag_60:\n      mload(0x40)\n      dup1\n      swap2\n      sub\n      swap1\n      return\n        /* \"contracts/OnlyOwnerMintWithModifier.sol\":990:1016  function nftMint()public{} */\n    tag_12:\n      tag_62\n      tag_63\n      jump\t// in\n    tag_62:\n      stop\n        /* \"contracts/OnlyOwnerMintWithModifier.sol\":299:319  address public owner */\n    tag_13:\n      tag_64\n      tag_65\n      jump\t// in\n    tag_64:\n      mload(0x40)\n      tag_66\n      swap2\n      swap1\n      tag_37\n      jump\t// in\n    tag_66:\n      mload(0x40)\n      dup1\n      swap2\n      sub\n      swap1\n      return\n        /* \"@openzeppelin/contracts@4.6.0/token/ERC721/ERC721.sol\":2650:2752  function symbol() public view virtual override returns (string memory) {... */\n    tag_14:\n      tag_67\n      tag_68\n      jump\t// in\n    tag_67:\n      mload(0x40)\n      tag_69\n      swap2\n      swap1\n      tag_31\n      jump\t// in\n    tag_69:\n      mload(0x40)\n      dup1\n      swap2\n      sub\n      swap1\n      return\n        /* \"@openzeppelin/contracts@4.6.0/token/ERC721/ERC721.sol\":4284:4437  function setApprovalForAll(address operator, bool approved) public virtual override {... */\n    tag_15:\n      tag_70\n      0x04\n      dup1\n      calldatasize\n      sub\n      dup2\n      add\n      swap1\n      tag_71\n      swap2\n      swap1\n      tag_72\n      jump\t// in\n    tag_71:\n      tag_73\n      jump\t// in\n    tag_70:\n      stop\n        /* \"@openzeppelin/contracts@4.6.0/token/ERC721/ERC721.sol\":5368:5688  function safeTransferFrom(... */\n    tag_16:\n      tag_74\n      0x04\n      dup1\n      calldatasize\n      sub\n      dup2\n      add\n      swap1\n      tag_75\n      swap2\n      swap1\n      tag_76\n      jump\t// in\n    tag_75:\n      tag_77\n      jump\t// in\n    tag_74:\n      stop\n        /* \"@openzeppelin/contracts@4.6.0/token/ERC721/ERC721.sol\":2818:3147  function tokenURI(uint256 tokenId) public view virtual override returns (string memory) {... */\n    tag_17:\n      tag_78\n      0x04\n      dup1\n      calldatasize\n      sub\n      dup2\n      add\n      swap1\n      tag_79\n      swap2\n      swap1\n      tag_34\n      jump\t// in\n    tag_79:\n      tag_80\n      jump\t// in\n    tag_78:\n      mload(0x40)\n      tag_81\n      swap2\n      swap1\n      tag_31\n      jump\t// in\n    tag_81:\n      mload(0x40)\n      dup1\n      swap2\n      sub\n      swap1\n      return\n        /* \"@openzeppelin/contracts@4.6.0/token/ERC721/ERC721.sol\":4503:4665  function isApprovedForAll(address owner, address operator) public view virtual override returns (bool) {... */\n    tag_18:\n      tag_82\n      0x04\n      dup1\n      calldatasize\n      sub\n      dup2\n      add\n      swap1\n      tag_83\n      swap2\n      swap1\n      tag_84\n      jump\t// in\n    tag_83:\n      tag_85\n      jump\t// in\n    tag_82:\n      mload(0x40)\n      tag_86\n      swap2\n      swap1\n      tag_27\n      jump\t// in\n    tag_86:\n      mload(0x40)\n      dup1\n      swap2\n      sub\n      swap1\n      return\n        /* \"@openzeppelin/contracts@4.6.0/token/ERC721/ERC721.sol\":1570:1870  function supportsInterface(bytes4 interfaceId) public view virtual override(ERC165, IERC165) returns (bool) {... */\n    tag_25:\n        /* \"@openzeppelin/contracts@4.6.0/token/ERC721/ERC721.sol\":1672:1676  bool */\n      0x00\n        /* \"@openzeppelin/contracts@4.6.0/token/ERC721/ERC721.sol\":1722:1747  type(IERC721).interfaceId */\n      0x80ac58cd00000000000000000000000000000000000000000000000000000000\n        /* \"@openzeppelin/contracts@4.6.0/token/ERC721/ERC721.sol\":1707:1747  interfaceId == type(IERC721).interfaceId */\n      not(0xffffffffffffffffffffffffffffffffffffffffffffffffffffffff)\n      and\n        /* \"@openzeppelin/contracts@4.6.0/token/ERC721/ERC721.sol\":1707:1718  interfaceId */\n      dup3\n        /* \"@openzeppelin/contracts@4.6.0/token/ERC721/ERC721.sol\":1707:1747  interfaceId == type(IERC721).interfaceId */\n      not(0xffffffffffffffffffffffffffffffffffffffffffffffffffffffff)\n      and\n      eq\n        /* \"@openzeppelin/contracts@4.6.0/token/ERC721/ERC721.sol\":1707:1811  interfaceId == type(IERC721).interfaceId ||... */\n      dup1\n      tag_88\n      jumpi\n      pop\n        /* \"@openzeppelin/contracts@4.6.0/token/ERC721/ERC721.sol\":1778:1811  type(IERC721Metadata).interfaceId */\n      0x5b5e139f00000000000000000000000000000000000000000000000000000000\n        /* \"@openzeppelin/contracts@4.6.0/token/ERC721/ERC721.sol\":1763:1811  interfaceId == type(IERC721Metadata).interfaceId */\n      not(0xffffffffffffffffffffffffffffffffffffffffffffffffffffffff)\n      and\n        /* \"@openzeppelin/contracts@4.6.0/token/ERC721/ERC721.sol\":1763:1774  interfaceId */\n      dup3\n        /* \"@openzeppelin/contracts@4.6.0/token/ERC721/ERC721.sol\":1763:1811  interfaceId == type(IERC721Metadata).interfaceId */\n      not(0xffffffffffffffffffffffffffffffffffffffffffffffffffffffff)\n      and\n      eq\n        /* \"@openzeppelin/contracts@4.6.0/token/ERC721/ERC721.sol\":1707:1811  interfaceId == type(IERC721).interfaceId ||... */\n    tag_88:\n        /* \"@openzeppelin/contracts@4.6.0/token/ERC721/ERC721.sol\":1707:1863  interfaceId == type(IERC721).interfaceId ||... */\n      dup1\n      tag_89\n      jumpi\n      pop\n        /* \"@openzeppelin/contracts@4.6.0/token/ERC721/ERC721.sol\":1827:1863  super.supportsInterface(interfaceId) */\n      tag_90\n        /* \"@openzeppelin/contracts@4.6.0/token/ERC721/ERC721.sol\":1851:1862  interfaceId */\n      dup3\n        /* \"@openzeppelin/contracts@4.6.0/token/ERC721/ERC721.sol\":1827:1850  super.supportsInterface */\n      tag_91\n        /* \"@openzeppelin/contracts@4.6.0/token/ERC721/ERC721.sol\":1827:1863  super.supportsInterface(interfaceId) */\n      jump\t// in\n    tag_90:\n        /* \"@openzeppelin/contracts@4.6.0/token/ERC721/ERC721.sol\":1707:1863  interfaceId == type(IERC721).interfaceId ||... */\n    tag_89:\n        /* \"@openzeppelin/contracts@4.6.0/token/ERC721/ERC721.sol\":1688:1863  return... */\n      swap1\n      pop\n        /* \"@openzeppelin/contracts@4.6.0/token/ERC721/ERC721.sol\":1570:1870  function supportsInterface(bytes4 interfaceId) public view virtual override(ERC165, IERC165) returns (bool) {... */\n      swap2\n      swap1\n      pop\n      jump\t// out\n        /* \"@openzeppelin/contracts@4.6.0/token/ERC721/ERC721.sol\":2488:2586  function name() public view virtual override returns (string memory) {... */\n    tag_29:\n        /* \"@openzeppelin/contracts@4.6.0/token/ERC721/ERC721.sol\":2542:2555  string memory */\n      0x60\n        /* \"@openzeppelin/contracts@4.6.0/token/ERC721/ERC721.sol\":2574:2579  _name */\n      0x00\n        /* \"@openzeppelin/contracts@4.6.0/token/ERC721/ERC721.sol\":2567:2579  return _name */\n      dup1\n      sload\n      tag_93\n      swap1\n      tag_94\n      jump\t// in\n    tag_93:\n      dup1\n      0x1f\n      add\n      0x20\n      dup1\n      swap2\n      div\n      mul\n      0x20\n      add\n      mload(0x40)\n      swap1\n      dup2\n      add\n      0x40\n      mstore\n      dup1\n      swap3\n      swap2\n      swap1\n      dup2\n      dup2\n      mstore\n      0x20\n      add\n      dup3\n      dup1\n      sload\n      tag_95\n      swap1\n      tag_94\n      jump\t// in\n    tag_95:\n      dup1\n      iszero\n      tag_96\n      jumpi\n      dup1\n      0x1f\n      lt\n      tag_97\n      jumpi\n      0x0100\n      dup1\n      dup4\n      sload\n      div\n      mul\n      dup4\n      mstore\n      swap2\n      0x20\n      add\n      swap2\n      jump(tag_96)\n    tag_97:\n      dup3\n      add\n      swap2\n      swap1\n      0x00\n      mstore\n      keccak256(0x00, 0x20)\n      swap1\n    tag_98:\n      dup2\n      sload\n      dup2\n      mstore\n      swap1\n      0x01\n      add\n      swap1\n      0x20\n      add\n      dup1\n      dup4\n      gt\n      tag_98\n      jumpi\n      dup3\n      swap1\n      sub\n      0x1f\n      and\n      dup3\n      add\n      swap2\n    tag_96:\n      pop\n      pop\n      pop\n      pop\n      pop\n      swap1\n      pop\n        /* \"@openzeppelin/contracts@4.6.0/token/ERC721/ERC721.sol\":2488:2586  function name() public view virtual override returns (string memory) {... */\n      swap1\n      jump\t// out\n        /* \"@openzeppelin/contracts@4.6.0/token/ERC721/ERC721.sol\":4000:4217  function getApproved(uint256 tokenId) public view virtual override returns (address) {... */\n    tag_35:\n        /* \"@openzeppelin/contracts@4.6.0/token/ERC721/ERC721.sol\":4076:4083  address */\n      0x00\n        /* \"@openzeppelin/contracts@4.6.0/token/ERC721/ERC721.sol\":4103:4119  _exists(tokenId) */\n      tag_100\n        /* \"@openzeppelin/contracts@4.6.0/token/ERC721/ERC721.sol\":4111:4118  tokenId */\n      dup3\n        /* \"@openzeppelin/contracts@4.6.0/token/ERC721/ERC721.sol\":4103:4110  _exists */\n      tag_101\n        /* \"@openzeppelin/contracts@4.6.0/token/ERC721/ERC721.sol\":4103:4119  _exists(tokenId) */\n      jump\t// in\n    tag_100:\n        /* \"@openzeppelin/contracts@4.6.0/token/ERC721/ERC721.sol\":4095:4168  require(_exists(tokenId), \"ERC721: approved query for nonexistent token\") */\n      tag_102\n      jumpi\n      mload(0x40)\n      0x08c379a000000000000000000000000000000000000000000000000000000000\n      dup2\n      mstore\n      0x04\n      add\n      tag_103\n      swap1\n      tag_104\n      jump\t// in\n    tag_103:\n      mload(0x40)\n      dup1\n      swap2\n      sub\n      swap1\n      revert\n    tag_102:\n        /* \"@openzeppelin/contracts@4.6.0/token/ERC721/ERC721.sol\":4186:4201  _tokenApprovals */\n      0x04\n        /* \"@openzeppelin/contracts@4.6.0/token/ERC721/ERC721.sol\":4186:4210  _tokenApprovals[tokenId] */\n      0x00\n        /* \"@openzeppelin/contracts@4.6.0/token/ERC721/ERC721.sol\":4202:4209  tokenId */\n      dup4\n        /* \"@openzeppelin/contracts@4.6.0/token/ERC721/ERC721.sol\":4186:4210  _tokenApprovals[tokenId] */\n      dup2\n      mstore\n      0x20\n      add\n      swap1\n      dup2\n      mstore\n      0x20\n      add\n      0x00\n      keccak256\n      0x00\n      swap1\n      sload\n      swap1\n      0x0100\n      exp\n      swap1\n      div\n      0xffffffffffffffffffffffffffffffffffffffff\n      and\n        /* \"@openzeppelin/contracts@4.6.0/token/ERC721/ERC721.sol\":4179:4210  return _tokenApprovals[tokenId] */\n      swap1\n      pop\n        /* \"@openzeppelin/contracts@4.6.0/token/ERC721/ERC721.sol\":4000:4217  function getApproved(uint256 tokenId) public view virtual override returns (address) {... */\n      swap2\n      swap1\n      pop\n      jump\t// out\n        /* \"@openzeppelin/contracts@4.6.0/token/ERC721/ERC721.sol\":3538:3939  function approve(address to, uint256 tokenId) public virtual override {... */\n    tag_41:\n        /* \"@openzeppelin/contracts@4.6.0/token/ERC721/ERC721.sol\":3618:3631  address owner */\n      0x00\n        /* \"@openzeppelin/contracts@4.6.0/token/ERC721/ERC721.sol\":3634:3657  ERC721.ownerOf(tokenId) */\n      tag_106\n        /* \"@openzeppelin/contracts@4.6.0/token/ERC721/ERC721.sol\":3649:3656  tokenId */\n      dup3\n        /* \"@openzeppelin/contracts@4.6.0/token/ERC721/ERC721.sol\":3634:3648  ERC721.ownerOf */\n      tag_54\n        /* \"@openzeppelin/contracts@4.6.0/token/ERC721/ERC721.sol\":3634:3657  ERC721.ownerOf(tokenId) */\n      jump\t// in\n    tag_106:\n        /* \"@openzeppelin/contracts@4.6.0/token/ERC721/ERC721.sol\":3618:3657  address owner = ERC721.ownerOf(tokenId) */\n      swap1\n      pop\n        /* \"@openzeppelin/contracts@4.6.0/token/ERC721/ERC721.sol\":3681:3686  owner */\n      dup1\n        /* \"@openzeppelin/contracts@4.6.0/token/ERC721/ERC721.sol\":3675:3686  to != owner */\n      0xffffffffffffffffffffffffffffffffffffffff\n      and\n        /* \"@openzeppelin/contracts@4.6.0/token/ERC721/ERC721.sol\":3675:3677  to */\n      dup4\n        /* \"@openzeppelin/contracts@4.6.0/token/ERC721/ERC721.sol\":3675:3686  to != owner */\n      0xffffffffffffffffffffffffffffffffffffffff\n      and\n      sub\n        /* \"@openzeppelin/contracts@4.6.0/token/ERC721/ERC721.sol\":3667:3724  require(to != owner, \"ERC721: approval to current owner\") */\n      tag_107\n      jumpi\n      mload(0x40)\n      0x08c379a000000000000000000000000000000000000000000000000000000000\n      dup2\n      mstore\n      0x04\n      add\n      tag_108\n      swap1\n      tag_109\n      jump\t// in\n    tag_108:\n      mload(0x40)\n      dup1\n      swap2\n      sub\n      swap1\n      revert\n    tag_107:\n        /* \"@openzeppelin/contracts@4.6.0/token/ERC721/ERC721.sol\":3772:3777  owner */\n      dup1\n        /* \"@openzeppelin/contracts@4.6.0/token/ERC721/ERC721.sol\":3756:3777  _msgSender() == owner */\n      0xffffffffffffffffffffffffffffffffffffffff\n      and\n        /* \"@openzeppelin/contracts@4.6.0/token/ERC721/ERC721.sol\":3756:3768  _msgSender() */\n      tag_110\n        /* \"@openzeppelin/contracts@4.6.0/token/ERC721/ERC721.sol\":3756:3766  _msgSender */\n      tag_111\n        /* \"@openzeppelin/contracts@4.6.0/token/ERC721/ERC721.sol\":3756:3768  _msgSender() */\n      jump\t// in\n    tag_110:\n        /* \"@openzeppelin/contracts@4.6.0/token/ERC721/ERC721.sol\":3756:3777  _msgSender() == owner */\n      0xffffffffffffffffffffffffffffffffffffffff\n      and\n      eq\n        /* \"@openzeppelin/contracts@4.6.0/token/ERC721/ERC721.sol\":3756:3818  _msgSender() == owner || isApprovedForAll(owner, _msgSender()) */\n      dup1\n      tag_112\n      jumpi\n      pop\n        /* \"@openzeppelin/contracts@4.6.0/token/ERC721/ERC721.sol\":3781:3818  isApprovedForAll(owner, _msgSender()) */\n      tag_113\n        /* \"@openzeppelin/contracts@4.6.0/token/ERC721/ERC721.sol\":3798:3803  owner */\n      dup2\n        /* \"@openzeppelin/contracts@4.6.0/token/ERC721/ERC721.sol\":3805:3817  _msgSender() */\n      tag_114\n        /* \"@openzeppelin/contracts@4.6.0/token/ERC721/ERC721.sol\":3805:3815  _msgSender */\n      tag_111\n        /* \"@openzeppelin/contracts@4.6.0/token/ERC721/ERC721.sol\":3805:3817  _msgSender() */\n      jump\t// in\n    tag_114:\n        /* \"@openzeppelin/contracts@4.6.0/token/ERC721/ERC721.sol\":3781:3797  isApprovedForAll */\n      tag_85\n        /* \"@openzeppelin/contracts@4.6.0/token/ERC721/ERC721.sol\":3781:3818  isApprovedForAll(owner, _msgSender()) */\n      jump\t// in\n    tag_113:\n        /* \"@openzeppelin/contracts@4.6.0/token/ERC721/ERC721.sol\":3756:3818  _msgSender() == owner || isApprovedForAll(owner, _msgSender()) */\n    tag_112:\n        /* \"@openzeppelin/contracts@4.6.0/token/ERC721/ERC721.sol\":3735:3900  require(... */\n      tag_115\n      jumpi\n      mload(0x40)\n      0x08c379a000000000000000000000000000000000000000000000000000000000\n      dup2\n      mstore\n      0x04\n      add\n      tag_116\n      swap1\n      tag_117\n      jump\t// in\n    tag_116:\n      mload(0x40)\n      dup1\n      swap2\n      sub\n      swap1\n      revert\n    tag_115:\n        /* \"@openzeppelin/contracts@4.6.0/token/ERC721/ERC721.sol\":3911:3932  _approve(to, tokenId) */\n      tag_118\n        /* \"@openzeppelin/contracts@4.6.0/token/ERC721/ERC721.sol\":3920:3922  to */\n      dup4\n        /* \"@openzeppelin/contracts@4.6.0/token/ERC721/ERC721.sol\":3924:3931  tokenId */\n      dup4\n        /* \"@openzeppelin/contracts@4.6.0/token/ERC721/ERC721.sol\":3911:3919  _approve */\n      tag_119\n        /* \"@openzeppelin/contracts@4.6.0/token/ERC721/ERC721.sol\":3911:3932  _approve(to, tokenId) */\n      jump\t// in\n    tag_118:\n        /* \"@openzeppelin/contracts@4.6.0/token/ERC721/ERC721.sol\":3608:3939  {... */\n      pop\n        /* \"@openzeppelin/contracts@4.6.0/token/ERC721/ERC721.sol\":3538:3939  function approve(address to, uint256 tokenId) public virtual override {... */\n      pop\n      pop\n      jump\t// out\n        /* \"contracts/OnlyOwnerMintWithModifier.sol\":886:982  function nftMint(uint256 tokenId)public onlyOwner{... */\n    tag_44:\n        /* \"contracts/OnlyOwnerMintWithModifier.sol\":633:645  _msgSender() */\n      tag_121\n        /* \"contracts/OnlyOwnerMintWithModifier.sol\":633:643  _msgSender */\n      tag_111\n        /* \"contracts/OnlyOwnerMintWithModifier.sol\":633:645  _msgSender() */\n      jump\t// in\n    tag_121:\n        /* \"contracts/OnlyOwnerMintWithModifier.sol\":624:645  owner == _msgSender() */\n      0xffffffffffffffffffffffffffffffffffffffff\n      and\n        /* \"contracts/OnlyOwnerMintWithModifier.sol\":624:629  owner */\n      0x06\n      0x00\n      swap1\n      sload\n      swap1\n      0x0100\n      exp\n      swap1\n      div\n      0xffffffffffffffffffffffffffffffffffffffff\n      and\n        /* \"contracts/OnlyOwnerMintWithModifier.sol\":624:645  owner == _msgSender() */\n      0xffffffffffffffffffffffffffffffffffffffff\n      and\n      eq\n        /* \"contracts/OnlyOwnerMintWithModifier.sol\":616:674  require(owner == _msgSender(), \"Caller is not the owner.\") */\n      tag_122\n      jumpi\n      mload(0x40)\n      0x08c379a000000000000000000000000000000000000000000000000000000000\n      dup2\n      mstore\n      0x04\n      add\n      tag_123\n      swap1\n      tag_124\n      jump\t// in\n    tag_123:\n      mload(0x40)\n      dup1\n      swap2\n      sub\n      swap1\n      revert\n    tag_122:\n        /* \"contracts/OnlyOwnerMintWithModifier.sol\":946:974  _mint(_msgSender(), tokenId) */\n      tag_126\n        /* \"contracts/OnlyOwnerMintWithModifier.sol\":952:964  _msgSender() */\n      tag_127\n        /* \"contracts/OnlyOwnerMintWithModifier.sol\":952:962  _msgSender */\n      tag_111\n        /* \"contracts/OnlyOwnerMintWithModifier.sol\":952:964  _msgSender() */\n      jump\t// in\n    tag_127:\n        /* \"contracts/OnlyOwnerMintWithModifier.sol\":966:973  tokenId */\n      dup3\n        /* \"contracts/OnlyOwnerMintWithModifier.sol\":946:951  _mint */\n      tag_128\n        /* \"contracts/OnlyOwnerMintWithModifier.sol\":946:974  _mint(_msgSender(), tokenId) */\n      jump\t// in\n    tag_126:\n        /* \"contracts/OnlyOwnerMintWithModifier.sol\":886:982  function nftMint(uint256 tokenId)public onlyOwner{... */\n      pop\n      jump\t// out\n        /* \"@openzeppelin/contracts@4.6.0/token/ERC721/ERC721.sol\":4727:5057  function transferFrom(... */\n    tag_48:\n        /* \"@openzeppelin/contracts@4.6.0/token/ERC721/ERC721.sol\":4916:4957  _isApprovedOrOwner(_msgSender(), tokenId) */\n      tag_130\n        /* \"@openzeppelin/contracts@4.6.0/token/ERC721/ERC721.sol\":4935:4947  _msgSender() */\n      tag_131\n        /* \"@openzeppelin/contracts@4.6.0/token/ERC721/ERC721.sol\":4935:4945  _msgSender */\n      tag_111\n        /* \"@openzeppelin/contracts@4.6.0/token/ERC721/ERC721.sol\":4935:4947  _msgSender() */\n      jump\t// in\n    tag_131:\n        /* \"@openzeppelin/contracts@4.6.0/token/ERC721/ERC721.sol\":4949:4956  tokenId */\n      dup3\n        /* \"@openzeppelin/contracts@4.6.0/token/ERC721/ERC721.sol\":4916:4934  _isApprovedOrOwner */\n      tag_132\n        /* \"@openzeppelin/contracts@4.6.0/token/ERC721/ERC721.sol\":4916:4957  _isApprovedOrOwner(_msgSender(), tokenId) */\n      jump\t// in\n    tag_130:\n        /* \"@openzeppelin/contracts@4.6.0/token/ERC721/ERC721.sol\":4908:5011  require(_isApprovedOrOwner(_msgSender(), tokenId), \"ERC721: transfer caller is not owner nor approved\") */\n      tag_133\n      jumpi\n      mload(0x40)\n      0x08c379a000000000000000000000000000000000000000000000000000000000\n      dup2\n      mstore\n      0x04\n      add\n      tag_134\n      swap1\n      tag_135\n      jump\t// in\n    tag_134:\n      mload(0x40)\n      dup1\n      swap2\n      sub\n      swap1\n      revert\n    tag_133:\n        /* \"@openzeppelin/contracts@4.6.0/token/ERC721/ERC721.sol\":5022:5050  _transfer(from, to, tokenId) */\n      tag_136\n        /* \"@openzeppelin/contracts@4.6.0/token/ERC721/ERC721.sol\":5032:5036  from */\n      dup4\n        /* \"@openzeppelin/contracts@4.6.0/token/ERC721/ERC721.sol\":5038:5040  to */\n      dup4\n        /* \"@openzeppelin/contracts@4.6.0/token/ERC721/ERC721.sol\":5042:5049  tokenId */\n      dup4\n        /* \"@openzeppelin/contracts@4.6.0/token/ERC721/ERC721.sol\":5022:5031  _transfer */\n      tag_137\n        /* \"@openzeppelin/contracts@4.6.0/token/ERC721/ERC721.sol\":5022:5050  _transfer(from, to, tokenId) */\n      jump\t// in\n    tag_136:\n        /* \"@openzeppelin/contracts@4.6.0/token/ERC721/ERC721.sol\":4727:5057  function transferFrom(... */\n      pop\n      pop\n      pop\n      jump\t// out\n        /* \"@openzeppelin/contracts@4.6.0/token/ERC721/ERC721.sol\":5123:5302  function safeTransferFrom(... */\n    tag_51:\n        /* \"@openzeppelin/contracts@4.6.0/token/ERC721/ERC721.sol\":5256:5295  safeTransferFrom(from, to, tokenId, \"\") */\n      tag_139\n        /* \"@openzeppelin/contracts@4.6.0/token/ERC721/ERC721.sol\":5273:5277  from */\n      dup4\n        /* \"@openzeppelin/contracts@4.6.0/token/ERC721/ERC721.sol\":5279:5281  to */\n      dup4\n        /* \"@openzeppelin/contracts@4.6.0/token/ERC721/ERC721.sol\":5283:5290  tokenId */\n      dup4\n        /* \"@openzeppelin/contracts@4.6.0/token/ERC721/ERC721.sol\":5256:5295  safeTransferFrom(from, to, tokenId, \"\") */\n      mload(0x40)\n      dup1\n      0x20\n      add\n      0x40\n      mstore\n      dup1\n      0x00\n      dup2\n      mstore\n      pop\n        /* \"@openzeppelin/contracts@4.6.0/token/ERC721/ERC721.sol\":5256:5272  safeTransferFrom */\n      tag_77\n        /* \"@openzeppelin/contracts@4.6.0/token/ERC721/ERC721.sol\":5256:5295  safeTransferFrom(from, to, tokenId, \"\") */\n      jump\t// in\n    tag_139:\n        /* \"@openzeppelin/contracts@4.6.0/token/ERC721/ERC721.sol\":5123:5302  function safeTransferFrom(... */\n      pop\n      pop\n      pop\n      jump\t// out\n        /* \"@openzeppelin/contracts@4.6.0/token/ERC721/ERC721.sol\":2191:2426  function ownerOf(uint256 tokenId) public view virtual override returns (address) {... */\n    tag_54:\n        /* \"@openzeppelin/contracts@4.6.0/token/ERC721/ERC721.sol\":2263:2270  address */\n      0x00\n        /* \"@openzeppelin/contracts@4.6.0/token/ERC721/ERC721.sol\":2282:2295  address owner */\n      dup1\n        /* \"@openzeppelin/contracts@4.6.0/token/ERC721/ERC721.sol\":2298:2305  _owners */\n      0x02\n        /* \"@openzeppelin/contracts@4.6.0/token/ERC721/ERC721.sol\":2298:2314  _owners[tokenId] */\n      0x00\n        /* \"@openzeppelin/contracts@4.6.0/token/ERC721/ERC721.sol\":2306:2313  tokenId */\n      dup5\n        /* \"@openzeppelin/contracts@4.6.0/token/ERC721/ERC721.sol\":2298:2314  _owners[tokenId] */\n      dup2\n      mstore\n      0x20\n      add\n      swap1\n      dup2\n      mstore\n      0x20\n      add\n      0x00\n      keccak256\n      0x00\n      swap1\n      sload\n      swap1\n      0x0100\n      exp\n      swap1\n      div\n      0xffffffffffffffffffffffffffffffffffffffff\n      and\n        /* \"@openzeppelin/contracts@4.6.0/token/ERC721/ERC721.sol\":2282:2314  address owner = _owners[tokenId] */\n      swap1\n      pop\n        /* \"@openzeppelin/contracts@4.6.0/token/ERC721/ERC721.sol\":2349:2350  0 */\n      0x00\n        /* \"@openzeppelin/contracts@4.6.0/token/ERC721/ERC721.sol\":2332:2351  owner != address(0) */\n      0xffffffffffffffffffffffffffffffffffffffff\n      and\n        /* \"@openzeppelin/contracts@4.6.0/token/ERC721/ERC721.sol\":2332:2337  owner */\n      dup2\n        /* \"@openzeppelin/contracts@4.6.0/token/ERC721/ERC721.sol\":2332:2351  owner != address(0) */\n      0xffffffffffffffffffffffffffffffffffffffff\n      and\n      sub\n        /* \"@openzeppelin/contracts@4.6.0/token/ERC721/ERC721.sol\":2324:2397  require(owner != address(0), \"ERC721: owner query for nonexistent token\") */\n      tag_141\n      jumpi\n      mload(0x40)\n      0x08c379a000000000000000000000000000000000000000000000000000000000\n      dup2\n      mstore\n      0x04\n      add\n      tag_142\n      swap1\n      tag_143\n      jump\t// in\n    tag_142:\n      mload(0x40)\n      dup1\n      swap2\n      sub\n      swap1\n      revert\n    tag_141:\n        /* \"@openzeppelin/contracts@4.6.0/token/ERC721/ERC721.sol\":2414:2419  owner */\n      dup1\n        /* \"@openzeppelin/contracts@4.6.0/token/ERC721/ERC721.sol\":2407:2419  return owner */\n      swap2\n      pop\n      pop\n        /* \"@openzeppelin/contracts@4.6.0/token/ERC721/ERC721.sol\":2191:2426  function ownerOf(uint256 tokenId) public view virtual override returns (address) {... */\n      swap2\n      swap1\n      pop\n      jump\t// out\n        /* \"@openzeppelin/contracts@4.6.0/token/ERC721/ERC721.sol\":1929:2134  function balanceOf(address owner) public view virtual override returns (uint256) {... */\n    tag_59:\n        /* \"@openzeppelin/contracts@4.6.0/token/ERC721/ERC721.sol\":2001:2008  uint256 */\n      0x00\n        /* \"@openzeppelin/contracts@4.6.0/token/ERC721/ERC721.sol\":2045:2046  0 */\n      dup1\n        /* \"@openzeppelin/contracts@4.6.0/token/ERC721/ERC721.sol\":2028:2047  owner != address(0) */\n      0xffffffffffffffffffffffffffffffffffffffff\n      and\n        /* \"@openzeppelin/contracts@4.6.0/token/ERC721/ERC721.sol\":2028:2033  owner */\n      dup3\n        /* \"@openzeppelin/contracts@4.6.0/token/ERC721/ERC721.sol\":2028:2047  owner != address(0) */\n      0xffffffffffffffffffffffffffffffffffffffff\n      and\n      sub\n        /* \"@openzeppelin/contracts@4.6.0/token/ERC721/ERC721.sol\":2020:2094  require(owner != address(0), \"ERC721: balance query for the zero address\") */\n      tag_145\n      jumpi\n      mload(0x40)\n      0x08c379a000000000000000000000000000000000000000000000000000000000\n      dup2\n      mstore\n      0x04\n      add\n      tag_146\n      swap1\n      tag_147\n      jump\t// in\n    tag_146:\n      mload(0x40)\n      dup1\n      swap2\n      sub\n      swap1\n      revert\n    tag_145:\n        /* \"@openzeppelin/contracts@4.6.0/token/ERC721/ERC721.sol\":2111:2120  _balances */\n      0x03\n        /* \"@openzeppelin/contracts@4.6.0/token/ERC721/ERC721.sol\":2111:2127  _balances[owner] */\n      0x00\n        /* \"@openzeppelin/contracts@4.6.0/token/ERC721/ERC721.sol\":2121:2126  owner */\n      dup4\n        /* \"@openzeppelin/contracts@4.6.0/token/ERC721/ERC721.sol\":2111:2127  _balances[owner] */\n      0xffffffffffffffffffffffffffffffffffffffff\n      and\n      0xffffffffffffffffffffffffffffffffffffffff\n      and\n      dup2\n      mstore\n      0x20\n      add\n      swap1\n      dup2\n      mstore\n      0x20\n      add\n      0x00\n      keccak256\n      sload\n        /* \"@openzeppelin/contracts@4.6.0/token/ERC721/ERC721.sol\":2104:2127  return _balances[owner] */\n      swap1\n      pop\n        /* \"@openzeppelin/contracts@4.6.0/token/ERC721/ERC721.sol\":1929:2134  function balanceOf(address owner) public view virtual override returns (uint256) {... */\n      swap2\n      swap1\n      pop\n      jump\t// out\n        /* \"contracts/OnlyOwnerMintWithModifier.sol\":990:1016  function nftMint()public{} */\n    tag_63:\n      jump\t// out\n        /* \"contracts/OnlyOwnerMintWithModifier.sol\":299:319  address public owner */\n    tag_65:\n      0x06\n      0x00\n      swap1\n      sload\n      swap1\n      0x0100\n      exp\n      swap1\n      div\n      0xffffffffffffffffffffffffffffffffffffffff\n      and\n      dup2\n      jump\t// out\n        /* \"@openzeppelin/contracts@4.6.0/token/ERC721/ERC721.sol\":2650:2752  function symbol() public view virtual override returns (string memory) {... */\n    tag_68:\n        /* \"@openzeppelin/contracts@4.6.0/token/ERC721/ERC721.sol\":2706:2719  string memory */\n      0x60\n        /* \"@openzeppelin/contracts@4.6.0/token/ERC721/ERC721.sol\":2738:2745  _symbol */\n      0x01\n        /* \"@openzeppelin/contracts@4.6.0/token/ERC721/ERC721.sol\":2731:2745  return _symbol */\n      dup1\n      sload\n      tag_150\n      swap1\n      tag_94\n      jump\t// in\n    tag_150:\n      dup1\n      0x1f\n      add\n      0x20\n      dup1\n      swap2\n      div\n      mul\n      0x20\n      add\n      mload(0x40)\n      swap1\n      dup2\n      add\n      0x40\n      mstore\n      dup1\n      swap3\n      swap2\n      swap1\n      dup2\n      dup2\n      mstore\n      0x20\n      add\n      dup3\n      dup1\n      sload\n      tag_151\n      swap1\n      tag_94\n      jump\t// in\n    tag_151:\n      dup1\n      iszero\n      tag_152\n      jumpi\n      dup1\n      0x1f\n      lt\n      tag_153\n      jumpi\n      0x0100\n      dup1\n      dup4\n      sload\n      div\n      mul\n      dup4\n      mstore\n      swap2\n      0x20\n      add\n      swap2\n      jump(tag_152)\n    tag_153:\n      dup3\n      add\n      swap2\n      swap1\n      0x00\n      mstore\n      keccak256(0x00, 0x20)\n      swap1\n    tag_154:\n      dup2\n      sload\n      dup2\n      mstore\n      swap1\n      0x01\n      add\n      swap1\n      0x20\n      add\n      dup1\n      dup4\n      gt\n      tag_154\n      jumpi\n      dup3\n      swap1\n      sub\n      0x1f\n      and\n      dup3\n      add\n      swap2\n    tag_152:\n      pop\n      pop\n      pop\n      pop\n      pop\n      swap1\n      pop\n        /* \"@openzeppelin/contracts@4.6.0/token/ERC721/ERC721.sol\":2650:2752  function symbol() public view virtual override returns (string memory) {... */\n      swap1\n      jump\t// out\n        /* \"@openzeppelin/contracts@4.6.0/token/ERC721/ERC721.sol\":4284:4437  function setApprovalForAll(address operator, bool approved) public virtual override {... */\n    tag_73:\n        /* \"@openzeppelin/contracts@4.6.0/token/ERC721/ERC721.sol\":4378:4430  _setApprovalForAll(_msgSender(), operator, approved) */\n      tag_156\n        /* \"@openzeppelin/contracts@4.6.0/token/ERC721/ERC721.sol\":4397:4409  _msgSender() */\n      tag_157\n        /* \"@openzeppelin/contracts@4.6.0/token/ERC721/ERC721.sol\":4397:4407  _msgSender */\n      tag_111\n        /* \"@openzeppelin/contracts@4.6.0/token/ERC721/ERC721.sol\":4397:4409  _msgSender() */\n      jump\t// in\n    tag_157:\n        /* \"@openzeppelin/contracts@4.6.0/token/ERC721/ERC721.sol\":4411:4419  operator */\n      dup4\n        /* \"@openzeppelin/contracts@4.6.0/token/ERC721/ERC721.sol\":4421:4429  approved */\n      dup4\n        /* \"@openzeppelin/contracts@4.6.0/token/ERC721/ERC721.sol\":4378:4396  _setApprovalForAll */\n      tag_158\n        /* \"@openzeppelin/contracts@4.6.0/token/ERC721/ERC721.sol\":4378:4430  _setApprovalForAll(_msgSender(), operator, approved) */\n      jump\t// in\n    tag_156:\n        /* \"@openzeppelin/contracts@4.6.0/token/ERC721/ERC721.sol\":4284:4437  function setApprovalForAll(address operator, bool approved) public virtual override {... */\n      pop\n      pop\n      jump\t// out\n        /* \"@openzeppelin/contracts@4.6.0/token/ERC721/ERC721.sol\":5368:5688  function safeTransferFrom(... */\n    tag_77:\n        /* \"@openzeppelin/contracts@4.6.0/token/ERC721/ERC721.sol\":5537:5578  _isApprovedOrOwner(_msgSender(), tokenId) */\n      tag_160\n        /* \"@openzeppelin/contracts@4.6.0/token/ERC721/ERC721.sol\":5556:5568  _msgSender() */\n      tag_161\n        /* \"@openzeppelin/contracts@4.6.0/token/ERC721/ERC721.sol\":5556:5566  _msgSender */\n      tag_111\n        /* \"@openzeppelin/contracts@4.6.0/token/ERC721/ERC721.sol\":5556:5568  _msgSender() */\n      jump\t// in\n    tag_161:\n        /* \"@openzeppelin/contracts@4.6.0/token/ERC721/ERC721.sol\":5570:5577  tokenId */\n      dup4\n        /* \"@openzeppelin/contracts@4.6.0/token/ERC721/ERC721.sol\":5537:5555  _isApprovedOrOwner */\n      tag_132\n        /* \"@openzeppelin/contracts@4.6.0/token/ERC721/ERC721.sol\":5537:5578  _isApprovedOrOwner(_msgSender(), tokenId) */\n      jump\t// in\n    tag_160:\n        /* \"@openzeppelin/contracts@4.6.0/token/ERC721/ERC721.sol\":5529:5632  require(_isApprovedOrOwner(_msgSender(), tokenId), \"ERC721: transfer caller is not owner nor approved\") */\n      tag_162\n      jumpi\n      mload(0x40)\n      0x08c379a000000000000000000000000000000000000000000000000000000000\n      dup2\n      mstore\n      0x04\n      add\n      tag_163\n      swap1\n      tag_135\n      jump\t// in\n    tag_163:\n      mload(0x40)\n      dup1\n      swap2\n      sub\n      swap1\n      revert\n    tag_162:\n        /* \"@openzeppelin/contracts@4.6.0/token/ERC721/ERC721.sol\":5642:5681  _safeTransfer(from, to, tokenId, _data) */\n      tag_164\n        /* \"@openzeppelin/contracts@4.6.0/token/ERC721/ERC721.sol\":5656:5660  from */\n      dup5\n        /* \"@openzeppelin/contracts@4.6.0/token/ERC721/ERC721.sol\":5662:5664  to */\n      dup5\n        /* \"@openzeppelin/contracts@4.6.0/token/ERC721/ERC721.sol\":5666:5673  tokenId */\n      dup5\n        /* \"@openzeppelin/contracts@4.6.0/token/ERC721/ERC721.sol\":5675:5680  _data */\n      dup5\n        /* \"@openzeppelin/contracts@4.6.0/token/ERC721/ERC721.sol\":5642:5655  _safeTransfer */\n      tag_165\n        /* \"@openzeppelin/contracts@4.6.0/token/ERC721/ERC721.sol\":5642:5681  _safeTransfer(from, to, tokenId, _data) */\n      jump\t// in\n    tag_164:\n        /* \"@openzeppelin/contracts@4.6.0/token/ERC721/ERC721.sol\":5368:5688  function safeTransferFrom(... */\n      pop\n      pop\n      pop\n      pop\n      jump\t// out\n        /* \"@openzeppelin/contracts@4.6.0/token/ERC721/ERC721.sol\":2818:3147  function tokenURI(uint256 tokenId) public view virtual override returns (string memory) {... */\n    tag_80:\n        /* \"@openzeppelin/contracts@4.6.0/token/ERC721/ERC721.sol\":2891:2904  string memory */\n      0x60\n        /* \"@openzeppelin/contracts@4.6.0/token/ERC721/ERC721.sol\":2924:2940  _exists(tokenId) */\n      tag_167\n        /* \"@openzeppelin/contracts@4.6.0/token/ERC721/ERC721.sol\":2932:2939  tokenId */\n      dup3\n        /* \"@openzeppelin/contracts@4.6.0/token/ERC721/ERC721.sol\":2924:2931  _exists */\n      tag_101\n        /* \"@openzeppelin/contracts@4.6.0/token/ERC721/ERC721.sol\":2924:2940  _exists(tokenId) */\n      jump\t// in\n    tag_167:\n        /* \"@openzeppelin/contracts@4.6.0/token/ERC721/ERC721.sol\":2916:2992  require(_exists(tokenId), \"ERC721Metadata: URI query for nonexistent token\") */\n      tag_168\n      jumpi\n      mload(0x40)\n      0x08c379a000000000000000000000000000000000000000000000000000000000\n      dup2\n      mstore\n      0x04\n      add\n      tag_169\n      swap1\n      tag_170\n      jump\t// in\n    tag_169:\n      mload(0x40)\n      dup1\n      swap2\n      sub\n      swap1\n      revert\n    tag_168:\n        /* \"@openzeppelin/contracts@4.6.0/token/ERC721/ERC721.sol\":3003:3024  string memory baseURI */\n      0x00\n        /* \"@openzeppelin/contracts@4.6.0/token/ERC721/ERC721.sol\":3027:3037  _baseURI() */\n      tag_171\n        /* \"@openzeppelin/contracts@4.6.0/token/ERC721/ERC721.sol\":3027:3035  _baseURI */\n      tag_172\n        /* \"@openzeppelin/contracts@4.6.0/token/ERC721/ERC721.sol\":3027:3037  _baseURI() */\n      jump\t// in\n    tag_171:\n        /* \"@openzeppelin/contracts@4.6.0/token/ERC721/ERC721.sol\":3003:3037  string memory baseURI = _baseURI() */\n      swap1\n      pop\n        /* \"@openzeppelin/contracts@4.6.0/token/ERC721/ERC721.sol\":3078:3079  0 */\n      0x00\n        /* \"@openzeppelin/contracts@4.6.0/token/ERC721/ERC721.sol\":3060:3067  baseURI */\n      dup2\n        /* \"@openzeppelin/contracts@4.6.0/token/ERC721/ERC721.sol\":3054:3075  bytes(baseURI).length */\n      mload\n        /* \"@openzeppelin/contracts@4.6.0/token/ERC721/ERC721.sol\":3054:3079  bytes(baseURI).length > 0 */\n      gt\n        /* \"@openzeppelin/contracts@4.6.0/token/ERC721/ERC721.sol\":3054:3140  bytes(baseURI).length > 0 ? string(abi.encodePacked(baseURI, tokenId.toString())) : \"\" */\n      tag_173\n      jumpi\n      mload(0x40)\n      dup1\n      0x20\n      add\n      0x40\n      mstore\n      dup1\n      0x00\n      dup2\n      mstore\n      pop\n      jump(tag_174)\n    tag_173:\n        /* \"@openzeppelin/contracts@4.6.0/token/ERC721/ERC721.sol\":3106:3113  baseURI */\n      dup1\n        /* \"@openzeppelin/contracts@4.6.0/token/ERC721/ERC721.sol\":3115:3133  tokenId.toString() */\n      tag_175\n        /* \"@openzeppelin/contracts@4.6.0/token/ERC721/ERC721.sol\":3115:3122  tokenId */\n      dup5\n        /* \"@openzeppelin/contracts@4.6.0/token/ERC721/ERC721.sol\":3115:3131  tokenId.toString */\n      tag_176\n        /* \"@openzeppelin/contracts@4.6.0/token/ERC721/ERC721.sol\":3115:3133  tokenId.toString() */\n      jump\t// in\n    tag_175:\n        /* \"@openzeppelin/contracts@4.6.0/token/ERC721/ERC721.sol\":3089:3134  abi.encodePacked(baseURI, tokenId.toString()) */\n      add(0x20, mload(0x40))\n      tag_177\n      swap3\n      swap2\n      swap1\n      tag_178\n      jump\t// in\n    tag_177:\n      mload(0x40)\n      0x20\n      dup2\n      dup4\n      sub\n      sub\n      dup2\n      mstore\n      swap1\n      0x40\n      mstore\n        /* \"@openzeppelin/contracts@4.6.0/token/ERC721/ERC721.sol\":3054:3140  bytes(baseURI).length > 0 ? string(abi.encodePacked(baseURI, tokenId.toString())) : \"\" */\n    tag_174:\n        /* \"@openzeppelin/contracts@4.6.0/token/ERC721/ERC721.sol\":3047:3140  return bytes(baseURI).length > 0 ? string(abi.encodePacked(baseURI, tokenId.toString())) : \"\" */\n      swap2\n      pop\n      pop\n        /* \"@openzeppelin/contracts@4.6.0/token/ERC721/ERC721.sol\":2818:3147  function tokenURI(uint256 tokenId) public view virtual override returns (string memory) {... */\n      swap2\n      swap1\n      pop\n      jump\t// out\n        /* \"@openzeppelin/contracts@4.6.0/token/ERC721/ERC721.sol\":4503:4665  function isApprovedForAll(address owner, address operator) public view virtual override returns (bool) {... */\n    tag_85:\n        /* \"@openzeppelin/contracts@4.6.0/token/ERC721/ERC721.sol\":4600:4604  bool */\n      0x00\n        /* \"@openzeppelin/contracts@4.6.0/token/ERC721/ERC721.sol\":4623:4641  _operatorApprovals */\n      0x05\n        /* \"@openzeppelin/contracts@4.6.0/token/ERC721/ERC721.sol\":4623:4648  _operatorApprovals[owner] */\n      0x00\n        /* \"@openzeppelin/contracts@4.6.0/token/ERC721/ERC721.sol\":4642:4647  owner */\n      dup5\n        /* \"@openzeppelin/contracts@4.6.0/token/ERC721/ERC721.sol\":4623:4648  _operatorApprovals[owner] */\n      0xffffffffffffffffffffffffffffffffffffffff\n      and\n      0xffffffffffffffffffffffffffffffffffffffff\n      and\n      dup2\n      mstore\n      0x20\n      add\n      swap1\n      dup2\n      mstore\n      0x20\n      add\n      0x00\n      keccak256\n        /* \"@openzeppelin/contracts@4.6.0/token/ERC721/ERC721.sol\":4623:4658  _operatorApprovals[owner][operator] */\n      0x00\n        /* \"@openzeppelin/contracts@4.6.0/token/ERC721/ERC721.sol\":4649:4657  operator */\n      dup4\n        /* \"@openzeppelin/contracts@4.6.0/token/ERC721/ERC721.sol\":4623:4658  _operatorApprovals[owner][operator] */\n      0xffffffffffffffffffffffffffffffffffffffff\n      and\n      0xffffffffffffffffffffffffffffffffffffffff\n      and\n      dup2\n      mstore\n      0x20\n      add\n      swap1\n      dup2\n      mstore\n      0x20\n      add\n      0x00\n      keccak256\n      0x00\n      swap1\n      sload\n      swap1\n      0x0100\n      exp\n      swap1\n      div\n      0xff\n      and\n        /* \"@openzeppelin/contracts@4.6.0/token/ERC721/ERC721.sol\":4616:4658  return _operatorApprovals[owner][operator] */\n      swap1\n      pop\n        /* \"@openzeppelin/contracts@4.6.0/token/ERC721/ERC721.sol\":4503:4665  function isApprovedForAll(address owner, address operator) public view virtual override returns (bool) {... */\n      swap3\n      swap2\n      pop\n      pop\n      jump\t// out\n        /* \"@openzeppelin/contracts@4.6.0/utils/introspection/ERC165.sol\":829:984  function supportsInterface(bytes4 interfaceId) public view virtual override returns (bool) {... */\n    tag_91:\n        /* \"@openzeppelin/contracts@4.6.0/utils/introspection/ERC165.sol\":914:918  bool */\n      0x00\n        /* \"@openzeppelin/contracts@4.6.0/utils/introspection/ERC165.sol\":952:977  type(IERC165).interfaceId */\n      0x01ffc9a700000000000000000000000000000000000000000000000000000000\n        /* \"@openzeppelin/contracts@4.6.0/utils/introspection/ERC165.sol\":937:977  interfaceId == type(IERC165).interfaceId */\n      not(0xffffffffffffffffffffffffffffffffffffffffffffffffffffffff)\n      and\n        /* \"@openzeppelin/contracts@4.6.0/utils/introspection/ERC165.sol\":937:948  interfaceId */\n      dup3\n        /* \"@openzeppelin/contracts@4.6.0/utils/introspection/ERC165.sol\":937:977  interfaceId == type(IERC165).interfaceId */\n      not(0xffffffffffffffffffffffffffffffffffffffffffffffffffffffff)\n      and\n      eq\n        /* \"@openzeppelin/contracts@4.6.0/utils/introspection/ERC165.sol\":930:977  return interfaceId == type(IERC165).interfaceId */\n      swap1\n      pop\n        /* \"@openzeppelin/contracts@4.6.0/utils/introspection/ERC165.sol\":829:984  function supportsInterface(bytes4 interfaceId) public view virtual override returns (bool) {... */\n      swap2\n      swap1\n      pop\n      jump\t// out\n        /* \"@openzeppelin/contracts@4.6.0/token/ERC721/ERC721.sol\":7160:7285  function _exists(uint256 tokenId) internal view virtual returns (bool) {... */\n    tag_101:\n        /* \"@openzeppelin/contracts@4.6.0/token/ERC721/ERC721.sol\":7225:7229  bool */\n      0x00\n        /* \"@openzeppelin/contracts@4.6.0/token/ERC721/ERC721.sol\":7276:7277  0 */\n      dup1\n        /* \"@openzeppelin/contracts@4.6.0/token/ERC721/ERC721.sol\":7248:7278  _owners[tokenId] != address(0) */\n      0xffffffffffffffffffffffffffffffffffffffff\n      and\n        /* \"@openzeppelin/contracts@4.6.0/token/ERC721/ERC721.sol\":7248:7255  _owners */\n      0x02\n        /* \"@openzeppelin/contracts@4.6.0/token/ERC721/ERC721.sol\":7248:7264  _owners[tokenId] */\n      0x00\n        /* \"@openzeppelin/contracts@4.6.0/token/ERC721/ERC721.sol\":7256:7263  tokenId */\n      dup5\n        /* \"@openzeppelin/contracts@4.6.0/token/ERC721/ERC721.sol\":7248:7264  _owners[tokenId] */\n      dup2\n      mstore\n      0x20\n      add\n      swap1\n      dup2\n      mstore\n      0x20\n      add\n      0x00\n      keccak256\n      0x00\n      swap1\n      sload\n      swap1\n      0x0100\n      exp\n      swap1\n      div\n      0xffffffffffffffffffffffffffffffffffffffff\n      and\n        /* \"@openzeppelin/contracts@4.6.0/token/ERC721/ERC721.sol\":7248:7278  _owners[tokenId] != address(0) */\n      0xffffffffffffffffffffffffffffffffffffffff\n      and\n      eq\n      iszero\n        /* \"@openzeppelin/contracts@4.6.0/token/ERC721/ERC721.sol\":7241:7278  return _owners[tokenId] != address(0) */\n      swap1\n      pop\n        /* \"@openzeppelin/contracts@4.6.0/token/ERC721/ERC721.sol\":7160:7285  function _exists(uint256 tokenId) internal view virtual returns (bool) {... */\n      swap2\n      swap1\n      pop\n      jump\t// out\n        /* \"@openzeppelin/contracts@4.6.0/utils/Context.sol\":640:736  function _msgSender() internal view virtual returns (address) {... */\n    tag_111:\n        /* \"@openzeppelin/contracts@4.6.0/utils/Context.sol\":693:700  address */\n      0x00\n        /* \"@openzeppelin/contracts@4.6.0/utils/Context.sol\":719:729  msg.sender */\n      caller\n        /* \"@openzeppelin/contracts@4.6.0/utils/Context.sol\":712:729  return msg.sender */\n      swap1\n      pop\n        /* \"@openzeppelin/contracts@4.6.0/utils/Context.sol\":640:736  function _msgSender() internal view virtual returns (address) {... */\n      swap1\n      jump\t// out\n        /* \"@openzeppelin/contracts@4.6.0/token/ERC721/ERC721.sol\":11169:11340  function _approve(address to, uint256 tokenId) internal virtual {... */\n    tag_119:\n        /* \"@openzeppelin/contracts@4.6.0/token/ERC721/ERC721.sol\":11270:11272  to */\n      dup2\n        /* \"@openzeppelin/contracts@4.6.0/token/ERC721/ERC721.sol\":11243:11258  _tokenApprovals */\n      0x04\n        /* \"@openzeppelin/contracts@4.6.0/token/ERC721/ERC721.sol\":11243:11267  _tokenApprovals[tokenId] */\n      0x00\n        /* \"@openzeppelin/contracts@4.6.0/token/ERC721/ERC721.sol\":11259:11266  tokenId */\n      dup4\n        /* \"@openzeppelin/contracts@4.6.0/token/ERC721/ERC721.sol\":11243:11267  _tokenApprovals[tokenId] */\n      dup2\n      mstore\n      0x20\n      add\n      swap1\n      dup2\n      mstore\n      0x20\n      add\n      0x00\n      keccak256\n      0x00\n        /* \"@openzeppelin/contracts@4.6.0/token/ERC721/ERC721.sol\":11243:11272  _tokenApprovals[tokenId] = to */\n      0x0100\n      exp\n      dup2\n      sload\n      dup2\n      0xffffffffffffffffffffffffffffffffffffffff\n      mul\n      not\n      and\n      swap1\n      dup4\n      0xffffffffffffffffffffffffffffffffffffffff\n      and\n      mul\n      or\n      swap1\n      sstore\n      pop\n        /* \"@openzeppelin/contracts@4.6.0/token/ERC721/ERC721.sol\":11325:11332  tokenId */\n      dup1\n        /* \"@openzeppelin/contracts@4.6.0/token/ERC721/ERC721.sol\":11321:11323  to */\n      dup3\n        /* \"@openzeppelin/contracts@4.6.0/token/ERC721/ERC721.sol\":11287:11333  Approval(ERC721.ownerOf(tokenId), to, tokenId) */\n      0xffffffffffffffffffffffffffffffffffffffff\n      and\n        /* \"@openzeppelin/contracts@4.6.0/token/ERC721/ERC721.sol\":11296:11319  ERC721.ownerOf(tokenId) */\n      tag_184\n        /* \"@openzeppelin/contracts@4.6.0/token/ERC721/ERC721.sol\":11311:11318  tokenId */\n      dup4\n        /* \"@openzeppelin/contracts@4.6.0/token/ERC721/ERC721.sol\":11296:11310  ERC721.ownerOf */\n      tag_54\n        /* \"@openzeppelin/contracts@4.6.0/token/ERC721/ERC721.sol\":11296:11319  ERC721.ownerOf(tokenId) */\n      jump\t// in\n    tag_184:\n        /* \"@openzeppelin/contracts@4.6.0/token/ERC721/ERC721.sol\":11287:11333  Approval(ERC721.ownerOf(tokenId), to, tokenId) */\n      0xffffffffffffffffffffffffffffffffffffffff\n      and\n      0x8c5be1e5ebec7d5bd14f71427d1e84f3dd0314c0f7b2291e5b200ac8c7c3b925\n      mload(0x40)\n      mload(0x40)\n      dup1\n      swap2\n      sub\n      swap1\n      log4\n        /* \"@openzeppelin/contracts@4.6.0/token/ERC721/ERC721.sol\":11169:11340  function _approve(address to, uint256 tokenId) internal virtual {... */\n      pop\n      pop\n      jump\t// out\n        /* \"@openzeppelin/contracts@4.6.0/token/ERC721/ERC721.sol\":9079:9506  function _mint(address to, uint256 tokenId) internal virtual {... */\n    tag_128:\n        /* \"@openzeppelin/contracts@4.6.0/token/ERC721/ERC721.sol\":9172:9173  0 */\n      0x00\n        /* \"@openzeppelin/contracts@4.6.0/token/ERC721/ERC721.sol\":9158:9174  to != address(0) */\n      0xffffffffffffffffffffffffffffffffffffffff\n      and\n        /* \"@openzeppelin/contracts@4.6.0/token/ERC721/ERC721.sol\":9158:9160  to */\n      dup3\n        /* \"@openzeppelin/contracts@4.6.0/token/ERC721/ERC721.sol\":9158:9174  to != address(0) */\n      0xffffffffffffffffffffffffffffffffffffffff\n      and\n      sub\n        /* \"@openzeppelin/contracts@4.6.0/token/ERC721/ERC721.sol\":9150:9211  require(to != address(0), \"ERC721: mint to the zero address\") */\n      tag_186\n      jumpi\n      mload(0x40)\n      0x08c379a000000000000000000000000000000000000000000000000000000000\n      dup2\n      mstore\n      0x04\n      add\n      tag_187\n      swap1\n      tag_188\n      jump\t// in\n    tag_187:\n      mload(0x40)\n      dup1\n      swap2\n      sub\n      swap1\n      revert\n    tag_186:\n        /* \"@openzeppelin/contracts@4.6.0/token/ERC721/ERC721.sol\":9230:9246  _exists(tokenId) */\n      tag_189\n        /* \"@openzeppelin/contracts@4.6.0/token/ERC721/ERC721.sol\":9238:9245  tokenId */\n      dup2\n        /* \"@openzeppelin/contracts@4.6.0/token/ERC721/ERC721.sol\":9230:9237  _exists */\n      tag_101\n        /* \"@openzeppelin/contracts@4.6.0/token/ERC721/ERC721.sol\":9230:9246  _exists(tokenId) */\n      jump\t// in\n    tag_189:\n        /* \"@openzeppelin/contracts@4.6.0/token/ERC721/ERC721.sol\":9229:9246  !_exists(tokenId) */\n      iszero\n        /* \"@openzeppelin/contracts@4.6.0/token/ERC721/ERC721.sol\":9221:9279  require(!_exists(tokenId), \"ERC721: token already minted\") */\n      tag_190\n      jumpi\n      mload(0x40)\n      0x08c379a000000000000000000000000000000000000000000000000000000000\n      dup2\n      mstore\n      0x04\n      add\n      tag_191\n      swap1\n      tag_192\n      jump\t// in\n    tag_191:\n      mload(0x40)\n      dup1\n      swap2\n      sub\n      swap1\n      revert\n    tag_190:\n        /* \"@openzeppelin/contracts@4.6.0/token/ERC721/ERC721.sol\":9290:9335  _beforeTokenTransfer(address(0), to, tokenId) */\n      tag_193\n        /* \"@openzeppelin/contracts@4.6.0/token/ERC721/ERC721.sol\":9319:9320  0 */\n      0x00\n        /* \"@openzeppelin/contracts@4.6.0/token/ERC721/ERC721.sol\":9323:9325  to */\n      dup4\n        /* \"@openzeppelin/contracts@4.6.0/token/ERC721/ERC721.sol\":9327:9334  tokenId */\n      dup4\n        /* \"@openzeppelin/contracts@4.6.0/token/ERC721/ERC721.sol\":9290:9310  _beforeTokenTransfer */\n      tag_194\n        /* \"@openzeppelin/contracts@4.6.0/token/ERC721/ERC721.sol\":9290:9335  _beforeTokenTransfer(address(0), to, tokenId) */\n      jump\t// in\n    tag_193:\n        /* \"@openzeppelin/contracts@4.6.0/token/ERC721/ERC721.sol\":9363:9364  1 */\n      0x01\n        /* \"@openzeppelin/contracts@4.6.0/token/ERC721/ERC721.sol\":9346:9355  _balances */\n      0x03\n        /* \"@openzeppelin/contracts@4.6.0/token/ERC721/ERC721.sol\":9346:9359  _balances[to] */\n      0x00\n        /* \"@openzeppelin/contracts@4.6.0/token/ERC721/ERC721.sol\":9356:9358  to */\n      dup5\n        /* \"@openzeppelin/contracts@4.6.0/token/ERC721/ERC721.sol\":9346:9359  _balances[to] */\n      0xffffffffffffffffffffffffffffffffffffffff\n      and\n      0xffffffffffffffffffffffffffffffffffffffff\n      and\n      dup2\n      mstore\n      0x20\n      add\n      swap1\n      dup2\n      mstore\n      0x20\n      add\n      0x00\n      keccak256\n      0x00\n        /* \"@openzeppelin/contracts@4.6.0/token/ERC721/ERC721.sol\":9346:9364  _balances[to] += 1 */\n      dup3\n      dup3\n      sload\n      tag_195\n      swap2\n      swap1\n      tag_196\n      jump\t// in\n    tag_195:\n      swap3\n      pop\n      pop\n      dup2\n      swap1\n      sstore\n      pop\n        /* \"@openzeppelin/contracts@4.6.0/token/ERC721/ERC721.sol\":9393:9395  to */\n      dup2\n        /* \"@openzeppelin/contracts@4.6.0/token/ERC721/ERC721.sol\":9374:9381  _owners */\n      0x02\n        /* \"@openzeppelin/contracts@4.6.0/token/ERC721/ERC721.sol\":9374:9390  _owners[tokenId] */\n      0x00\n        /* \"@openzeppelin/contracts@4.6.0/token/ERC721/ERC721.sol\":9382:9389  tokenId */\n      dup4\n        /* \"@openzeppelin/contracts@4.6.0/token/ERC721/ERC721.sol\":9374:9390  _owners[tokenId] */\n      dup2\n      mstore\n      0x20\n      add\n      swap1\n      dup2\n      mstore\n      0x20\n      add\n      0x00\n      keccak256\n      0x00\n        /* \"@openzeppelin/contracts@4.6.0/token/ERC721/ERC721.sol\":9374:9395  _owners[tokenId] = to */\n      0x0100\n      exp\n      dup2\n      sload\n      dup2\n      0xffffffffffffffffffffffffffffffffffffffff\n      mul\n      not\n      and\n      swap1\n      dup4\n      0xffffffffffffffffffffffffffffffffffffffff\n      and\n      mul\n      or\n      swap1\n      sstore\n      pop\n        /* \"@openzeppelin/contracts@4.6.0/token/ERC721/ERC721.sol\":9436:9443  tokenId */\n      dup1\n        /* \"@openzeppelin/contracts@4.6.0/token/ERC721/ERC721.sol\":9432:9434  to */\n      dup3\n        /* \"@openzeppelin/contracts@4.6.0/token/ERC721/ERC721.sol\":9411:9444  Transfer(address(0), to, tokenId) */\n      0xffffffffffffffffffffffffffffffffffffffff\n      and\n        /* \"@openzeppelin/contracts@4.6.0/token/ERC721/ERC721.sol\":9428:9429  0 */\n      0x00\n        /* \"@openzeppelin/contracts@4.6.0/token/ERC721/ERC721.sol\":9411:9444  Transfer(address(0), to, tokenId) */\n      0xffffffffffffffffffffffffffffffffffffffff\n      and\n      0xddf252ad1be2c89b69c2b068fc378daa952ba7f163c4a11628f55a4df523b3ef\n      mload(0x40)\n      mload(0x40)\n      dup1\n      swap2\n      sub\n      swap1\n      log4\n        /* \"@openzeppelin/contracts@4.6.0/token/ERC721/ERC721.sol\":9455:9499  _afterTokenTransfer(address(0), to, tokenId) */\n      tag_197\n        /* \"@openzeppelin/contracts@4.6.0/token/ERC721/ERC721.sol\":9483:9484  0 */\n      0x00\n        /* \"@openzeppelin/contracts@4.6.0/token/ERC721/ERC721.sol\":9487:9489  to */\n      dup4\n        /* \"@openzeppelin/contracts@4.6.0/token/ERC721/ERC721.sol\":9491:9498  tokenId */\n      dup4\n        /* \"@openzeppelin/contracts@4.6.0/token/ERC721/ERC721.sol\":9455:9474  _afterTokenTransfer */\n      tag_198\n        /* \"@openzeppelin/contracts@4.6.0/token/ERC721/ERC721.sol\":9455:9499  _afterTokenTransfer(address(0), to, tokenId) */\n      jump\t// in\n    tag_197:\n        /* \"@openzeppelin/contracts@4.6.0/token/ERC721/ERC721.sol\":9079:9506  function _mint(address to, uint256 tokenId) internal virtual {... */\n      pop\n      pop\n      jump\t// out\n        /* \"@openzeppelin/contracts@4.6.0/token/ERC721/ERC721.sol\":7443:7787  function _isApprovedOrOwner(address spender, uint256 tokenId) internal view virtual returns (bool) {... */\n    tag_132:\n        /* \"@openzeppelin/contracts@4.6.0/token/ERC721/ERC721.sol\":7536:7540  bool */\n      0x00\n        /* \"@openzeppelin/contracts@4.6.0/token/ERC721/ERC721.sol\":7560:7576  _exists(tokenId) */\n      tag_200\n        /* \"@openzeppelin/contracts@4.6.0/token/ERC721/ERC721.sol\":7568:7575  tokenId */\n      dup3\n        /* \"@openzeppelin/contracts@4.6.0/token/ERC721/ERC721.sol\":7560:7567  _exists */\n      tag_101\n        /* \"@openzeppelin/contracts@4.6.0/token/ERC721/ERC721.sol\":7560:7576  _exists(tokenId) */\n      jump\t// in\n    tag_200:\n        /* \"@openzeppelin/contracts@4.6.0/token/ERC721/ERC721.sol\":7552:7625  require(_exists(tokenId), \"ERC721: operator query for nonexistent token\") */\n      tag_201\n      jumpi\n      mload(0x40)\n      0x08c379a000000000000000000000000000000000000000000000000000000000\n      dup2\n      mstore\n      0x04\n      add\n      tag_202\n      swap1\n      tag_203\n      jump\t// in\n    tag_202:\n      mload(0x40)\n      dup1\n      swap2\n      sub\n      swap1\n      revert\n    tag_201:\n        /* \"@openzeppelin/contracts@4.6.0/token/ERC721/ERC721.sol\":7635:7648  address owner */\n      0x00\n        /* \"@openzeppelin/contracts@4.6.0/token/ERC721/ERC721.sol\":7651:7674  ERC721.ownerOf(tokenId) */\n      tag_204\n        /* \"@openzeppelin/contracts@4.6.0/token/ERC721/ERC721.sol\":7666:7673  tokenId */\n      dup4\n        /* \"@openzeppelin/contracts@4.6.0/token/ERC721/ERC721.sol\":7651:7665  ERC721.ownerOf */\n      tag_54\n        /* \"@openzeppelin/contracts@4.6.0/token/ERC721/ERC721.sol\":7651:7674  ERC721.ownerOf(tokenId) */\n      jump\t// in\n    tag_204:\n        /* \"@openzeppelin/contracts@4.6.0/token/ERC721/ERC721.sol\":7635:7674  address owner = ERC721.ownerOf(tokenId) */\n      swap1\n      pop\n        /* \"@openzeppelin/contracts@4.6.0/token/ERC721/ERC721.sol\":7703:7708  owner */\n      dup1\n        /* \"@openzeppelin/contracts@4.6.0/token/ERC721/ERC721.sol\":7692:7708  spender == owner */\n      0xffffffffffffffffffffffffffffffffffffffff\n      and\n        /* \"@openzeppelin/contracts@4.6.0/token/ERC721/ERC721.sol\":7692:7699  spender */\n      dup5\n        /* \"@openzeppelin/contracts@4.6.0/token/ERC721/ERC721.sol\":7692:7708  spender == owner */\n      0xffffffffffffffffffffffffffffffffffffffff\n      and\n      eq\n        /* \"@openzeppelin/contracts@4.6.0/token/ERC721/ERC721.sol\":7692:7744  spender == owner || isApprovedForAll(owner, spender) */\n      dup1\n      tag_205\n      jumpi\n      pop\n        /* \"@openzeppelin/contracts@4.6.0/token/ERC721/ERC721.sol\":7712:7744  isApprovedForAll(owner, spender) */\n      tag_206\n        /* \"@openzeppelin/contracts@4.6.0/token/ERC721/ERC721.sol\":7729:7734  owner */\n      dup2\n        /* \"@openzeppelin/contracts@4.6.0/token/ERC721/ERC721.sol\":7736:7743  spender */\n      dup6\n        /* \"@openzeppelin/contracts@4.6.0/token/ERC721/ERC721.sol\":7712:7728  isApprovedForAll */\n      tag_85\n        /* \"@openzeppelin/contracts@4.6.0/token/ERC721/ERC721.sol\":7712:7744  isApprovedForAll(owner, spender) */\n      jump\t// in\n    tag_206:\n        /* \"@openzeppelin/contracts@4.6.0/token/ERC721/ERC721.sol\":7692:7744  spender == owner || isApprovedForAll(owner, spender) */\n    tag_205:\n        /* \"@openzeppelin/contracts@4.6.0/token/ERC721/ERC721.sol\":7692:7779  spender == owner || isApprovedForAll(owner, spender) || getApproved(tokenId) == spender */\n      dup1\n      tag_207\n      jumpi\n      pop\n        /* \"@openzeppelin/contracts@4.6.0/token/ERC721/ERC721.sol\":7772:7779  spender */\n      dup4\n        /* \"@openzeppelin/contracts@4.6.0/token/ERC721/ERC721.sol\":7748:7779  getApproved(tokenId) == spender */\n      0xffffffffffffffffffffffffffffffffffffffff\n      and\n        /* \"@openzeppelin/contracts@4.6.0/token/ERC721/ERC721.sol\":7748:7768  getApproved(tokenId) */\n      tag_208\n        /* \"@openzeppelin/contracts@4.6.0/token/ERC721/ERC721.sol\":7760:7767  tokenId */\n      dup5\n        /* \"@openzeppelin/contracts@4.6.0/token/ERC721/ERC721.sol\":7748:7759  getApproved */\n      tag_35\n        /* \"@openzeppelin/contracts@4.6.0/token/ERC721/ERC721.sol\":7748:7768  getApproved(tokenId) */\n      jump\t// in\n    tag_208:\n        /* \"@openzeppelin/contracts@4.6.0/token/ERC721/ERC721.sol\":7748:7779  getApproved(tokenId) == spender */\n      0xffffffffffffffffffffffffffffffffffffffff\n      and\n      eq\n        /* \"@openzeppelin/contracts@4.6.0/token/ERC721/ERC721.sol\":7692:7779  spender == owner || isApprovedForAll(owner, spender) || getApproved(tokenId) == spender */\n    tag_207:\n        /* \"@openzeppelin/contracts@4.6.0/token/ERC721/ERC721.sol\":7684:7780  return (spender == owner || isApprovedForAll(owner, spender) || getApproved(tokenId) == spender) */\n      swap2\n      pop\n      pop\n        /* \"@openzeppelin/contracts@4.6.0/token/ERC721/ERC721.sol\":7443:7787  function _isApprovedOrOwner(address spender, uint256 tokenId) internal view virtual returns (bool) {... */\n      swap3\n      swap2\n      pop\n      pop\n      jump\t// out\n        /* \"@openzeppelin/contracts@4.6.0/token/ERC721/ERC721.sol\":10453:11058  function _transfer(... */\n    tag_137:\n        /* \"@openzeppelin/contracts@4.6.0/token/ERC721/ERC721.sol\":10607:10611  from */\n      dup3\n        /* \"@openzeppelin/contracts@4.6.0/token/ERC721/ERC721.sol\":10580:10611  ERC721.ownerOf(tokenId) == from */\n      0xffffffffffffffffffffffffffffffffffffffff\n      and\n        /* \"@openzeppelin/contracts@4.6.0/token/ERC721/ERC721.sol\":10580:10603  ERC721.ownerOf(tokenId) */\n      tag_210\n        /* \"@openzeppelin/contracts@4.6.0/token/ERC721/ERC721.sol\":10595:10602  tokenId */\n      dup3\n        /* \"@openzeppelin/contracts@4.6.0/token/ERC721/ERC721.sol\":10580:10594  ERC721.ownerOf */\n      tag_54\n        /* \"@openzeppelin/contracts@4.6.0/token/ERC721/ERC721.sol\":10580:10603  ERC721.ownerOf(tokenId) */\n      jump\t// in\n    tag_210:\n        /* \"@openzeppelin/contracts@4.6.0/token/ERC721/ERC721.sol\":10580:10611  ERC721.ownerOf(tokenId) == from */\n      0xffffffffffffffffffffffffffffffffffffffff\n      and\n      eq\n        /* \"@openzeppelin/contracts@4.6.0/token/ERC721/ERC721.sol\":10572:10653  require(ERC721.ownerOf(tokenId) == from, \"ERC721: transfer from incorrect owner\") */\n      tag_211\n      jumpi\n      mload(0x40)\n      0x08c379a000000000000000000000000000000000000000000000000000000000\n      dup2\n      mstore\n      0x04\n      add\n      tag_212\n      swap1\n      tag_213\n      jump\t// in\n    tag_212:\n      mload(0x40)\n      dup1\n      swap2\n      sub\n      swap1\n      revert\n    tag_211:\n        /* \"@openzeppelin/contracts@4.6.0/token/ERC721/ERC721.sol\":10685:10686  0 */\n      0x00\n        /* \"@openzeppelin/contracts@4.6.0/token/ERC721/ERC721.sol\":10671:10687  to != address(0) */\n      0xffffffffffffffffffffffffffffffffffffffff\n      and\n        /* \"@openzeppelin/contracts@4.6.0/token/ERC721/ERC721.sol\":10671:10673  to */\n      dup3\n        /* \"@openzeppelin/contracts@4.6.0/token/ERC721/ERC721.sol\":10671:10687  to != address(0) */\n      0xffffffffffffffffffffffffffffffffffffffff\n      and\n      sub\n        /* \"@openzeppelin/contracts@4.6.0/token/ERC721/ERC721.sol\":10663:10728  require(to != address(0), \"ERC721: transfer to the zero address\") */\n      tag_214\n      jumpi\n      mload(0x40)\n      0x08c379a000000000000000000000000000000000000000000000000000000000\n      dup2\n      mstore\n      0x04\n      add\n      tag_215\n      swap1\n      tag_216\n      jump\t// in\n    tag_215:\n      mload(0x40)\n      dup1\n      swap2\n      sub\n      swap1\n      revert\n    tag_214:\n        /* \"@openzeppelin/contracts@4.6.0/token/ERC721/ERC721.sol\":10739:10778  _beforeTokenTransfer(from, to, tokenId) */\n      tag_217\n        /* \"@openzeppelin/contracts@4.6.0/token/ERC721/ERC721.sol\":10760:10764  from */\n      dup4\n        /* \"@openzeppelin/contracts@4.6.0/token/ERC721/ERC721.sol\":10766:10768  to */\n      dup4\n        /* \"@openzeppelin/contracts@4.6.0/token/ERC721/ERC721.sol\":10770:10777  tokenId */\n      dup4\n        /* \"@openzeppelin/contracts@4.6.0/token/ERC721/ERC721.sol\":10739:10759  _beforeTokenTransfer */\n      tag_194\n        /* \"@openzeppelin/contracts@4.6.0/token/ERC721/ERC721.sol\":10739:10778  _beforeTokenTransfer(from, to, tokenId) */\n      jump\t// in\n    tag_217:\n        /* \"@openzeppelin/contracts@4.6.0/token/ERC721/ERC721.sol\":10840:10869  _approve(address(0), tokenId) */\n      tag_218\n        /* \"@openzeppelin/contracts@4.6.0/token/ERC721/ERC721.sol\":10857:10858  0 */\n      0x00\n        /* \"@openzeppelin/contracts@4.6.0/token/ERC721/ERC721.sol\":10861:10868  tokenId */\n      dup3\n        /* \"@openzeppelin/contracts@4.6.0/token/ERC721/ERC721.sol\":10840:10848  _approve */\n      tag_119\n        /* \"@openzeppelin/contracts@4.6.0/token/ERC721/ERC721.sol\":10840:10869  _approve(address(0), tokenId) */\n      jump\t// in\n    tag_218:\n        /* \"@openzeppelin/contracts@4.6.0/token/ERC721/ERC721.sol\":10899:10900  1 */\n      0x01\n        /* \"@openzeppelin/contracts@4.6.0/token/ERC721/ERC721.sol\":10880:10889  _balances */\n      0x03\n        /* \"@openzeppelin/contracts@4.6.0/token/ERC721/ERC721.sol\":10880:10895  _balances[from] */\n      0x00\n        /* \"@openzeppelin/contracts@4.6.0/token/ERC721/ERC721.sol\":10890:10894  from */\n      dup6\n        /* \"@openzeppelin/contracts@4.6.0/token/ERC721/ERC721.sol\":10880:10895  _balances[from] */\n      0xffffffffffffffffffffffffffffffffffffffff\n      and\n      0xffffffffffffffffffffffffffffffffffffffff\n      and\n      dup2\n      mstore\n      0x20\n      add\n      swap1\n      dup2\n      mstore\n      0x20\n      add\n      0x00\n      keccak256\n      0x00\n        /* \"@openzeppelin/contracts@4.6.0/token/ERC721/ERC721.sol\":10880:10900  _balances[from] -= 1 */\n      dup3\n      dup3\n      sload\n      tag_219\n      swap2\n      swap1\n      tag_220\n      jump\t// in\n    tag_219:\n      swap3\n      pop\n      pop\n      dup2\n      swap1\n      sstore\n      pop\n        /* \"@openzeppelin/contracts@4.6.0/token/ERC721/ERC721.sol\":10927:10928  1 */\n      0x01\n        /* \"@openzeppelin/contracts@4.6.0/token/ERC721/ERC721.sol\":10910:10919  _balances */\n      0x03\n        /* \"@openzeppelin/contracts@4.6.0/token/ERC721/ERC721.sol\":10910:10923  _balances[to] */\n      0x00\n        /* \"@openzeppelin/contracts@4.6.0/token/ERC721/ERC721.sol\":10920:10922  to */\n      dup5\n        /* \"@openzeppelin/contracts@4.6.0/token/ERC721/ERC721.sol\":10910:10923  _balances[to] */\n      0xffffffffffffffffffffffffffffffffffffffff\n      and\n      0xffffffffffffffffffffffffffffffffffffffff\n      and\n      dup2\n      mstore\n      0x20\n      add\n      swap1\n      dup2\n      mstore\n      0x20\n      add\n      0x00\n      keccak256\n      0x00\n        /* \"@openzeppelin/contracts@4.6.0/token/ERC721/ERC721.sol\":10910:10928  _balances[to] += 1 */\n      dup3\n      dup3\n      sload\n      tag_221\n      swap2\n      swap1\n      tag_196\n      jump\t// in\n    tag_221:\n      swap3\n      pop\n      pop\n      dup2\n      swap1\n      sstore\n      pop\n        /* \"@openzeppelin/contracts@4.6.0/token/ERC721/ERC721.sol\":10957:10959  to */\n      dup2\n        /* \"@openzeppelin/contracts@4.6.0/token/ERC721/ERC721.sol\":10938:10945  _owners */\n      0x02\n        /* \"@openzeppelin/contracts@4.6.0/token/ERC721/ERC721.sol\":10938:10954  _owners[tokenId] */\n      0x00\n        /* \"@openzeppelin/contracts@4.6.0/token/ERC721/ERC721.sol\":10946:10953  tokenId */\n      dup4\n        /* \"@openzeppelin/contracts@4.6.0/token/ERC721/ERC721.sol\":10938:10954  _owners[tokenId] */\n      dup2\n      mstore\n      0x20\n      add\n      swap1\n      dup2\n      mstore\n      0x20\n      add\n      0x00\n      keccak256\n      0x00\n        /* \"@openzeppelin/contracts@4.6.0/token/ERC721/ERC721.sol\":10938:10959  _owners[tokenId] = to */\n      0x0100\n      exp\n      dup2\n      sload\n      dup2\n      0xffffffffffffffffffffffffffffffffffffffff\n      mul\n      not\n      and\n      swap1\n      dup4\n      0xffffffffffffffffffffffffffffffffffffffff\n      and\n      mul\n      or\n      swap1\n      sstore\n      pop\n        /* \"@openzeppelin/contracts@4.6.0/token/ERC721/ERC721.sol\":10994:11001  tokenId */\n      dup1\n        /* \"@openzeppelin/contracts@4.6.0/token/ERC721/ERC721.sol\":10990:10992  to */\n      dup3\n        /* \"@openzeppelin/contracts@4.6.0/token/ERC721/ERC721.sol\":10975:11002  Transfer(from, to, tokenId) */\n      0xffffffffffffffffffffffffffffffffffffffff\n      and\n        /* \"@openzeppelin/contracts@4.6.0/token/ERC721/ERC721.sol\":10984:10988  from */\n      dup5\n        /* \"@openzeppelin/contracts@4.6.0/token/ERC721/ERC721.sol\":10975:11002  Transfer(from, to, tokenId) */\n      0xffffffffffffffffffffffffffffffffffffffff\n      and\n      0xddf252ad1be2c89b69c2b068fc378daa952ba7f163c4a11628f55a4df523b3ef\n      mload(0x40)\n      mload(0x40)\n      dup1\n      swap2\n      sub\n      swap1\n      log4\n        /* \"@openzeppelin/contracts@4.6.0/token/ERC721/ERC721.sol\":11013:11051  _afterTokenTransfer(from, to, tokenId) */\n      tag_222\n        /* \"@openzeppelin/contracts@4.6.0/token/ERC721/ERC721.sol\":11033:11037  from */\n      dup4\n        /* \"@openzeppelin/contracts@4.6.0/token/ERC721/ERC721.sol\":11039:11041  to */\n      dup4\n        /* \"@openzeppelin/contracts@4.6.0/token/ERC721/ERC721.sol\":11043:11050  tokenId */\n      dup4\n        /* \"@openzeppelin/contracts@4.6.0/token/ERC721/ERC721.sol\":11013:11032  _afterTokenTransfer */\n      tag_198\n        /* \"@openzeppelin/contracts@4.6.0/token/ERC721/ERC721.sol\":11013:11051  _afterTokenTransfer(from, to, tokenId) */\n      jump\t// in\n    tag_222:\n        /* \"@openzeppelin/contracts@4.6.0/token/ERC721/ERC721.sol\":10453:11058  function _transfer(... */\n      pop\n      pop\n      pop\n      jump\t// out\n        /* \"@openzeppelin/contracts@4.6.0/token/ERC721/ERC721.sol\":11475:11782  function _setApprovalForAll(... */\n    tag_158:\n        /* \"@openzeppelin/contracts@4.6.0/token/ERC721/ERC721.sol\":11625:11633  operator */\n      dup2\n        /* \"@openzeppelin/contracts@4.6.0/token/ERC721/ERC721.sol\":11616:11633  owner != operator */\n      0xffffffffffffffffffffffffffffffffffffffff\n      and\n        /* \"@openzeppelin/contracts@4.6.0/token/ERC721/ERC721.sol\":11616:11621  owner */\n      dup4\n        /* \"@openzeppelin/contracts@4.6.0/token/ERC721/ERC721.sol\":11616:11633  owner != operator */\n      0xffffffffffffffffffffffffffffffffffffffff\n      and\n      sub\n        /* \"@openzeppelin/contracts@4.6.0/token/ERC721/ERC721.sol\":11608:11663  require(owner != operator, \"ERC721: approve to caller\") */\n      tag_224\n      jumpi\n      mload(0x40)\n      0x08c379a000000000000000000000000000000000000000000000000000000000\n      dup2\n      mstore\n      0x04\n      add\n      tag_225\n      swap1\n      tag_226\n      jump\t// in\n    tag_225:\n      mload(0x40)\n      dup1\n      swap2\n      sub\n      swap1\n      revert\n    tag_224:\n        /* \"@openzeppelin/contracts@4.6.0/token/ERC721/ERC721.sol\":11711:11719  approved */\n      dup1\n        /* \"@openzeppelin/contracts@4.6.0/token/ERC721/ERC721.sol\":11673:11691  _operatorApprovals */\n      0x05\n        /* \"@openzeppelin/contracts@4.6.0/token/ERC721/ERC721.sol\":11673:11698  _operatorApprovals[owner] */\n      0x00\n        /* \"@openzeppelin/contracts@4.6.0/token/ERC721/ERC721.sol\":11692:11697  owner */\n      dup6\n        /* \"@openzeppelin/contracts@4.6.0/token/ERC721/ERC721.sol\":11673:11698  _operatorApprovals[owner] */\n      0xffffffffffffffffffffffffffffffffffffffff\n      and\n      0xffffffffffffffffffffffffffffffffffffffff\n      and\n      dup2\n      mstore\n      0x20\n      add\n      swap1\n      dup2\n      mstore\n      0x20\n      add\n      0x00\n      keccak256\n        /* \"@openzeppelin/contracts@4.6.0/token/ERC721/ERC721.sol\":11673:11708  _operatorApprovals[owner][operator] */\n      0x00\n        /* \"@openzeppelin/contracts@4.6.0/token/ERC721/ERC721.sol\":11699:11707  operator */\n      dup5\n        /* \"@openzeppelin/contracts@4.6.0/token/ERC721/ERC721.sol\":11673:11708  _operatorApprovals[owner][operator] */\n      0xffffffffffffffffffffffffffffffffffffffff\n      and\n      0xffffffffffffffffffffffffffffffffffffffff\n      and\n      dup2\n      mstore\n      0x20\n      add\n      swap1\n      dup2\n      mstore\n      0x20\n      add\n      0x00\n      keccak256\n      0x00\n        /* \"@openzeppelin/contracts@4.6.0/token/ERC721/ERC721.sol\":11673:11719  _operatorApprovals[owner][operator] = approved */\n      0x0100\n      exp\n      dup2\n      sload\n      dup2\n      0xff\n      mul\n      not\n      and\n      swap1\n      dup4\n      iszero\n      iszero\n      mul\n      or\n      swap1\n      sstore\n      pop\n        /* \"@openzeppelin/contracts@4.6.0/token/ERC721/ERC721.sol\":11756:11764  operator */\n      dup2\n        /* \"@openzeppelin/contracts@4.6.0/token/ERC721/ERC721.sol\":11734:11775  ApprovalForAll(owner, operator, approved) */\n      0xffffffffffffffffffffffffffffffffffffffff\n      and\n        /* \"@openzeppelin/contracts@4.6.0/token/ERC721/ERC721.sol\":11749:11754  owner */\n      dup4\n        /* \"@openzeppelin/contracts@4.6.0/token/ERC721/ERC721.sol\":11734:11775  ApprovalForAll(owner, operator, approved) */\n      0xffffffffffffffffffffffffffffffffffffffff\n      and\n      0x17307eab39ab6107e8899845ad3d59bd9653f200f220920489ca2b5937696c31\n        /* \"@openzeppelin/contracts@4.6.0/token/ERC721/ERC721.sol\":11766:11774  approved */\n      dup4\n        /* \"@openzeppelin/contracts@4.6.0/token/ERC721/ERC721.sol\":11734:11775  ApprovalForAll(owner, operator, approved) */\n      mload(0x40)\n      tag_227\n      swap2\n      swap1\n      tag_27\n      jump\t// in\n    tag_227:\n      mload(0x40)\n      dup1\n      swap2\n      sub\n      swap1\n      log3\n        /* \"@openzeppelin/contracts@4.6.0/token/ERC721/ERC721.sol\":11475:11782  function _setApprovalForAll(... */\n      pop\n      pop\n      pop\n      jump\t// out\n        /* \"@openzeppelin/contracts@4.6.0/token/ERC721/ERC721.sol\":6550:6857  function _safeTransfer(... */\n    tag_165:\n        /* \"@openzeppelin/contracts@4.6.0/token/ERC721/ERC721.sol\":6701:6729  _transfer(from, to, tokenId) */\n      tag_229\n        /* \"@openzeppelin/contracts@4.6.0/token/ERC721/ERC721.sol\":6711:6715  from */\n      dup5\n        /* \"@openzeppelin/contracts@4.6.0/token/ERC721/ERC721.sol\":6717:6719  to */\n      dup5\n        /* \"@openzeppelin/contracts@4.6.0/token/ERC721/ERC721.sol\":6721:6728  tokenId */\n      dup5\n        /* \"@openzeppelin/contracts@4.6.0/token/ERC721/ERC721.sol\":6701:6710  _transfer */\n      tag_137\n        /* \"@openzeppelin/contracts@4.6.0/token/ERC721/ERC721.sol\":6701:6729  _transfer(from, to, tokenId) */\n      jump\t// in\n    tag_229:\n        /* \"@openzeppelin/contracts@4.6.0/token/ERC721/ERC721.sol\":6747:6795  _checkOnERC721Received(from, to, tokenId, _data) */\n      tag_230\n        /* \"@openzeppelin/contracts@4.6.0/token/ERC721/ERC721.sol\":6770:6774  from */\n      dup5\n        /* \"@openzeppelin/contracts@4.6.0/token/ERC721/ERC721.sol\":6776:6778  to */\n      dup5\n        /* \"@openzeppelin/contracts@4.6.0/token/ERC721/ERC721.sol\":6780:6787  tokenId */\n      dup5\n        /* \"@openzeppelin/contracts@4.6.0/token/ERC721/ERC721.sol\":6789:6794  _data */\n      dup5\n        /* \"@openzeppelin/contracts@4.6.0/token/ERC721/ERC721.sol\":6747:6769  _checkOnERC721Received */\n      tag_231\n        /* \"@openzeppelin/contracts@4.6.0/token/ERC721/ERC721.sol\":6747:6795  _checkOnERC721Received(from, to, tokenId, _data) */\n      jump\t// in\n    tag_230:\n        /* \"@openzeppelin/contracts@4.6.0/token/ERC721/ERC721.sol\":6739:6850  require(_checkOnERC721Received(from, to, tokenId, _data), \"ERC721: transfer to non ERC721Receiver implementer\") */\n      tag_232\n      jumpi\n      mload(0x40)\n      0x08c379a000000000000000000000000000000000000000000000000000000000\n      dup2\n      mstore\n      0x04\n      add\n      tag_233\n      swap1\n      tag_234\n      jump\t// in\n    tag_233:\n      mload(0x40)\n      dup1\n      swap2\n      sub\n      swap1\n      revert\n    tag_232:\n        /* \"@openzeppelin/contracts@4.6.0/token/ERC721/ERC721.sol\":6550:6857  function _safeTransfer(... */\n      pop\n      pop\n      pop\n      pop\n      jump\t// out\n        /* \"@openzeppelin/contracts@4.6.0/token/ERC721/ERC721.sol\":3389:3481  function _baseURI() internal view virtual returns (string memory) {... */\n    tag_172:\n        /* \"@openzeppelin/contracts@4.6.0/token/ERC721/ERC721.sol\":3440:3453  string memory */\n      0x60\n        /* \"@openzeppelin/contracts@4.6.0/token/ERC721/ERC721.sol\":3465:3474  return \"\" */\n      mload(0x40)\n      dup1\n      0x20\n      add\n      0x40\n      mstore\n      dup1\n      0x00\n      dup2\n      mstore\n      pop\n      swap1\n      pop\n        /* \"@openzeppelin/contracts@4.6.0/token/ERC721/ERC721.sol\":3389:3481  function _baseURI() internal view virtual returns (string memory) {... */\n      swap1\n      jump\t// out\n        /* \"@openzeppelin/contracts@4.6.0/utils/Strings.sol\":328:1031  function toString(uint256 value) internal pure returns (string memory) {... */\n    tag_176:\n        /* \"@openzeppelin/contracts@4.6.0/utils/Strings.sol\":384:397  string memory */\n      0x60\n        /* \"@openzeppelin/contracts@4.6.0/utils/Strings.sol\":610:611  0 */\n      0x00\n        /* \"@openzeppelin/contracts@4.6.0/utils/Strings.sol\":601:606  value */\n      dup3\n        /* \"@openzeppelin/contracts@4.6.0/utils/Strings.sol\":601:611  value == 0 */\n      sub\n        /* \"@openzeppelin/contracts@4.6.0/utils/Strings.sol\":597:648  if (value == 0) {... */\n      tag_237\n      jumpi\n        /* \"@openzeppelin/contracts@4.6.0/utils/Strings.sol\":627:637  return \"0\" */\n      mload(0x40)\n      dup1\n      0x40\n      add\n      0x40\n      mstore\n      dup1\n      0x01\n      dup2\n      mstore\n      0x20\n      add\n      0x3000000000000000000000000000000000000000000000000000000000000000\n      dup2\n      mstore\n      pop\n      swap1\n      pop\n      jump(tag_236)\n        /* \"@openzeppelin/contracts@4.6.0/utils/Strings.sol\":597:648  if (value == 0) {... */\n    tag_237:\n        /* \"@openzeppelin/contracts@4.6.0/utils/Strings.sol\":657:669  uint256 temp */\n      0x00\n        /* \"@openzeppelin/contracts@4.6.0/utils/Strings.sol\":672:677  value */\n      dup3\n        /* \"@openzeppelin/contracts@4.6.0/utils/Strings.sol\":657:677  uint256 temp = value */\n      swap1\n      pop\n        /* \"@openzeppelin/contracts@4.6.0/utils/Strings.sol\":687:701  uint256 digits */\n      0x00\n        /* \"@openzeppelin/contracts@4.6.0/utils/Strings.sol\":711:786  while (temp != 0) {... */\n    tag_238:\n        /* \"@openzeppelin/contracts@4.6.0/utils/Strings.sol\":726:727  0 */\n      0x00\n        /* \"@openzeppelin/contracts@4.6.0/utils/Strings.sol\":718:722  temp */\n      dup3\n        /* \"@openzeppelin/contracts@4.6.0/utils/Strings.sol\":718:727  temp != 0 */\n      eq\n        /* \"@openzeppelin/contracts@4.6.0/utils/Strings.sol\":711:786  while (temp != 0) {... */\n      tag_239\n      jumpi\n        /* \"@openzeppelin/contracts@4.6.0/utils/Strings.sol\":743:751  digits++ */\n      dup1\n      dup1\n      tag_240\n      swap1\n      tag_241\n      jump\t// in\n    tag_240:\n      swap2\n      pop\n      pop\n        /* \"@openzeppelin/contracts@4.6.0/utils/Strings.sol\":773:775  10 */\n      0x0a\n        /* \"@openzeppelin/contracts@4.6.0/utils/Strings.sol\":765:775  temp /= 10 */\n      dup3\n      tag_242\n      swap2\n      swap1\n      tag_243\n      jump\t// in\n    tag_242:\n      swap2\n      pop\n        /* \"@openzeppelin/contracts@4.6.0/utils/Strings.sol\":711:786  while (temp != 0) {... */\n      jump(tag_238)\n    tag_239:\n        /* \"@openzeppelin/contracts@4.6.0/utils/Strings.sol\":795:814  bytes memory buffer */\n      0x00\n        /* \"@openzeppelin/contracts@4.6.0/utils/Strings.sol\":827:833  digits */\n      dup2\n        /* \"@openzeppelin/contracts@4.6.0/utils/Strings.sol\":817:834  new bytes(digits) */\n      0xffffffffffffffff\n      dup2\n      gt\n      iszero\n      tag_244\n      jumpi\n      tag_245\n      tag_246\n      jump\t// in\n    tag_245:\n    tag_244:\n      mload(0x40)\n      swap1\n      dup1\n      dup3\n      mstore\n      dup1\n      0x1f\n      add\n      not(0x1f)\n      and\n      0x20\n      add\n      dup3\n      add\n      0x40\n      mstore\n      dup1\n      iszero\n      tag_247\n      jumpi\n      dup2\n      0x20\n      add\n      0x01\n      dup3\n      mul\n      dup1\n      calldatasize\n      dup4\n      calldatacopy\n      dup1\n      dup3\n      add\n      swap2\n      pop\n      pop\n      swap1\n      pop\n    tag_247:\n      pop\n        /* \"@openzeppelin/contracts@4.6.0/utils/Strings.sol\":795:834  bytes memory buffer = new bytes(digits) */\n      swap1\n      pop\n        /* \"@openzeppelin/contracts@4.6.0/utils/Strings.sol\":844:994  while (value != 0) {... */\n    tag_248:\n        /* \"@openzeppelin/contracts@4.6.0/utils/Strings.sol\":860:861  0 */\n      0x00\n        /* \"@openzeppelin/contracts@4.6.0/utils/Strings.sol\":851:856  value */\n      dup6\n        /* \"@openzeppelin/contracts@4.6.0/utils/Strings.sol\":851:861  value != 0 */\n      eq\n        /* \"@openzeppelin/contracts@4.6.0/utils/Strings.sol\":844:994  while (value != 0) {... */\n      tag_249\n      jumpi\n        /* \"@openzeppelin/contracts@4.6.0/utils/Strings.sol\":887:888  1 */\n      0x01\n        /* \"@openzeppelin/contracts@4.6.0/utils/Strings.sol\":877:888  digits -= 1 */\n      dup3\n      tag_250\n      swap2\n      swap1\n      tag_220\n      jump\t// in\n    tag_250:\n      swap2\n      pop\n        /* \"@openzeppelin/contracts@4.6.0/utils/Strings.sol\":953:955  10 */\n      0x0a\n        /* \"@openzeppelin/contracts@4.6.0/utils/Strings.sol\":945:950  value */\n      dup6\n        /* \"@openzeppelin/contracts@4.6.0/utils/Strings.sol\":945:955  value % 10 */\n      tag_251\n      swap2\n      swap1\n      tag_252\n      jump\t// in\n    tag_251:\n        /* \"@openzeppelin/contracts@4.6.0/utils/Strings.sol\":932:934  48 */\n      0x30\n        /* \"@openzeppelin/contracts@4.6.0/utils/Strings.sol\":932:956  48 + uint256(value % 10) */\n      tag_253\n      swap2\n      swap1\n      tag_196\n      jump\t// in\n    tag_253:\n        /* \"@openzeppelin/contracts@4.6.0/utils/Strings.sol\":919:958  bytes1(uint8(48 + uint256(value % 10))) */\n      0xf8\n      shl\n        /* \"@openzeppelin/contracts@4.6.0/utils/Strings.sol\":902:908  buffer */\n      dup2\n        /* \"@openzeppelin/contracts@4.6.0/utils/Strings.sol\":909:915  digits */\n      dup4\n        /* \"@openzeppelin/contracts@4.6.0/utils/Strings.sol\":902:916  buffer[digits] */\n      dup2\n      mload\n      dup2\n      lt\n      tag_254\n      jumpi\n      tag_255\n      tag_256\n      jump\t// in\n    tag_255:\n    tag_254:\n      0x20\n      add\n      add\n        /* \"@openzeppelin/contracts@4.6.0/utils/Strings.sol\":902:958  buffer[digits] = bytes1(uint8(48 + uint256(value % 10))) */\n      swap1\n      not(0xffffffffffffffffffffffffffffffffffffffffffffffffffffffffffffff)\n      and\n      swap1\n      dup2\n      0x00\n      byte\n      swap1\n      mstore8\n      pop\n        /* \"@openzeppelin/contracts@4.6.0/utils/Strings.sol\":981:983  10 */\n      0x0a\n        /* \"@openzeppelin/contracts@4.6.0/utils/Strings.sol\":972:983  value /= 10 */\n      dup6\n      tag_257\n      swap2\n      swap1\n      tag_243\n      jump\t// in\n    tag_257:\n      swap5\n      pop\n        /* \"@openzeppelin/contracts@4.6.0/utils/Strings.sol\":844:994  while (value != 0) {... */\n      jump(tag_248)\n    tag_249:\n        /* \"@openzeppelin/contracts@4.6.0/utils/Strings.sol\":1017:1023  buffer */\n      dup1\n        /* \"@openzeppelin/contracts@4.6.0/utils/Strings.sol\":1003:1024  return string(buffer) */\n      swap4\n      pop\n      pop\n      pop\n      pop\n        /* \"@openzeppelin/contracts@4.6.0/utils/Strings.sol\":328:1031  function toString(uint256 value) internal pure returns (string memory) {... */\n    tag_236:\n      swap2\n      swap1\n      pop\n      jump\t// out\n        /* \"@openzeppelin/contracts@4.6.0/token/ERC721/ERC721.sol\":13669:13791  function _beforeTokenTransfer(... */\n    tag_194:\n      pop\n      pop\n      pop\n      jump\t// out\n        /* \"@openzeppelin/contracts@4.6.0/token/ERC721/ERC721.sol\":14163:14284  function _afterTokenTransfer(... */\n    tag_198:\n      pop\n      pop\n      pop\n      jump\t// out\n        /* \"@openzeppelin/contracts@4.6.0/token/ERC721/ERC721.sol\":12335:13113  function _checkOnERC721Received(... */\n    tag_231:\n        /* \"@openzeppelin/contracts@4.6.0/token/ERC721/ERC721.sol\":12485:12489  bool */\n      0x00\n        /* \"@openzeppelin/contracts@4.6.0/token/ERC721/ERC721.sol\":12505:12520  to.isContract() */\n      tag_261\n        /* \"@openzeppelin/contracts@4.6.0/token/ERC721/ERC721.sol\":12505:12507  to */\n      dup5\n        /* \"@openzeppelin/contracts@4.6.0/token/ERC721/ERC721.sol\":12505:12518  to.isContract */\n      0xffffffffffffffffffffffffffffffffffffffff\n      and\n      tag_262\n        /* \"@openzeppelin/contracts@4.6.0/token/ERC721/ERC721.sol\":12505:12520  to.isContract() */\n      jump\t// in\n    tag_261:\n        /* \"@openzeppelin/contracts@4.6.0/token/ERC721/ERC721.sol\":12501:13107  if (to.isContract()) {... */\n      iszero\n      tag_263\n      jumpi\n        /* \"@openzeppelin/contracts@4.6.0/token/ERC721/ERC721.sol\":12556:12558  to */\n      dup4\n        /* \"@openzeppelin/contracts@4.6.0/token/ERC721/ERC721.sol\":12540:12576  IERC721Receiver(to).onERC721Received */\n      0xffffffffffffffffffffffffffffffffffffffff\n      and\n      0x150b7a02\n        /* \"@openzeppelin/contracts@4.6.0/token/ERC721/ERC721.sol\":12577:12589  _msgSender() */\n      tag_264\n        /* \"@openzeppelin/contracts@4.6.0/token/ERC721/ERC721.sol\":12577:12587  _msgSender */\n      tag_111\n        /* \"@openzeppelin/contracts@4.6.0/token/ERC721/ERC721.sol\":12577:12589  _msgSender() */\n      jump\t// in\n    tag_264:\n        /* \"@openzeppelin/contracts@4.6.0/token/ERC721/ERC721.sol\":12591:12595  from */\n      dup8\n        /* \"@openzeppelin/contracts@4.6.0/token/ERC721/ERC721.sol\":12597:12604  tokenId */\n      dup7\n        /* \"@openzeppelin/contracts@4.6.0/token/ERC721/ERC721.sol\":12606:12611  _data */\n      dup7\n        /* \"@openzeppelin/contracts@4.6.0/token/ERC721/ERC721.sol\":12540:12612  IERC721Receiver(to).onERC721Received(_msgSender(), from, tokenId, _data) */\n      mload(0x40)\n      dup6\n      0xffffffff\n      and\n      0xe0\n      shl\n      dup2\n      mstore\n      0x04\n      add\n      tag_265\n      swap5\n      swap4\n      swap3\n      swap2\n      swap1\n      tag_266\n      jump\t// in\n    tag_265:\n      0x20\n      mload(0x40)\n      dup1\n      dup4\n      sub\n      dup2\n      0x00\n      dup8\n      gas\n      call\n      swap3\n      pop\n      pop\n      pop\n      dup1\n      iszero\n      tag_267\n      jumpi\n      pop\n      mload(0x40)\n      returndatasize\n      not(0x1f)\n      0x1f\n      dup3\n      add\n      and\n      dup3\n      add\n      dup1\n      0x40\n      mstore\n      pop\n      dup2\n      add\n      swap1\n      tag_268\n      swap2\n      swap1\n      tag_269\n      jump\t// in\n    tag_268:\n      0x01\n    tag_267:\n        /* \"@openzeppelin/contracts@4.6.0/token/ERC721/ERC721.sol\":12536:13055  try IERC721Receiver(to).onERC721Received(_msgSender(), from, tokenId, _data) returns (bytes4 retval) {... */\n      tag_270\n      jumpi\n      returndatasize\n      dup1\n      0x00\n      dup2\n      eq\n      tag_275\n      jumpi\n      mload(0x40)\n      swap2\n      pop\n      and(add(returndatasize, 0x3f), not(0x1f))\n      dup3\n      add\n      0x40\n      mstore\n      returndatasize\n      dup3\n      mstore\n      returndatasize\n      0x00\n      0x20\n      dup5\n      add\n      returndatacopy\n      jump(tag_274)\n    tag_275:\n      0x60\n      swap2\n      pop\n    tag_274:\n      pop\n        /* \"@openzeppelin/contracts@4.6.0/token/ERC721/ERC721.sol\":12796:12797  0 */\n      0x00\n        /* \"@openzeppelin/contracts@4.6.0/token/ERC721/ERC721.sol\":12779:12785  reason */\n      dup2\n        /* \"@openzeppelin/contracts@4.6.0/token/ERC721/ERC721.sol\":12779:12792  reason.length */\n      mload\n        /* \"@openzeppelin/contracts@4.6.0/token/ERC721/ERC721.sol\":12779:12797  reason.length == 0 */\n      sub\n        /* \"@openzeppelin/contracts@4.6.0/token/ERC721/ERC721.sol\":12775:13041  if (reason.length == 0) {... */\n      tag_276\n      jumpi\n        /* \"@openzeppelin/contracts@4.6.0/token/ERC721/ERC721.sol\":12821:12881  revert(\"ERC721: transfer to non ERC721Receiver implementer\") */\n      mload(0x40)\n      0x08c379a000000000000000000000000000000000000000000000000000000000\n      dup2\n      mstore\n      0x04\n      add\n      tag_277\n      swap1\n      tag_234\n      jump\t// in\n    tag_277:\n      mload(0x40)\n      dup1\n      swap2\n      sub\n      swap1\n      revert\n        /* \"@openzeppelin/contracts@4.6.0/token/ERC721/ERC721.sol\":12775:13041  if (reason.length == 0) {... */\n    tag_276:\n        /* \"@openzeppelin/contracts@4.6.0/token/ERC721/ERC721.sol\":12993:12999  reason */\n      dup1\n        /* \"@openzeppelin/contracts@4.6.0/token/ERC721/ERC721.sol\":12987:13000  mload(reason) */\n      mload\n        /* \"@openzeppelin/contracts@4.6.0/token/ERC721/ERC721.sol\":12978:12984  reason */\n      dup2\n        /* \"@openzeppelin/contracts@4.6.0/token/ERC721/ERC721.sol\":12974:12976  32 */\n      0x20\n        /* \"@openzeppelin/contracts@4.6.0/token/ERC721/ERC721.sol\":12970:12985  add(32, reason) */\n      add\n        /* \"@openzeppelin/contracts@4.6.0/token/ERC721/ERC721.sol\":12963:13001  revert(add(32, reason), mload(reason)) */\n      revert\n        /* \"@openzeppelin/contracts@4.6.0/token/ERC721/ERC721.sol\":12536:13055  try IERC721Receiver(to).onERC721Received(_msgSender(), from, tokenId, _data) returns (bytes4 retval) {... */\n    tag_270:\n        /* \"@openzeppelin/contracts@4.6.0/token/ERC721/ERC721.sol\":12672:12713  IERC721Receiver.onERC721Received.selector */\n      shl(0xe0, 0x150b7a02)\n        /* \"@openzeppelin/contracts@4.6.0/token/ERC721/ERC721.sol\":12662:12713  retval == IERC721Receiver.onERC721Received.selector */\n      not(0xffffffffffffffffffffffffffffffffffffffffffffffffffffffff)\n      and\n        /* \"@openzeppelin/contracts@4.6.0/token/ERC721/ERC721.sol\":12662:12668  retval */\n      dup2\n        /* \"@openzeppelin/contracts@4.6.0/token/ERC721/ERC721.sol\":12662:12713  retval == IERC721Receiver.onERC721Received.selector */\n      not(0xffffffffffffffffffffffffffffffffffffffffffffffffffffffff)\n      and\n      eq\n        /* \"@openzeppelin/contracts@4.6.0/token/ERC721/ERC721.sol\":12655:12713  return retval == IERC721Receiver.onERC721Received.selector */\n      swap2\n      pop\n      pop\n      jump(tag_260)\n        /* \"@openzeppelin/contracts@4.6.0/token/ERC721/ERC721.sol\":12501:13107  if (to.isContract()) {... */\n    tag_263:\n        /* \"@openzeppelin/contracts@4.6.0/token/ERC721/ERC721.sol\":13092:13096  true */\n      0x01\n        /* \"@openzeppelin/contracts@4.6.0/token/ERC721/ERC721.sol\":13085:13096  return true */\n      swap1\n      pop\n        /* \"@openzeppelin/contracts@4.6.0/token/ERC721/ERC721.sol\":12335:13113  function _checkOnERC721Received(... */\n    tag_260:\n      swap5\n      swap4\n      pop\n      pop\n      pop\n      pop\n      jump\t// out\n        /* \"@openzeppelin/contracts@4.6.0/utils/Address.sol\":1175:1495  function isContract(address account) internal view returns (bool) {... */\n    tag_262:\n        /* \"@openzeppelin/contracts@4.6.0/utils/Address.sol\":1235:1239  bool */\n      0x00\n        /* \"@openzeppelin/contracts@4.6.0/utils/Address.sol\":1487:1488  0 */\n      dup1\n        /* \"@openzeppelin/contracts@4.6.0/utils/Address.sol\":1465:1472  account */\n      dup3\n        /* \"@openzeppelin/contracts@4.6.0/utils/Address.sol\":1465:1484  account.code.length */\n      0xffffffffffffffffffffffffffffffffffffffff\n      and\n      extcodesize\n        /* \"@openzeppelin/contracts@4.6.0/utils/Address.sol\":1465:1488  account.code.length > 0 */\n      gt\n        /* \"@openzeppelin/contracts@4.6.0/utils/Address.sol\":1458:1488  return account.code.length > 0 */\n      swap1\n      pop\n        /* \"@openzeppelin/contracts@4.6.0/utils/Address.sol\":1175:1495  function isContract(address account) internal view returns (bool) {... */\n      swap2\n      swap1\n      pop\n      jump\t// out\n        /* \"#utility.yul\":7:82   */\n    tag_282:\n        /* \"#utility.yul\":40:46   */\n      0x00\n        /* \"#utility.yul\":73:75   */\n      0x40\n        /* \"#utility.yul\":67:76   */\n      mload\n        /* \"#utility.yul\":57:76   */\n      swap1\n      pop\n        /* \"#utility.yul\":7:82   */\n      swap1\n      jump\t// out\n        /* \"#utility.yul\":88:205   */\n    tag_283:\n        /* \"#utility.yul\":197:198   */\n      0x00\n        /* \"#utility.yul\":194:195   */\n      dup1\n        /* \"#utility.yul\":187:199   */\n      revert\n        /* \"#utility.yul\":211:328   */\n    tag_284:\n        /* \"#utility.yul\":320:321   */\n      0x00\n        /* \"#utility.yul\":317:318   */\n      dup1\n        /* \"#utility.yul\":310:322   */\n      revert\n        /* \"#utility.yul\":334:483   */\n    tag_285:\n        /* \"#utility.yul\":370:377   */\n      0x00\n        /* \"#utility.yul\":410:476   */\n      0xffffffff00000000000000000000000000000000000000000000000000000000\n        /* \"#utility.yul\":403:408   */\n      dup3\n        /* \"#utility.yul\":399:477   */\n      and\n        /* \"#utility.yul\":388:477   */\n      swap1\n      pop\n        /* \"#utility.yul\":334:483   */\n      swap2\n      swap1\n      pop\n      jump\t// out\n        /* \"#utility.yul\":489:609   */\n    tag_286:\n        /* \"#utility.yul\":561:584   */\n      tag_359\n        /* \"#utility.yul\":578:583   */\n      dup2\n        /* \"#utility.yul\":561:584   */\n      tag_285\n      jump\t// in\n    tag_359:\n        /* \"#utility.yul\":554:559   */\n      dup2\n        /* \"#utility.yul\":551:585   */\n      eq\n        /* \"#utility.yul\":541:603   */\n      tag_360\n      jumpi\n        /* \"#utility.yul\":599:600   */\n      0x00\n        /* \"#utility.yul\":596:597   */\n      dup1\n        /* \"#utility.yul\":589:601   */\n      revert\n        /* \"#utility.yul\":541:603   */\n    tag_360:\n        /* \"#utility.yul\":489:609   */\n      pop\n      jump\t// out\n        /* \"#utility.yul\":615:752   */\n    tag_287:\n        /* \"#utility.yul\":660:665   */\n      0x00\n        /* \"#utility.yul\":698:704   */\n      dup2\n        /* \"#utility.yul\":685:705   */\n      calldataload\n        /* \"#utility.yul\":676:705   */\n      swap1\n      pop\n        /* \"#utility.yul\":714:746   */\n      tag_362\n        /* \"#utility.yul\":740:745   */\n      dup2\n        /* \"#utility.yul\":714:746   */\n      tag_286\n      jump\t// in\n    tag_362:\n        /* \"#utility.yul\":615:752   */\n      swap3\n      swap2\n      pop\n      pop\n      jump\t// out\n        /* \"#utility.yul\":758:1085   */\n    tag_24:\n        /* \"#utility.yul\":816:822   */\n      0x00\n        /* \"#utility.yul\":865:867   */\n      0x20\n        /* \"#utility.yul\":853:862   */\n      dup3\n        /* \"#utility.yul\":844:851   */\n      dup5\n        /* \"#utility.yul\":840:863   */\n      sub\n        /* \"#utility.yul\":836:868   */\n      slt\n        /* \"#utility.yul\":833:952   */\n      iszero\n      tag_364\n      jumpi\n        /* \"#utility.yul\":871:950   */\n      tag_365\n      tag_283\n      jump\t// in\n    tag_365:\n        /* \"#utility.yul\":833:952   */\n    tag_364:\n        /* \"#utility.yul\":991:992   */\n      0x00\n        /* \"#utility.yul\":1016:1068   */\n      tag_366\n        /* \"#utility.yul\":1060:1067   */\n      dup5\n        /* \"#utility.yul\":1051:1057   */\n      dup3\n        /* \"#utility.yul\":1040:1049   */\n      dup6\n        /* \"#utility.yul\":1036:1058   */\n      add\n        /* \"#utility.yul\":1016:1068   */\n      tag_287\n      jump\t// in\n    tag_366:\n        /* \"#utility.yul\":1006:1068   */\n      swap2\n      pop\n        /* \"#utility.yul\":962:1078   */\n      pop\n        /* \"#utility.yul\":758:1085   */\n      swap3\n      swap2\n      pop\n      pop\n      jump\t// out\n        /* \"#utility.yul\":1091:1181   */\n    tag_288:\n        /* \"#utility.yul\":1125:1132   */\n      0x00\n        /* \"#utility.yul\":1168:1173   */\n      dup2\n        /* \"#utility.yul\":1161:1174   */\n      iszero\n        /* \"#utility.yul\":1154:1175   */\n      iszero\n        /* \"#utility.yul\":1143:1175   */\n      swap1\n      pop\n        /* \"#utility.yul\":1091:1181   */\n      swap2\n      swap1\n      pop\n      jump\t// out\n        /* \"#utility.yul\":1187:1296   */\n    tag_289:\n        /* \"#utility.yul\":1268:1289   */\n      tag_369\n        /* \"#utility.yul\":1283:1288   */\n      dup2\n        /* \"#utility.yul\":1268:1289   */\n      tag_288\n      jump\t// in\n    tag_369:\n        /* \"#utility.yul\":1263:1266   */\n      dup3\n        /* \"#utility.yul\":1256:1290   */\n      mstore\n        /* \"#utility.yul\":1187:1296   */\n      pop\n      pop\n      jump\t// out\n        /* \"#utility.yul\":1302:1512   */\n    tag_27:\n        /* \"#utility.yul\":1389:1393   */\n      0x00\n        /* \"#utility.yul\":1427:1429   */\n      0x20\n        /* \"#utility.yul\":1416:1425   */\n      dup3\n        /* \"#utility.yul\":1412:1430   */\n      add\n        /* \"#utility.yul\":1404:1430   */\n      swap1\n      pop\n        /* \"#utility.yul\":1440:1505   */\n      tag_371\n        /* \"#utility.yul\":1502:1503   */\n      0x00\n        /* \"#utility.yul\":1491:1500   */\n      dup4\n        /* \"#utility.yul\":1487:1504   */\n      add\n        /* \"#utility.yul\":1478:1484   */\n      dup5\n        /* \"#utility.yul\":1440:1505   */\n      tag_289\n      jump\t// in\n    tag_371:\n        /* \"#utility.yul\":1302:1512   */\n      swap3\n      swap2\n      pop\n      pop\n      jump\t// out\n        /* \"#utility.yul\":1518:1617   */\n    tag_290:\n        /* \"#utility.yul\":1570:1576   */\n      0x00\n        /* \"#utility.yul\":1604:1609   */\n      dup2\n        /* \"#utility.yul\":1598:1610   */\n      mload\n        /* \"#utility.yul\":1588:1610   */\n      swap1\n      pop\n        /* \"#utility.yul\":1518:1617   */\n      swap2\n      swap1\n      pop\n      jump\t// out\n        /* \"#utility.yul\":1623:1792   */\n    tag_291:\n        /* \"#utility.yul\":1707:1718   */\n      0x00\n        /* \"#utility.yul\":1741:1747   */\n      dup3\n        /* \"#utility.yul\":1736:1739   */\n      dup3\n        /* \"#utility.yul\":1729:1748   */\n      mstore\n        /* \"#utility.yul\":1781:1785   */\n      0x20\n        /* \"#utility.yul\":1776:1779   */\n      dup3\n        /* \"#utility.yul\":1772:1786   */\n      add\n        /* \"#utility.yul\":1757:1786   */\n      swap1\n      pop\n        /* \"#utility.yul\":1623:1792   */\n      swap3\n      swap2\n      pop\n      pop\n      jump\t// out\n        /* \"#utility.yul\":1798:2105   */\n    tag_292:\n        /* \"#utility.yul\":1866:1867   */\n      0x00\n        /* \"#utility.yul\":1876:1989   */\n    tag_375:\n        /* \"#utility.yul\":1890:1896   */\n      dup4\n        /* \"#utility.yul\":1887:1888   */\n      dup2\n        /* \"#utility.yul\":1884:1897   */\n      lt\n        /* \"#utility.yul\":1876:1989   */\n      iszero\n      tag_377\n      jumpi\n        /* \"#utility.yul\":1975:1976   */\n      dup1\n        /* \"#utility.yul\":1970:1973   */\n      dup3\n        /* \"#utility.yul\":1966:1977   */\n      add\n        /* \"#utility.yul\":1960:1978   */\n      mload\n        /* \"#utility.yul\":1956:1957   */\n      dup2\n        /* \"#utility.yul\":1951:1954   */\n      dup5\n        /* \"#utility.yul\":1947:1958   */\n      add\n        /* \"#utility.yul\":1940:1979   */\n      mstore\n        /* \"#utility.yul\":1912:1914   */\n      0x20\n        /* \"#utility.yul\":1909:1910   */\n      dup2\n        /* \"#utility.yul\":1905:1915   */\n      add\n        /* \"#utility.yul\":1900:1915   */\n      swap1\n      pop\n        /* \"#utility.yul\":1876:1989   */\n      jump(tag_375)\n    tag_377:\n        /* \"#utility.yul\":2007:2013   */\n      dup4\n        /* \"#utility.yul\":2004:2005   */\n      dup2\n        /* \"#utility.yul\":2001:2014   */\n      gt\n        /* \"#utility.yul\":1998:2099   */\n      iszero\n      tag_378\n      jumpi\n        /* \"#utility.yul\":2087:2088   */\n      0x00\n        /* \"#utility.yul\":2078:2084   */\n      dup5\n        /* \"#utility.yul\":2073:2076   */\n      dup5\n        /* \"#utility.yul\":2069:2085   */\n      add\n        /* \"#utility.yul\":2062:2089   */\n      mstore\n        /* \"#utility.yul\":1998:2099   */\n    tag_378:\n        /* \"#utility.yul\":1847:2105   */\n      pop\n        /* \"#utility.yul\":1798:2105   */\n      pop\n      pop\n      pop\n      jump\t// out\n        /* \"#utility.yul\":2111:2213   */\n    tag_293:\n        /* \"#utility.yul\":2152:2158   */\n      0x00\n        /* \"#utility.yul\":2203:2205   */\n      0x1f\n        /* \"#utility.yul\":2199:2206   */\n      not\n        /* \"#utility.yul\":2194:2196   */\n      0x1f\n        /* \"#utility.yul\":2187:2192   */\n      dup4\n        /* \"#utility.yul\":2183:2197   */\n      add\n        /* \"#utility.yul\":2179:2207   */\n      and\n        /* \"#utility.yul\":2169:2207   */\n      swap1\n      pop\n        /* \"#utility.yul\":2111:2213   */\n      swap2\n      swap1\n      pop\n      jump\t// out\n        /* \"#utility.yul\":2219:2583   */\n    tag_294:\n        /* \"#utility.yul\":2307:2310   */\n      0x00\n        /* \"#utility.yul\":2335:2374   */\n      tag_381\n        /* \"#utility.yul\":2368:2373   */\n      dup3\n        /* \"#utility.yul\":2335:2374   */\n      tag_290\n      jump\t// in\n    tag_381:\n        /* \"#utility.yul\":2390:2461   */\n      tag_382\n        /* \"#utility.yul\":2454:2460   */\n      dup2\n        /* \"#utility.yul\":2449:2452   */\n      dup6\n        /* \"#utility.yul\":2390:2461   */\n      tag_291\n      jump\t// in\n    tag_382:\n        /* \"#utility.yul\":2383:2461   */\n      swap4\n      pop\n        /* \"#utility.yul\":2470:2522   */\n      tag_383\n        /* \"#utility.yul\":2515:2521   */\n      dup2\n        /* \"#utility.yul\":2510:2513   */\n      dup6\n        /* \"#utility.yul\":2503:2507   */\n      0x20\n        /* \"#utility.yul\":2496:2501   */\n      dup7\n        /* \"#utility.yul\":2492:2508   */\n      add\n        /* \"#utility.yul\":2470:2522   */\n      tag_292\n      jump\t// in\n    tag_383:\n        /* \"#utility.yul\":2547:2576   */\n      tag_384\n        /* \"#utility.yul\":2569:2575   */\n      dup2\n        /* \"#utility.yul\":2547:2576   */\n      tag_293\n      jump\t// in\n    tag_384:\n        /* \"#utility.yul\":2542:2545   */\n      dup5\n        /* \"#utility.yul\":2538:2577   */\n      add\n        /* \"#utility.yul\":2531:2577   */\n      swap2\n      pop\n        /* \"#utility.yul\":2311:2583   */\n      pop\n        /* \"#utility.yul\":2219:2583   */\n      swap3\n      swap2\n      pop\n      pop\n      jump\t// out\n        /* \"#utility.yul\":2589:2902   */\n    tag_31:\n        /* \"#utility.yul\":2702:2706   */\n      0x00\n        /* \"#utility.yul\":2740:2742   */\n      0x20\n        /* \"#utility.yul\":2729:2738   */\n      dup3\n        /* \"#utility.yul\":2725:2743   */\n      add\n        /* \"#utility.yul\":2717:2743   */\n      swap1\n      pop\n        /* \"#utility.yul\":2789:2798   */\n      dup2\n        /* \"#utility.yul\":2783:2787   */\n      dup2\n        /* \"#utility.yul\":2779:2799   */\n      sub\n        /* \"#utility.yul\":2775:2776   */\n      0x00\n        /* \"#utility.yul\":2764:2773   */\n      dup4\n        /* \"#utility.yul\":2760:2777   */\n      add\n        /* \"#utility.yul\":2753:2800   */\n      mstore\n        /* \"#utility.yul\":2817:2895   */\n      tag_386\n        /* \"#utility.yul\":2890:2894   */\n      dup2\n        /* \"#utility.yul\":2881:2887   */\n      dup5\n        /* \"#utility.yul\":2817:2895   */\n      tag_294\n      jump\t// in\n    tag_386:\n        /* \"#utility.yul\":2809:2895   */\n      swap1\n      pop\n        /* \"#utility.yul\":2589:2902   */\n      swap3\n      swap2\n      pop\n      pop\n      jump\t// out\n        /* \"#utility.yul\":2908:2985   */\n    tag_295:\n        /* \"#utility.yul\":2945:2952   */\n      0x00\n        /* \"#utility.yul\":2974:2979   */\n      dup2\n        /* \"#utility.yul\":2963:2979   */\n      swap1\n      pop\n        /* \"#utility.yul\":2908:2985   */\n      swap2\n      swap1\n      pop\n      jump\t// out\n        /* \"#utility.yul\":2991:3113   */\n    tag_296:\n        /* \"#utility.yul\":3064:3088   */\n      tag_389\n        /* \"#utility.yul\":3082:3087   */\n      dup2\n        /* \"#utility.yul\":3064:3088   */\n      tag_295\n      jump\t// in\n    tag_389:\n        /* \"#utility.yul\":3057:3062   */\n      dup2\n        /* \"#utility.yul\":3054:3089   */\n      eq\n        /* \"#utility.yul\":3044:3107   */\n      tag_390\n      jumpi\n        /* \"#utility.yul\":3103:3104   */\n      0x00\n        /* \"#utility.yul\":3100:3101   */\n      dup1\n        /* \"#utility.yul\":3093:3105   */\n      revert\n        /* \"#utility.yul\":3044:3107   */\n    tag_390:\n        /* \"#utility.yul\":2991:3113   */\n      pop\n      jump\t// out\n        /* \"#utility.yul\":3119:3258   */\n    tag_297:\n        /* \"#utility.yul\":3165:3170   */\n      0x00\n        /* \"#utility.yul\":3203:3209   */\n      dup2\n        /* \"#utility.yul\":3190:3210   */\n      calldataload\n        /* \"#utility.yul\":3181:3210   */\n      swap1\n      pop\n        /* \"#utility.yul\":3219:3252   */\n      tag_392\n        /* \"#utility.yul\":3246:3251   */\n      dup2\n        /* \"#utility.yul\":3219:3252   */\n      tag_296\n      jump\t// in\n    tag_392:\n        /* \"#utility.yul\":3119:3258   */\n      swap3\n      swap2\n      pop\n      pop\n      jump\t// out\n        /* \"#utility.yul\":3264:3593   */\n    tag_34:\n        /* \"#utility.yul\":3323:3329   */\n      0x00\n        /* \"#utility.yul\":3372:3374   */\n      0x20\n        /* \"#utility.yul\":3360:3369   */\n      dup3\n        /* \"#utility.yul\":3351:3358   */\n      dup5\n        /* \"#utility.yul\":3347:3370   */\n      sub\n        /* \"#utility.yul\":3343:3375   */\n      slt\n        /* \"#utility.yul\":3340:3459   */\n      iszero\n      tag_394\n      jumpi\n        /* \"#utility.yul\":3378:3457   */\n      tag_395\n      tag_283\n      jump\t// in\n    tag_395:\n        /* \"#utility.yul\":3340:3459   */\n    tag_394:\n        /* \"#utility.yul\":3498:3499   */\n      0x00\n        /* \"#utility.yul\":3523:3576   */\n      tag_396\n        /* \"#utility.yul\":3568:3575   */\n      dup5\n        /* \"#utility.yul\":3559:3565   */\n      dup3\n        /* \"#utility.yul\":3548:3557   */\n      dup6\n        /* \"#utility.yul\":3544:3566   */\n      add\n        /* \"#utility.yul\":3523:3576   */\n      tag_297\n      jump\t// in\n    tag_396:\n        /* \"#utility.yul\":3513:3576   */\n      swap2\n      pop\n        /* \"#utility.yul\":3469:3586   */\n      pop\n        /* \"#utility.yul\":3264:3593   */\n      swap3\n      swap2\n      pop\n      pop\n      jump\t// out\n        /* \"#utility.yul\":3599:3725   */\n    tag_298:\n        /* \"#utility.yul\":3636:3643   */\n      0x00\n        /* \"#utility.yul\":3676:3718   */\n      0xffffffffffffffffffffffffffffffffffffffff\n        /* \"#utility.yul\":3669:3674   */\n      dup3\n        /* \"#utility.yul\":3665:3719   */\n      and\n        /* \"#utility.yul\":3654:3719   */\n      swap1\n      pop\n        /* \"#utility.yul\":3599:3725   */\n      swap2\n      swap1\n      pop\n      jump\t// out\n        /* \"#utility.yul\":3731:3827   */\n    tag_299:\n        /* \"#utility.yul\":3768:3775   */\n      0x00\n        /* \"#utility.yul\":3797:3821   */\n      tag_399\n        /* \"#utility.yul\":3815:3820   */\n      dup3\n        /* \"#utility.yul\":3797:3821   */\n      tag_298\n      jump\t// in\n    tag_399:\n        /* \"#utility.yul\":3786:3821   */\n      swap1\n      pop\n        /* \"#utility.yul\":3731:3827   */\n      swap2\n      swap1\n      pop\n      jump\t// out\n        /* \"#utility.yul\":3833:3951   */\n    tag_300:\n        /* \"#utility.yul\":3920:3944   */\n      tag_401\n        /* \"#utility.yul\":3938:3943   */\n      dup2\n        /* \"#utility.yul\":3920:3944   */\n      tag_299\n      jump\t// in\n    tag_401:\n        /* \"#utility.yul\":3915:3918   */\n      dup3\n        /* \"#utility.yul\":3908:3945   */\n      mstore\n        /* \"#utility.yul\":3833:3951   */\n      pop\n      pop\n      jump\t// out\n        /* \"#utility.yul\":3957:4179   */\n    tag_37:\n        /* \"#utility.yul\":4050:4054   */\n      0x00\n        /* \"#utility.yul\":4088:4090   */\n      0x20\n        /* \"#utility.yul\":4077:4086   */\n      dup3\n        /* \"#utility.yul\":4073:4091   */\n      add\n        /* \"#utility.yul\":4065:4091   */\n      swap1\n      pop\n        /* \"#utility.yul\":4101:4172   */\n      tag_403\n        /* \"#utility.yul\":4169:4170   */\n      0x00\n        /* \"#utility.yul\":4158:4167   */\n      dup4\n        /* \"#utility.yul\":4154:4171   */\n      add\n        /* \"#utility.yul\":4145:4151   */\n      dup5\n        /* \"#utility.yul\":4101:4172   */\n      tag_300\n      jump\t// in\n    tag_403:\n        /* \"#utility.yul\":3957:4179   */\n      swap3\n      swap2\n      pop\n      pop\n      jump\t// out\n        /* \"#utility.yul\":4185:4307   */\n    tag_301:\n        /* \"#utility.yul\":4258:4282   */\n      tag_405\n        /* \"#utility.yul\":4276:4281   */\n      dup2\n        /* \"#utility.yul\":4258:4282   */\n      tag_299\n      jump\t// in\n    tag_405:\n        /* \"#utility.yul\":4251:4256   */\n      dup2\n        /* \"#utility.yul\":4248:4283   */\n      eq\n        /* \"#utility.yul\":4238:4301   */\n      tag_406\n      jumpi\n        /* \"#utility.yul\":4297:4298   */\n      0x00\n        /* \"#utility.yul\":4294:4295   */\n      dup1\n        /* \"#utility.yul\":4287:4299   */\n      revert\n        /* \"#utility.yul\":4238:4301   */\n    tag_406:\n        /* \"#utility.yul\":4185:4307   */\n      pop\n      jump\t// out\n        /* \"#utility.yul\":4313:4452   */\n    tag_302:\n        /* \"#utility.yul\":4359:4364   */\n      0x00\n        /* \"#utility.yul\":4397:4403   */\n      dup2\n        /* \"#utility.yul\":4384:4404   */\n      calldataload\n        /* \"#utility.yul\":4375:4404   */\n      swap1\n      pop\n        /* \"#utility.yul\":4413:4446   */\n      tag_408\n        /* \"#utility.yul\":4440:4445   */\n      dup2\n        /* \"#utility.yul\":4413:4446   */\n      tag_301\n      jump\t// in\n    tag_408:\n        /* \"#utility.yul\":4313:4452   */\n      swap3\n      swap2\n      pop\n      pop\n      jump\t// out\n        /* \"#utility.yul\":4458:4932   */\n    tag_40:\n        /* \"#utility.yul\":4526:4532   */\n      0x00\n        /* \"#utility.yul\":4534:4540   */\n      dup1\n        /* \"#utility.yul\":4583:4585   */\n      0x40\n        /* \"#utility.yul\":4571:4580   */\n      dup4\n        /* \"#utility.yul\":4562:4569   */\n      dup6\n        /* \"#utility.yul\":4558:4581   */\n      sub\n        /* \"#utility.yul\":4554:4586   */\n      slt\n        /* \"#utility.yul\":4551:4670   */\n      iszero\n      tag_410\n      jumpi\n        /* \"#utility.yul\":4589:4668   */\n      tag_411\n      tag_283\n      jump\t// in\n    tag_411:\n        /* \"#utility.yul\":4551:4670   */\n    tag_410:\n        /* \"#utility.yul\":4709:4710   */\n      0x00\n        /* \"#utility.yul\":4734:4787   */\n      tag_412\n        /* \"#utility.yul\":4779:4786   */\n      dup6\n        /* \"#utility.yul\":4770:4776   */\n      dup3\n        /* \"#utility.yul\":4759:4768   */\n      dup7\n        /* \"#utility.yul\":4755:4777   */\n      add\n        /* \"#utility.yul\":4734:4787   */\n      tag_302\n      jump\t// in\n    tag_412:\n        /* \"#utility.yul\":4724:4787   */\n      swap3\n      pop\n        /* \"#utility.yul\":4680:4797   */\n      pop\n        /* \"#utility.yul\":4836:4838   */\n      0x20\n        /* \"#utility.yul\":4862:4915   */\n      tag_413\n        /* \"#utility.yul\":4907:4914   */\n      dup6\n        /* \"#utility.yul\":4898:4904   */\n      dup3\n        /* \"#utility.yul\":4887:4896   */\n      dup7\n        /* \"#utility.yul\":4883:4905   */\n      add\n        /* \"#utility.yul\":4862:4915   */\n      tag_297\n      jump\t// in\n    tag_413:\n        /* \"#utility.yul\":4852:4915   */\n      swap2\n      pop\n        /* \"#utility.yul\":4807:4925   */\n      pop\n        /* \"#utility.yul\":4458:4932   */\n      swap3\n      pop\n      swap3\n      swap1\n      pop\n      jump\t// out\n        /* \"#utility.yul\":4938:5557   */\n    tag_47:\n        /* \"#utility.yul\":5015:5021   */\n      0x00\n        /* \"#utility.yul\":5023:5029   */\n      dup1\n        /* \"#utility.yul\":5031:5037   */\n      0x00\n        /* \"#utility.yul\":5080:5082   */\n      0x60\n        /* \"#utility.yul\":5068:5077   */\n      dup5\n        /* \"#utility.yul\":5059:5066   */\n      dup7\n        /* \"#utility.yul\":5055:5078   */\n      sub\n        /* \"#utility.yul\":5051:5083   */\n      slt\n        /* \"#utility.yul\":5048:5167   */\n      iszero\n      tag_415\n      jumpi\n        /* \"#utility.yul\":5086:5165   */\n      tag_416\n      tag_283\n      jump\t// in\n    tag_416:\n        /* \"#utility.yul\":5048:5167   */\n    tag_415:\n        /* \"#utility.yul\":5206:5207   */\n      0x00\n        /* \"#utility.yul\":5231:5284   */\n      tag_417\n        /* \"#utility.yul\":5276:5283   */\n      dup7\n        /* \"#utility.yul\":5267:5273   */\n      dup3\n        /* \"#utility.yul\":5256:5265   */\n      dup8\n        /* \"#utility.yul\":5252:5274   */\n      add\n        /* \"#utility.yul\":5231:5284   */\n      tag_302\n      jump\t// in\n    tag_417:\n        /* \"#utility.yul\":5221:5284   */\n      swap4\n      pop\n        /* \"#utility.yul\":5177:5294   */\n      pop\n        /* \"#utility.yul\":5333:5335   */\n      0x20\n        /* \"#utility.yul\":5359:5412   */\n      tag_418\n        /* \"#utility.yul\":5404:5411   */\n      dup7\n        /* \"#utility.yul\":5395:5401   */\n      dup3\n        /* \"#utility.yul\":5384:5393   */\n      dup8\n        /* \"#utility.yul\":5380:5402   */\n      add\n        /* \"#utility.yul\":5359:5412   */\n      tag_302\n      jump\t// in\n    tag_418:\n        /* \"#utility.yul\":5349:5412   */\n      swap3\n      pop\n        /* \"#utility.yul\":5304:5422   */\n      pop\n        /* \"#utility.yul\":5461:5463   */\n      0x40\n        /* \"#utility.yul\":5487:5540   */\n      tag_419\n        /* \"#utility.yul\":5532:5539   */\n      dup7\n        /* \"#utility.yul\":5523:5529   */\n      dup3\n        /* \"#utility.yul\":5512:5521   */\n      dup8\n        /* \"#utility.yul\":5508:5530   */\n      add\n        /* \"#utility.yul\":5487:5540   */\n      tag_297\n      jump\t// in\n    tag_419:\n        /* \"#utility.yul\":5477:5540   */\n      swap2\n      pop\n        /* \"#utility.yul\":5432:5550   */\n      pop\n        /* \"#utility.yul\":4938:5557   */\n      swap3\n      pop\n      swap3\n      pop\n      swap3\n      jump\t// out\n        /* \"#utility.yul\":5563:5892   */\n    tag_58:\n        /* \"#utility.yul\":5622:5628   */\n      0x00\n        /* \"#utility.yul\":5671:5673   */\n      0x20\n        /* \"#utility.yul\":5659:5668   */\n      dup3\n        /* \"#utility.yul\":5650:5657   */\n      dup5\n        /* \"#utility.yul\":5646:5669   */\n      sub\n        /* \"#utility.yul\":5642:5674   */\n      slt\n        /* \"#utility.yul\":5639:5758   */\n      iszero\n      tag_421\n      jumpi\n        /* \"#utility.yul\":5677:5756   */\n      tag_422\n      tag_283\n      jump\t// in\n    tag_422:\n        /* \"#utility.yul\":5639:5758   */\n    tag_421:\n        /* \"#utility.yul\":5797:5798   */\n      0x00\n        /* \"#utility.yul\":5822:5875   */\n      tag_423\n        /* \"#utility.yul\":5867:5874   */\n      dup5\n        /* \"#utility.yul\":5858:5864   */\n      dup3\n        /* \"#utility.yul\":5847:5856   */\n      dup6\n        /* \"#utility.yul\":5843:5865   */\n      add\n        /* \"#utility.yul\":5822:5875   */\n      tag_302\n      jump\t// in\n    tag_423:\n        /* \"#utility.yul\":5812:5875   */\n      swap2\n      pop\n        /* \"#utility.yul\":5768:5885   */\n      pop\n        /* \"#utility.yul\":5563:5892   */\n      swap3\n      swap2\n      pop\n      pop\n      jump\t// out\n        /* \"#utility.yul\":5898:6016   */\n    tag_303:\n        /* \"#utility.yul\":5985:6009   */\n      tag_425\n        /* \"#utility.yul\":6003:6008   */\n      dup2\n        /* \"#utility.yul\":5985:6009   */\n      tag_295\n      jump\t// in\n    tag_425:\n        /* \"#utility.yul\":5980:5983   */\n      dup3\n        /* \"#utility.yul\":5973:6010   */\n      mstore\n        /* \"#utility.yul\":5898:6016   */\n      pop\n      pop\n      jump\t// out\n        /* \"#utility.yul\":6022:6244   */\n    tag_61:\n        /* \"#utility.yul\":6115:6119   */\n      0x00\n        /* \"#utility.yul\":6153:6155   */\n      0x20\n        /* \"#utility.yul\":6142:6151   */\n      dup3\n        /* \"#utility.yul\":6138:6156   */\n      add\n        /* \"#utility.yul\":6130:6156   */\n      swap1\n      pop\n        /* \"#utility.yul\":6166:6237   */\n      tag_427\n        /* \"#utility.yul\":6234:6235   */\n      0x00\n        /* \"#utility.yul\":6223:6232   */\n      dup4\n        /* \"#utility.yul\":6219:6236   */\n      add\n        /* \"#utility.yul\":6210:6216   */\n      dup5\n        /* \"#utility.yul\":6166:6237   */\n      tag_303\n      jump\t// in\n    tag_427:\n        /* \"#utility.yul\":6022:6244   */\n      swap3\n      swap2\n      pop\n      pop\n      jump\t// out\n        /* \"#utility.yul\":6250:6366   */\n    tag_304:\n        /* \"#utility.yul\":6320:6341   */\n      tag_429\n        /* \"#utility.yul\":6335:6340   */\n      dup2\n        /* \"#utility.yul\":6320:6341   */\n      tag_288\n      jump\t// in\n    tag_429:\n        /* \"#utility.yul\":6313:6318   */\n      dup2\n        /* \"#utility.yul\":6310:6342   */\n      eq\n        /* \"#utility.yul\":6300:6360   */\n      tag_430\n      jumpi\n        /* \"#utility.yul\":6356:6357   */\n      0x00\n        /* \"#utility.yul\":6353:6354   */\n      dup1\n        /* \"#utility.yul\":6346:6358   */\n      revert\n        /* \"#utility.yul\":6300:6360   */\n    tag_430:\n        /* \"#utility.yul\":6250:6366   */\n      pop\n      jump\t// out\n        /* \"#utility.yul\":6372:6505   */\n    tag_305:\n        /* \"#utility.yul\":6415:6420   */\n      0x00\n        /* \"#utility.yul\":6453:6459   */\n      dup2\n        /* \"#utility.yul\":6440:6460   */\n      calldataload\n        /* \"#utility.yul\":6431:6460   */\n      swap1\n      pop\n        /* \"#utility.yul\":6469:6499   */\n      tag_432\n        /* \"#utility.yul\":6493:6498   */\n      dup2\n        /* \"#utility.yul\":6469:6499   */\n      tag_304\n      jump\t// in\n    tag_432:\n        /* \"#utility.yul\":6372:6505   */\n      swap3\n      swap2\n      pop\n      pop\n      jump\t// out\n        /* \"#utility.yul\":6511:6979   */\n    tag_72:\n        /* \"#utility.yul\":6576:6582   */\n      0x00\n        /* \"#utility.yul\":6584:6590   */\n      dup1\n        /* \"#utility.yul\":6633:6635   */\n      0x40\n        /* \"#utility.yul\":6621:6630   */\n      dup4\n        /* \"#utility.yul\":6612:6619   */\n      dup6\n        /* \"#utility.yul\":6608:6631   */\n      sub\n        /* \"#utility.yul\":6604:6636   */\n      slt\n        /* \"#utility.yul\":6601:6720   */\n      iszero\n      tag_434\n      jumpi\n        /* \"#utility.yul\":6639:6718   */\n      tag_435\n      tag_283\n      jump\t// in\n    tag_435:\n        /* \"#utility.yul\":6601:6720   */\n    tag_434:\n        /* \"#utility.yul\":6759:6760   */\n      0x00\n        /* \"#utility.yul\":6784:6837   */\n      tag_436\n        /* \"#utility.yul\":6829:6836   */\n      dup6\n        /* \"#utility.yul\":6820:6826   */\n      dup3\n        /* \"#utility.yul\":6809:6818   */\n      dup7\n        /* \"#utility.yul\":6805:6827   */\n      add\n        /* \"#utility.yul\":6784:6837   */\n      tag_302\n      jump\t// in\n    tag_436:\n        /* \"#utility.yul\":6774:6837   */\n      swap3\n      pop\n        /* \"#utility.yul\":6730:6847   */\n      pop\n        /* \"#utility.yul\":6886:6888   */\n      0x20\n        /* \"#utility.yul\":6912:6962   */\n      tag_437\n        /* \"#utility.yul\":6954:6961   */\n      dup6\n        /* \"#utility.yul\":6945:6951   */\n      dup3\n        /* \"#utility.yul\":6934:6943   */\n      dup7\n        /* \"#utility.yul\":6930:6952   */\n      add\n        /* \"#utility.yul\":6912:6962   */\n      tag_305\n      jump\t// in\n    tag_437:\n        /* \"#utility.yul\":6902:6962   */\n      swap2\n      pop\n        /* \"#utility.yul\":6857:6972   */\n      pop\n        /* \"#utility.yul\":6511:6979   */\n      swap3\n      pop\n      swap3\n      swap1\n      pop\n      jump\t// out\n        /* \"#utility.yul\":6985:7102   */\n    tag_306:\n        /* \"#utility.yul\":7094:7095   */\n      0x00\n        /* \"#utility.yul\":7091:7092   */\n      dup1\n        /* \"#utility.yul\":7084:7096   */\n      revert\n        /* \"#utility.yul\":7108:7225   */\n    tag_307:\n        /* \"#utility.yul\":7217:7218   */\n      0x00\n        /* \"#utility.yul\":7214:7215   */\n      dup1\n        /* \"#utility.yul\":7207:7219   */\n      revert\n        /* \"#utility.yul\":7231:7411   */\n    tag_246:\n        /* \"#utility.yul\":7279:7356   */\n      0x4e487b7100000000000000000000000000000000000000000000000000000000\n        /* \"#utility.yul\":7276:7277   */\n      0x00\n        /* \"#utility.yul\":7269:7357   */\n      mstore\n        /* \"#utility.yul\":7376:7380   */\n      0x41\n        /* \"#utility.yul\":7373:7374   */\n      0x04\n        /* \"#utility.yul\":7366:7381   */\n      mstore\n        /* \"#utility.yul\":7400:7404   */\n      0x24\n        /* \"#utility.yul\":7397:7398   */\n      0x00\n        /* \"#utility.yul\":7390:7405   */\n      revert\n        /* \"#utility.yul\":7417:7698   */\n    tag_308:\n        /* \"#utility.yul\":7500:7527   */\n      tag_442\n        /* \"#utility.yul\":7522:7526   */\n      dup3\n        /* \"#utility.yul\":7500:7527   */\n      tag_293\n      jump\t// in\n    tag_442:\n        /* \"#utility.yul\":7492:7498   */\n      dup2\n        /* \"#utility.yul\":7488:7528   */\n      add\n        /* \"#utility.yul\":7630:7636   */\n      dup2\n        /* \"#utility.yul\":7618:7628   */\n      dup2\n        /* \"#utility.yul\":7615:7637   */\n      lt\n        /* \"#utility.yul\":7594:7612   */\n      0xffffffffffffffff\n        /* \"#utility.yul\":7582:7592   */\n      dup3\n        /* \"#utility.yul\":7579:7613   */\n      gt\n        /* \"#utility.yul\":7576:7638   */\n      or\n        /* \"#utility.yul\":7573:7661   */\n      iszero\n      tag_443\n      jumpi\n        /* \"#utility.yul\":7641:7659   */\n      tag_444\n      tag_246\n      jump\t// in\n    tag_444:\n        /* \"#utility.yul\":7573:7661   */\n    tag_443:\n        /* \"#utility.yul\":7681:7691   */\n      dup1\n        /* \"#utility.yul\":7677:7679   */\n      0x40\n        /* \"#utility.yul\":7670:7692   */\n      mstore\n        /* \"#utility.yul\":7460:7698   */\n      pop\n        /* \"#utility.yul\":7417:7698   */\n      pop\n      pop\n      jump\t// out\n        /* \"#utility.yul\":7704:7833   */\n    tag_309:\n        /* \"#utility.yul\":7738:7744   */\n      0x00\n        /* \"#utility.yul\":7765:7785   */\n      tag_446\n      tag_282\n      jump\t// in\n    tag_446:\n        /* \"#utility.yul\":7755:7785   */\n      swap1\n      pop\n        /* \"#utility.yul\":7794:7827   */\n      tag_447\n        /* \"#utility.yul\":7822:7826   */\n      dup3\n        /* \"#utility.yul\":7814:7820   */\n      dup3\n        /* \"#utility.yul\":7794:7827   */\n      tag_308\n      jump\t// in\n    tag_447:\n        /* \"#utility.yul\":7704:7833   */\n      swap2\n      swap1\n      pop\n      jump\t// out\n        /* \"#utility.yul\":7839:8146   */\n    tag_310:\n        /* \"#utility.yul\":7900:7904   */\n      0x00\n        /* \"#utility.yul\":7990:8008   */\n      0xffffffffffffffff\n        /* \"#utility.yul\":7982:7988   */\n      dup3\n        /* \"#utility.yul\":7979:8009   */\n      gt\n        /* \"#utility.yul\":7976:8032   */\n      iszero\n      tag_449\n      jumpi\n        /* \"#utility.yul\":8012:8030   */\n      tag_450\n      tag_246\n      jump\t// in\n    tag_450:\n        /* \"#utility.yul\":7976:8032   */\n    tag_449:\n        /* \"#utility.yul\":8050:8079   */\n      tag_451\n        /* \"#utility.yul\":8072:8078   */\n      dup3\n        /* \"#utility.yul\":8050:8079   */\n      tag_293\n      jump\t// in\n    tag_451:\n        /* \"#utility.yul\":8042:8079   */\n      swap1\n      pop\n        /* \"#utility.yul\":8134:8138   */\n      0x20\n        /* \"#utility.yul\":8128:8132   */\n      dup2\n        /* \"#utility.yul\":8124:8139   */\n      add\n        /* \"#utility.yul\":8116:8139   */\n      swap1\n      pop\n        /* \"#utility.yul\":7839:8146   */\n      swap2\n      swap1\n      pop\n      jump\t// out\n        /* \"#utility.yul\":8152:8306   */\n    tag_311:\n        /* \"#utility.yul\":8236:8242   */\n      dup3\n        /* \"#utility.yul\":8231:8234   */\n      dup2\n        /* \"#utility.yul\":8226:8229   */\n      dup4\n        /* \"#utility.yul\":8213:8243   */\n      calldatacopy\n        /* \"#utility.yul\":8298:8299   */\n      0x00\n        /* \"#utility.yul\":8289:8295   */\n      dup4\n        /* \"#utility.yul\":8284:8287   */\n      dup4\n        /* \"#utility.yul\":8280:8296   */\n      add\n        /* \"#utility.yul\":8273:8300   */\n      mstore\n        /* \"#utility.yul\":8152:8306   */\n      pop\n      pop\n      pop\n      jump\t// out\n        /* \"#utility.yul\":8312:8722   */\n    tag_312:\n        /* \"#utility.yul\":8389:8394   */\n      0x00\n        /* \"#utility.yul\":8414:8479   */\n      tag_454\n        /* \"#utility.yul\":8430:8478   */\n      tag_455\n        /* \"#utility.yul\":8471:8477   */\n      dup5\n        /* \"#utility.yul\":8430:8478   */\n      tag_310\n      jump\t// in\n    tag_455:\n        /* \"#utility.yul\":8414:8479   */\n      tag_309\n      jump\t// in\n    tag_454:\n        /* \"#utility.yul\":8405:8479   */\n      swap1\n      pop\n        /* \"#utility.yul\":8502:8508   */\n      dup3\n        /* \"#utility.yul\":8495:8500   */\n      dup2\n        /* \"#utility.yul\":8488:8509   */\n      mstore\n        /* \"#utility.yul\":8540:8544   */\n      0x20\n        /* \"#utility.yul\":8533:8538   */\n      dup2\n        /* \"#utility.yul\":8529:8545   */\n      add\n        /* \"#utility.yul\":8578:8581   */\n      dup5\n        /* \"#utility.yul\":8569:8575   */\n      dup5\n        /* \"#utility.yul\":8564:8567   */\n      dup5\n        /* \"#utility.yul\":8560:8576   */\n      add\n        /* \"#utility.yul\":8557:8582   */\n      gt\n        /* \"#utility.yul\":8554:8666   */\n      iszero\n      tag_456\n      jumpi\n        /* \"#utility.yul\":8585:8664   */\n      tag_457\n      tag_307\n      jump\t// in\n    tag_457:\n        /* \"#utility.yul\":8554:8666   */\n    tag_456:\n        /* \"#utility.yul\":8675:8716   */\n      tag_458\n        /* \"#utility.yul\":8709:8715   */\n      dup5\n        /* \"#utility.yul\":8704:8707   */\n      dup3\n        /* \"#utility.yul\":8699:8702   */\n      dup6\n        /* \"#utility.yul\":8675:8716   */\n      tag_311\n      jump\t// in\n    tag_458:\n        /* \"#utility.yul\":8395:8722   */\n      pop\n        /* \"#utility.yul\":8312:8722   */\n      swap4\n      swap3\n      pop\n      pop\n      pop\n      jump\t// out\n        /* \"#utility.yul\":8741:9079   */\n    tag_313:\n        /* \"#utility.yul\":8796:8801   */\n      0x00\n        /* \"#utility.yul\":8845:8848   */\n      dup3\n        /* \"#utility.yul\":8838:8842   */\n      0x1f\n        /* \"#utility.yul\":8830:8836   */\n      dup4\n        /* \"#utility.yul\":8826:8843   */\n      add\n        /* \"#utility.yul\":8822:8849   */\n      slt\n        /* \"#utility.yul\":8812:8934   */\n      tag_460\n      jumpi\n        /* \"#utility.yul\":8853:8932   */\n      tag_461\n      tag_306\n      jump\t// in\n    tag_461:\n        /* \"#utility.yul\":8812:8934   */\n    tag_460:\n        /* \"#utility.yul\":8970:8976   */\n      dup2\n        /* \"#utility.yul\":8957:8977   */\n      calldataload\n        /* \"#utility.yul\":8995:9073   */\n      tag_462\n        /* \"#utility.yul\":9069:9072   */\n      dup5\n        /* \"#utility.yul\":9061:9067   */\n      dup3\n        /* \"#utility.yul\":9054:9058   */\n      0x20\n        /* \"#utility.yul\":9046:9052   */\n      dup7\n        /* \"#utility.yul\":9042:9059   */\n      add\n        /* \"#utility.yul\":8995:9073   */\n      tag_312\n      jump\t// in\n    tag_462:\n        /* \"#utility.yul\":8986:9073   */\n      swap2\n      pop\n        /* \"#utility.yul\":8802:9079   */\n      pop\n        /* \"#utility.yul\":8741:9079   */\n      swap3\n      swap2\n      pop\n      pop\n      jump\t// out\n        /* \"#utility.yul\":9085:10028   */\n    tag_76:\n        /* \"#utility.yul\":9180:9186   */\n      0x00\n        /* \"#utility.yul\":9188:9194   */\n      dup1\n        /* \"#utility.yul\":9196:9202   */\n      0x00\n        /* \"#utility.yul\":9204:9210   */\n      dup1\n        /* \"#utility.yul\":9253:9256   */\n      0x80\n        /* \"#utility.yul\":9241:9250   */\n      dup6\n        /* \"#utility.yul\":9232:9239   */\n      dup8\n        /* \"#utility.yul\":9228:9251   */\n      sub\n        /* \"#utility.yul\":9224:9257   */\n      slt\n        /* \"#utility.yul\":9221:9341   */\n      iszero\n      tag_464\n      jumpi\n        /* \"#utility.yul\":9260:9339   */\n      tag_465\n      tag_283\n      jump\t// in\n    tag_465:\n        /* \"#utility.yul\":9221:9341   */\n    tag_464:\n        /* \"#utility.yul\":9380:9381   */\n      0x00\n        /* \"#utility.yul\":9405:9458   */\n      tag_466\n        /* \"#utility.yul\":9450:9457   */\n      dup8\n        /* \"#utility.yul\":9441:9447   */\n      dup3\n        /* \"#utility.yul\":9430:9439   */\n      dup9\n        /* \"#utility.yul\":9426:9448   */\n      add\n        /* \"#utility.yul\":9405:9458   */\n      tag_302\n      jump\t// in\n    tag_466:\n        /* \"#utility.yul\":9395:9458   */\n      swap5\n      pop\n        /* \"#utility.yul\":9351:9468   */\n      pop\n        /* \"#utility.yul\":9507:9509   */\n      0x20\n        /* \"#utility.yul\":9533:9586   */\n      tag_467\n        /* \"#utility.yul\":9578:9585   */\n      dup8\n        /* \"#utility.yul\":9569:9575   */\n      dup3\n        /* \"#utility.yul\":9558:9567   */\n      dup9\n        /* \"#utility.yul\":9554:9576   */\n      add\n        /* \"#utility.yul\":9533:9586   */\n      tag_302\n      jump\t// in\n    tag_467:\n        /* \"#utility.yul\":9523:9586   */\n      swap4\n      pop\n        /* \"#utility.yul\":9478:9596   */\n      pop\n        /* \"#utility.yul\":9635:9637   */\n      0x40\n        /* \"#utility.yul\":9661:9714   */\n      tag_468\n        /* \"#utility.yul\":9706:9713   */\n      dup8\n        /* \"#utility.yul\":9697:9703   */\n      dup3\n        /* \"#utility.yul\":9686:9695   */\n      dup9\n        /* \"#utility.yul\":9682:9704   */\n      add\n        /* \"#utility.yul\":9661:9714   */\n      tag_297\n      jump\t// in\n    tag_468:\n        /* \"#utility.yul\":9651:9714   */\n      swap3\n      pop\n        /* \"#utility.yul\":9606:9724   */\n      pop\n        /* \"#utility.yul\":9791:9793   */\n      0x60\n        /* \"#utility.yul\":9780:9789   */\n      dup6\n        /* \"#utility.yul\":9776:9794   */\n      add\n        /* \"#utility.yul\":9763:9795   */\n      calldataload\n        /* \"#utility.yul\":9822:9840   */\n      0xffffffffffffffff\n        /* \"#utility.yul\":9814:9820   */\n      dup2\n        /* \"#utility.yul\":9811:9841   */\n      gt\n        /* \"#utility.yul\":9808:9925   */\n      iszero\n      tag_469\n      jumpi\n        /* \"#utility.yul\":9844:9923   */\n      tag_470\n      tag_284\n      jump\t// in\n    tag_470:\n        /* \"#utility.yul\":9808:9925   */\n    tag_469:\n        /* \"#utility.yul\":9949:10011   */\n      tag_471\n        /* \"#utility.yul\":10003:10010   */\n      dup8\n        /* \"#utility.yul\":9994:10000   */\n      dup3\n        /* \"#utility.yul\":9983:9992   */\n      dup9\n        /* \"#utility.yul\":9979:10001   */\n      add\n        /* \"#utility.yul\":9949:10011   */\n      tag_313\n      jump\t// in\n    tag_471:\n        /* \"#utility.yul\":9939:10011   */\n      swap2\n      pop\n        /* \"#utility.yul\":9734:10021   */\n      pop\n        /* \"#utility.yul\":9085:10028   */\n      swap3\n      swap6\n      swap2\n      swap5\n      pop\n      swap3\n      pop\n      jump\t// out\n        /* \"#utility.yul\":10034:10508   */\n    tag_84:\n        /* \"#utility.yul\":10102:10108   */\n      0x00\n        /* \"#utility.yul\":10110:10116   */\n      dup1\n        /* \"#utility.yul\":10159:10161   */\n      0x40\n        /* \"#utility.yul\":10147:10156   */\n      dup4\n        /* \"#utility.yul\":10138:10145   */\n      dup6\n        /* \"#utility.yul\":10134:10157   */\n      sub\n        /* \"#utility.yul\":10130:10162   */\n      slt\n        /* \"#utility.yul\":10127:10246   */\n      iszero\n      tag_473\n      jumpi\n        /* \"#utility.yul\":10165:10244   */\n      tag_474\n      tag_283\n      jump\t// in\n    tag_474:\n        /* \"#utility.yul\":10127:10246   */\n    tag_473:\n        /* \"#utility.yul\":10285:10286   */\n      0x00\n        /* \"#utility.yul\":10310:10363   */\n      tag_475\n        /* \"#utility.yul\":10355:10362   */\n      dup6\n        /* \"#utility.yul\":10346:10352   */\n      dup3\n        /* \"#utility.yul\":10335:10344   */\n      dup7\n        /* \"#utility.yul\":10331:10353   */\n      add\n        /* \"#utility.yul\":10310:10363   */\n      tag_302\n      jump\t// in\n    tag_475:\n        /* \"#utility.yul\":10300:10363   */\n      swap3\n      pop\n        /* \"#utility.yul\":10256:10373   */\n      pop\n        /* \"#utility.yul\":10412:10414   */\n      0x20\n        /* \"#utility.yul\":10438:10491   */\n      tag_476\n        /* \"#utility.yul\":10483:10490   */\n      dup6\n        /* \"#utility.yul\":10474:10480   */\n      dup3\n        /* \"#utility.yul\":10463:10472   */\n      dup7\n        /* \"#utility.yul\":10459:10481   */\n      add\n        /* \"#utility.yul\":10438:10491   */\n      tag_302\n      jump\t// in\n    tag_476:\n        /* \"#utility.yul\":10428:10491   */\n      swap2\n      pop\n        /* \"#utility.yul\":10383:10501   */\n      pop\n        /* \"#utility.yul\":10034:10508   */\n      swap3\n      pop\n      swap3\n      swap1\n      pop\n      jump\t// out\n        /* \"#utility.yul\":10514:10694   */\n    tag_314:\n        /* \"#utility.yul\":10562:10639   */\n      0x4e487b7100000000000000000000000000000000000000000000000000000000\n        /* \"#utility.yul\":10559:10560   */\n      0x00\n        /* \"#utility.yul\":10552:10640   */\n      mstore\n        /* \"#utility.yul\":10659:10663   */\n      0x22\n        /* \"#utility.yul\":10656:10657   */\n      0x04\n        /* \"#utility.yul\":10649:10664   */\n      mstore\n        /* \"#utility.yul\":10683:10687   */\n      0x24\n        /* \"#utility.yul\":10680:10681   */\n      0x00\n        /* \"#utility.yul\":10673:10688   */\n      revert\n        /* \"#utility.yul\":10700:11020   */\n    tag_94:\n        /* \"#utility.yul\":10744:10750   */\n      0x00\n        /* \"#utility.yul\":10781:10782   */\n      0x02\n        /* \"#utility.yul\":10775:10779   */\n      dup3\n        /* \"#utility.yul\":10771:10783   */\n      div\n        /* \"#utility.yul\":10761:10783   */\n      swap1\n      pop\n        /* \"#utility.yul\":10828:10829   */\n      0x01\n        /* \"#utility.yul\":10822:10826   */\n      dup3\n        /* \"#utility.yul\":10818:10830   */\n      and\n        /* \"#utility.yul\":10849:10867   */\n      dup1\n        /* \"#utility.yul\":10839:10920   */\n      tag_479\n      jumpi\n        /* \"#utility.yul\":10905:10909   */\n      0x7f\n        /* \"#utility.yul\":10897:10903   */\n      dup3\n        /* \"#utility.yul\":10893:10910   */\n      and\n        /* \"#utility.yul\":10883:10910   */\n      swap2\n      pop\n        /* \"#utility.yul\":10839:10920   */\n    tag_479:\n        /* \"#utility.yul\":10967:10969   */\n      0x20\n        /* \"#utility.yul\":10959:10965   */\n      dup3\n        /* \"#utility.yul\":10956:10970   */\n      lt\n        /* \"#utility.yul\":10936:10954   */\n      dup2\n        /* \"#utility.yul\":10933:10971   */\n      sub\n        /* \"#utility.yul\":10930:11014   */\n      tag_480\n      jumpi\n        /* \"#utility.yul\":10986:11004   */\n      tag_481\n      tag_314\n      jump\t// in\n    tag_481:\n        /* \"#utility.yul\":10930:11014   */\n    tag_480:\n        /* \"#utility.yul\":10751:11020   */\n      pop\n        /* \"#utility.yul\":10700:11020   */\n      swap2\n      swap1\n      pop\n      jump\t// out\n        /* \"#utility.yul\":11026:11257   */\n    tag_315:\n        /* \"#utility.yul\":11166:11200   */\n      0x4552433732313a20617070726f76656420717565727920666f72206e6f6e6578\n        /* \"#utility.yul\":11162:11163   */\n      0x00\n        /* \"#utility.yul\":11154:11160   */\n      dup3\n        /* \"#utility.yul\":11150:11164   */\n      add\n        /* \"#utility.yul\":11143:11201   */\n      mstore\n        /* \"#utility.yul\":11235:11249   */\n      0x697374656e7420746f6b656e0000000000000000000000000000000000000000\n        /* \"#utility.yul\":11230:11232   */\n      0x20\n        /* \"#utility.yul\":11222:11228   */\n      dup3\n        /* \"#utility.yul\":11218:11233   */\n      add\n        /* \"#utility.yul\":11211:11250   */\n      mstore\n        /* \"#utility.yul\":11026:11257   */\n      pop\n      jump\t// out\n        /* \"#utility.yul\":11263:11629   */\n    tag_316:\n        /* \"#utility.yul\":11405:11408   */\n      0x00\n        /* \"#utility.yul\":11426:11493   */\n      tag_484\n        /* \"#utility.yul\":11490:11492   */\n      0x2c\n        /* \"#utility.yul\":11485:11488   */\n      dup4\n        /* \"#utility.yul\":11426:11493   */\n      tag_291\n      jump\t// in\n    tag_484:\n        /* \"#utility.yul\":11419:11493   */\n      swap2\n      pop\n        /* \"#utility.yul\":11502:11595   */\n      tag_485\n        /* \"#utility.yul\":11591:11594   */\n      dup3\n        /* \"#utility.yul\":11502:11595   */\n      tag_315\n      jump\t// in\n    tag_485:\n        /* \"#utility.yul\":11620:11622   */\n      0x40\n        /* \"#utility.yul\":11615:11618   */\n      dup3\n        /* \"#utility.yul\":11611:11623   */\n      add\n        /* \"#utility.yul\":11604:11623   */\n      swap1\n      pop\n        /* \"#utility.yul\":11263:11629   */\n      swap2\n      swap1\n      pop\n      jump\t// out\n        /* \"#utility.yul\":11635:12054   */\n    tag_104:\n        /* \"#utility.yul\":11801:11805   */\n      0x00\n        /* \"#utility.yul\":11839:11841   */\n      0x20\n        /* \"#utility.yul\":11828:11837   */\n      dup3\n        /* \"#utility.yul\":11824:11842   */\n      add\n        /* \"#utility.yul\":11816:11842   */\n      swap1\n      pop\n        /* \"#utility.yul\":11888:11897   */\n      dup2\n        /* \"#utility.yul\":11882:11886   */\n      dup2\n        /* \"#utility.yul\":11878:11898   */\n      sub\n        /* \"#utility.yul\":11874:11875   */\n      0x00\n        /* \"#utility.yul\":11863:11872   */\n      dup4\n        /* \"#utility.yul\":11859:11876   */\n      add\n        /* \"#utility.yul\":11852:11899   */\n      mstore\n        /* \"#utility.yul\":11916:12047   */\n      tag_487\n        /* \"#utility.yul\":12042:12046   */\n      dup2\n        /* \"#utility.yul\":11916:12047   */\n      tag_316\n      jump\t// in\n    tag_487:\n        /* \"#utility.yul\":11908:12047   */\n      swap1\n      pop\n        /* \"#utility.yul\":11635:12054   */\n      swap2\n      swap1\n      pop\n      jump\t// out\n        /* \"#utility.yul\":12060:12280   */\n    tag_317:\n        /* \"#utility.yul\":12200:12234   */\n      0x4552433732313a20617070726f76616c20746f2063757272656e74206f776e65\n        /* \"#utility.yul\":12196:12197   */\n      0x00\n        /* \"#utility.yul\":12188:12194   */\n      dup3\n        /* \"#utility.yul\":12184:12198   */\n      add\n        /* \"#utility.yul\":12177:12235   */\n      mstore\n        /* \"#utility.yul\":12269:12272   */\n      0x7200000000000000000000000000000000000000000000000000000000000000\n        /* \"#utility.yul\":12264:12266   */\n      0x20\n        /* \"#utility.yul\":12256:12262   */\n      dup3\n        /* \"#utility.yul\":12252:12267   */\n      add\n        /* \"#utility.yul\":12245:12273   */\n      mstore\n        /* \"#utility.yul\":12060:12280   */\n      pop\n      jump\t// out\n        /* \"#utility.yul\":12286:12652   */\n    tag_318:\n        /* \"#utility.yul\":12428:12431   */\n      0x00\n        /* \"#utility.yul\":12449:12516   */\n      tag_490\n        /* \"#utility.yul\":12513:12515   */\n      0x21\n        /* \"#utility.yul\":12508:12511   */\n      dup4\n        /* \"#utility.yul\":12449:12516   */\n      tag_291\n      jump\t// in\n    tag_490:\n        /* \"#utility.yul\":12442:12516   */\n      swap2\n      pop\n        /* \"#utility.yul\":12525:12618   */\n      tag_491\n        /* \"#utility.yul\":12614:12617   */\n      dup3\n        /* \"#utility.yul\":12525:12618   */\n      tag_317\n      jump\t// in\n    tag_491:\n        /* \"#utility.yul\":12643:12645   */\n      0x40\n        /* \"#utility.yul\":12638:12641   */\n      dup3\n        /* \"#utility.yul\":12634:12646   */\n      add\n        /* \"#utility.yul\":12627:12646   */\n      swap1\n      pop\n        /* \"#utility.yul\":12286:12652   */\n      swap2\n      swap1\n      pop\n      jump\t// out\n        /* \"#utility.yul\":12658:13077   */\n    tag_109:\n        /* \"#utility.yul\":12824:12828   */\n      0x00\n        /* \"#utility.yul\":12862:12864   */\n      0x20\n        /* \"#utility.yul\":12851:12860   */\n      dup3\n        /* \"#utility.yul\":12847:12865   */\n      add\n        /* \"#utility.yul\":12839:12865   */\n      swap1\n      pop\n        /* \"#utility.yul\":12911:12920   */\n      dup2\n        /* \"#utility.yul\":12905:12909   */\n      dup2\n        /* \"#utility.yul\":12901:12921   */\n      sub\n        /* \"#utility.yul\":12897:12898   */\n      0x00\n        /* \"#utility.yul\":12886:12895   */\n      dup4\n        /* \"#utility.yul\":12882:12899   */\n      add\n        /* \"#utility.yul\":12875:12922   */\n      mstore\n        /* \"#utility.yul\":12939:13070   */\n      tag_493\n        /* \"#utility.yul\":13065:13069   */\n      dup2\n        /* \"#utility.yul\":12939:13070   */\n      tag_318\n      jump\t// in\n    tag_493:\n        /* \"#utility.yul\":12931:13070   */\n      swap1\n      pop\n        /* \"#utility.yul\":12658:13077   */\n      swap2\n      swap1\n      pop\n      jump\t// out\n        /* \"#utility.yul\":13083:13326   */\n    tag_319:\n        /* \"#utility.yul\":13223:13257   */\n      0x4552433732313a20617070726f76652063616c6c6572206973206e6f74206f77\n        /* \"#utility.yul\":13219:13220   */\n      0x00\n        /* \"#utility.yul\":13211:13217   */\n      dup3\n        /* \"#utility.yul\":13207:13221   */\n      add\n        /* \"#utility.yul\":13200:13258   */\n      mstore\n        /* \"#utility.yul\":13292:13318   */\n      0x6e6572206e6f7220617070726f76656420666f7220616c6c0000000000000000\n        /* \"#utility.yul\":13287:13289   */\n      0x20\n        /* \"#utility.yul\":13279:13285   */\n      dup3\n        /* \"#utility.yul\":13275:13290   */\n      add\n        /* \"#utility.yul\":13268:13319   */\n      mstore\n        /* \"#utility.yul\":13083:13326   */\n      pop\n      jump\t// out\n        /* \"#utility.yul\":13332:13698   */\n    tag_320:\n        /* \"#utility.yul\":13474:13477   */\n      0x00\n        /* \"#utility.yul\":13495:13562   */\n      tag_496\n        /* \"#utility.yul\":13559:13561   */\n      0x38\n        /* \"#utility.yul\":13554:13557   */\n      dup4\n        /* \"#utility.yul\":13495:13562   */\n      tag_291\n      jump\t// in\n    tag_496:\n        /* \"#utility.yul\":13488:13562   */\n      swap2\n      pop\n        /* \"#utility.yul\":13571:13664   */\n      tag_497\n        /* \"#utility.yul\":13660:13663   */\n      dup3\n        /* \"#utility.yul\":13571:13664   */\n      tag_319\n      jump\t// in\n    tag_497:\n        /* \"#utility.yul\":13689:13691   */\n      0x40\n        /* \"#utility.yul\":13684:13687   */\n      dup3\n        /* \"#utility.yul\":13680:13692   */\n      add\n        /* \"#utility.yul\":13673:13692   */\n      swap1\n      pop\n        /* \"#utility.yul\":13332:13698   */\n      swap2\n      swap1\n      pop\n      jump\t// out\n        /* \"#utility.yul\":13704:14123   */\n    tag_117:\n        /* \"#utility.yul\":13870:13874   */\n      0x00\n        /* \"#utility.yul\":13908:13910   */\n      0x20\n        /* \"#utility.yul\":13897:13906   */\n      dup3\n        /* \"#utility.yul\":13893:13911   */\n      add\n        /* \"#utility.yul\":13885:13911   */\n      swap1\n      pop\n        /* \"#utility.yul\":13957:13966   */\n      dup2\n        /* \"#utility.yul\":13951:13955   */\n      dup2\n        /* \"#utility.yul\":13947:13967   */\n      sub\n        /* \"#utility.yul\":13943:13944   */\n      0x00\n        /* \"#utility.yul\":13932:13941   */\n      dup4\n        /* \"#utility.yul\":13928:13945   */\n      add\n        /* \"#utility.yul\":13921:13968   */\n      mstore\n        /* \"#utility.yul\":13985:14116   */\n      tag_499\n        /* \"#utility.yul\":14111:14115   */\n      dup2\n        /* \"#utility.yul\":13985:14116   */\n      tag_320\n      jump\t// in\n    tag_499:\n        /* \"#utility.yul\":13977:14116   */\n      swap1\n      pop\n        /* \"#utility.yul\":13704:14123   */\n      swap2\n      swap1\n      pop\n      jump\t// out\n        /* \"#utility.yul\":14129:14303   */\n    tag_321:\n        /* \"#utility.yul\":14269:14295   */\n      0x43616c6c6572206973206e6f7420746865206f776e65722e0000000000000000\n        /* \"#utility.yul\":14265:14266   */\n      0x00\n        /* \"#utility.yul\":14257:14263   */\n      dup3\n        /* \"#utility.yul\":14253:14267   */\n      add\n        /* \"#utility.yul\":14246:14296   */\n      mstore\n        /* \"#utility.yul\":14129:14303   */\n      pop\n      jump\t// out\n        /* \"#utility.yul\":14309:14675   */\n    tag_322:\n        /* \"#utility.yul\":14451:14454   */\n      0x00\n        /* \"#utility.yul\":14472:14539   */\n      tag_502\n        /* \"#utility.yul\":14536:14538   */\n      0x18\n        /* \"#utility.yul\":14531:14534   */\n      dup4\n        /* \"#utility.yul\":14472:14539   */\n      tag_291\n      jump\t// in\n    tag_502:\n        /* \"#utility.yul\":14465:14539   */\n      swap2\n      pop\n        /* \"#utility.yul\":14548:14641   */\n      tag_503\n        /* \"#utility.yul\":14637:14640   */\n      dup3\n        /* \"#utility.yul\":14548:14641   */\n      tag_321\n      jump\t// in\n    tag_503:\n        /* \"#utility.yul\":14666:14668   */\n      0x20\n        /* \"#utility.yul\":14661:14664   */\n      dup3\n        /* \"#utility.yul\":14657:14669   */\n      add\n        /* \"#utility.yul\":14650:14669   */\n      swap1\n      pop\n        /* \"#utility.yul\":14309:14675   */\n      swap2\n      swap1\n      pop\n      jump\t// out\n        /* \"#utility.yul\":14681:15100   */\n    tag_124:\n        /* \"#utility.yul\":14847:14851   */\n      0x00\n        /* \"#utility.yul\":14885:14887   */\n      0x20\n        /* \"#utility.yul\":14874:14883   */\n      dup3\n        /* \"#utility.yul\":14870:14888   */\n      add\n        /* \"#utility.yul\":14862:14888   */\n      swap1\n      pop\n        /* \"#utility.yul\":14934:14943   */\n      dup2\n        /* \"#utility.yul\":14928:14932   */\n      dup2\n        /* \"#utility.yul\":14924:14944   */\n      sub\n        /* \"#utility.yul\":14920:14921   */\n      0x00\n        /* \"#utility.yul\":14909:14918   */\n      dup4\n        /* \"#utility.yul\":14905:14922   */\n      add\n        /* \"#utility.yul\":14898:14945   */\n      mstore\n        /* \"#utility.yul\":14962:15093   */\n      tag_505\n        /* \"#utility.yul\":15088:15092   */\n      dup2\n        /* \"#utility.yul\":14962:15093   */\n      tag_322\n      jump\t// in\n    tag_505:\n        /* \"#utility.yul\":14954:15093   */\n      swap1\n      pop\n        /* \"#utility.yul\":14681:15100   */\n      swap2\n      swap1\n      pop\n      jump\t// out\n        /* \"#utility.yul\":15106:15342   */\n    tag_323:\n        /* \"#utility.yul\":15246:15280   */\n      0x4552433732313a207472616e736665722063616c6c6572206973206e6f74206f\n        /* \"#utility.yul\":15242:15243   */\n      0x00\n        /* \"#utility.yul\":15234:15240   */\n      dup3\n        /* \"#utility.yul\":15230:15244   */\n      add\n        /* \"#utility.yul\":15223:15281   */\n      mstore\n        /* \"#utility.yul\":15315:15334   */\n      0x776e6572206e6f7220617070726f766564000000000000000000000000000000\n        /* \"#utility.yul\":15310:15312   */\n      0x20\n        /* \"#utility.yul\":15302:15308   */\n      dup3\n        /* \"#utility.yul\":15298:15313   */\n      add\n        /* \"#utility.yul\":15291:15335   */\n      mstore\n        /* \"#utility.yul\":15106:15342   */\n      pop\n      jump\t// out\n        /* \"#utility.yul\":15348:15714   */\n    tag_324:\n        /* \"#utility.yul\":15490:15493   */\n      0x00\n        /* \"#utility.yul\":15511:15578   */\n      tag_508\n        /* \"#utility.yul\":15575:15577   */\n      0x31\n        /* \"#utility.yul\":15570:15573   */\n      dup4\n        /* \"#utility.yul\":15511:15578   */\n      tag_291\n      jump\t// in\n    tag_508:\n        /* \"#utility.yul\":15504:15578   */\n      swap2\n      pop\n        /* \"#utility.yul\":15587:15680   */\n      tag_509\n        /* \"#utility.yul\":15676:15679   */\n      dup3\n        /* \"#utility.yul\":15587:15680   */\n      tag_323\n      jump\t// in\n    tag_509:\n        /* \"#utility.yul\":15705:15707   */\n      0x40\n        /* \"#utility.yul\":15700:15703   */\n      dup3\n        /* \"#utility.yul\":15696:15708   */\n      add\n        /* \"#utility.yul\":15689:15708   */\n      swap1\n      pop\n        /* \"#utility.yul\":15348:15714   */\n      swap2\n      swap1\n      pop\n      jump\t// out\n        /* \"#utility.yul\":15720:16139   */\n    tag_135:\n        /* \"#utility.yul\":15886:15890   */\n      0x00\n        /* \"#utility.yul\":15924:15926   */\n      0x20\n        /* \"#utility.yul\":15913:15922   */\n      dup3\n        /* \"#utility.yul\":15909:15927   */\n      add\n        /* \"#utility.yul\":15901:15927   */\n      swap1\n      pop\n        /* \"#utility.yul\":15973:15982   */\n      dup2\n        /* \"#utility.yul\":15967:15971   */\n      dup2\n        /* \"#utility.yul\":15963:15983   */\n      sub\n        /* \"#utility.yul\":15959:15960   */\n      0x00\n        /* \"#utility.yul\":15948:15957   */\n      dup4\n        /* \"#utility.yul\":15944:15961   */\n      add\n        /* \"#utility.yul\":15937:15984   */\n      mstore\n        /* \"#utility.yul\":16001:16132   */\n      tag_511\n        /* \"#utility.yul\":16127:16131   */\n      dup2\n        /* \"#utility.yul\":16001:16132   */\n      tag_324\n      jump\t// in\n    tag_511:\n        /* \"#utility.yul\":15993:16132   */\n      swap1\n      pop\n        /* \"#utility.yul\":15720:16139   */\n      swap2\n      swap1\n      pop\n      jump\t// out\n        /* \"#utility.yul\":16145:16373   */\n    tag_325:\n        /* \"#utility.yul\":16285:16319   */\n      0x4552433732313a206f776e657220717565727920666f72206e6f6e6578697374\n        /* \"#utility.yul\":16281:16282   */\n      0x00\n        /* \"#utility.yul\":16273:16279   */\n      dup3\n        /* \"#utility.yul\":16269:16283   */\n      add\n        /* \"#utility.yul\":16262:16320   */\n      mstore\n        /* \"#utility.yul\":16354:16365   */\n      0x656e7420746f6b656e0000000000000000000000000000000000000000000000\n        /* \"#utility.yul\":16349:16351   */\n      0x20\n        /* \"#utility.yul\":16341:16347   */\n      dup3\n        /* \"#utility.yul\":16337:16352   */\n      add\n        /* \"#utility.yul\":16330:16366   */\n      mstore\n        /* \"#utility.yul\":16145:16373   */\n      pop\n      jump\t// out\n        /* \"#utility.yul\":16379:16745   */\n    tag_326:\n        /* \"#utility.yul\":16521:16524   */\n      0x00\n        /* \"#utility.yul\":16542:16609   */\n      tag_514\n        /* \"#utility.yul\":16606:16608   */\n      0x29\n        /* \"#utility.yul\":16601:16604   */\n      dup4\n        /* \"#utility.yul\":16542:16609   */\n      tag_291\n      jump\t// in\n    tag_514:\n        /* \"#utility.yul\":16535:16609   */\n      swap2\n      pop\n        /* \"#utility.yul\":16618:16711   */\n      tag_515\n        /* \"#utility.yul\":16707:16710   */\n      dup3\n        /* \"#utility.yul\":16618:16711   */\n      tag_325\n      jump\t// in\n    tag_515:\n        /* \"#utility.yul\":16736:16738   */\n      0x40\n        /* \"#utility.yul\":16731:16734   */\n      dup3\n        /* \"#utility.yul\":16727:16739   */\n      add\n        /* \"#utility.yul\":16720:16739   */\n      swap1\n      pop\n        /* \"#utility.yul\":16379:16745   */\n      swap2\n      swap1\n      pop\n      jump\t// out\n        /* \"#utility.yul\":16751:17170   */\n    tag_143:\n        /* \"#utility.yul\":16917:16921   */\n      0x00\n        /* \"#utility.yul\":16955:16957   */\n      0x20\n        /* \"#utility.yul\":16944:16953   */\n      dup3\n        /* \"#utility.yul\":16940:16958   */\n      add\n        /* \"#utility.yul\":16932:16958   */\n      swap1\n      pop\n        /* \"#utility.yul\":17004:17013   */\n      dup2\n        /* \"#utility.yul\":16998:17002   */\n      dup2\n        /* \"#utility.yul\":16994:17014   */\n      sub\n        /* \"#utility.yul\":16990:16991   */\n      0x00\n        /* \"#utility.yul\":16979:16988   */\n      dup4\n        /* \"#utility.yul\":16975:16992   */\n      add\n        /* \"#utility.yul\":16968:17015   */\n      mstore\n        /* \"#utility.yul\":17032:17163   */\n      tag_517\n        /* \"#utility.yul\":17158:17162   */\n      dup2\n        /* \"#utility.yul\":17032:17163   */\n      tag_326\n      jump\t// in\n    tag_517:\n        /* \"#utility.yul\":17024:17163   */\n      swap1\n      pop\n        /* \"#utility.yul\":16751:17170   */\n      swap2\n      swap1\n      pop\n      jump\t// out\n        /* \"#utility.yul\":17176:17405   */\n    tag_327:\n        /* \"#utility.yul\":17316:17350   */\n      0x4552433732313a2062616c616e636520717565727920666f7220746865207a65\n        /* \"#utility.yul\":17312:17313   */\n      0x00\n        /* \"#utility.yul\":17304:17310   */\n      dup3\n        /* \"#utility.yul\":17300:17314   */\n      add\n        /* \"#utility.yul\":17293:17351   */\n      mstore\n        /* \"#utility.yul\":17385:17397   */\n      0x726f206164647265737300000000000000000000000000000000000000000000\n        /* \"#utility.yul\":17380:17382   */\n      0x20\n        /* \"#utility.yul\":17372:17378   */\n      dup3\n        /* \"#utility.yul\":17368:17383   */\n      add\n        /* \"#utility.yul\":17361:17398   */\n      mstore\n        /* \"#utility.yul\":17176:17405   */\n      pop\n      jump\t// out\n        /* \"#utility.yul\":17411:17777   */\n    tag_328:\n        /* \"#utility.yul\":17553:17556   */\n      0x00\n        /* \"#utility.yul\":17574:17641   */\n      tag_520\n        /* \"#utility.yul\":17638:17640   */\n      0x2a\n        /* \"#utility.yul\":17633:17636   */\n      dup4\n        /* \"#utility.yul\":17574:17641   */\n      tag_291\n      jump\t// in\n    tag_520:\n        /* \"#utility.yul\":17567:17641   */\n      swap2\n      pop\n        /* \"#utility.yul\":17650:17743   */\n      tag_521\n        /* \"#utility.yul\":17739:17742   */\n      dup3\n        /* \"#utility.yul\":17650:17743   */\n      tag_327\n      jump\t// in\n    tag_521:\n        /* \"#utility.yul\":17768:17770   */\n      0x40\n        /* \"#utility.yul\":17763:17766   */\n      dup3\n        /* \"#utility.yul\":17759:17771   */\n      add\n        /* \"#utility.yul\":17752:17771   */\n      swap1\n      pop\n        /* \"#utility.yul\":17411:17777   */\n      swap2\n      swap1\n      pop\n      jump\t// out\n        /* \"#utility.yul\":17783:18202   */\n    tag_147:\n        /* \"#utility.yul\":17949:17953   */\n      0x00\n        /* \"#utility.yul\":17987:17989   */\n      0x20\n        /* \"#utility.yul\":17976:17985   */\n      dup3\n        /* \"#utility.yul\":17972:17990   */\n      add\n        /* \"#utility.yul\":17964:17990   */\n      swap1\n      pop\n        /* \"#utility.yul\":18036:18045   */\n      dup2\n        /* \"#utility.yul\":18030:18034   */\n      dup2\n        /* \"#utility.yul\":18026:18046   */\n      sub\n        /* \"#utility.yul\":18022:18023   */\n      0x00\n        /* \"#utility.yul\":18011:18020   */\n      dup4\n        /* \"#utility.yul\":18007:18024   */\n      add\n        /* \"#utility.yul\":18000:18047   */\n      mstore\n        /* \"#utility.yul\":18064:18195   */\n      tag_523\n        /* \"#utility.yul\":18190:18194   */\n      dup2\n        /* \"#utility.yul\":18064:18195   */\n      tag_328\n      jump\t// in\n    tag_523:\n        /* \"#utility.yul\":18056:18195   */\n      swap1\n      pop\n        /* \"#utility.yul\":17783:18202   */\n      swap2\n      swap1\n      pop\n      jump\t// out\n        /* \"#utility.yul\":18208:18442   */\n    tag_329:\n        /* \"#utility.yul\":18348:18382   */\n      0x4552433732314d657461646174613a2055524920717565727920666f72206e6f\n        /* \"#utility.yul\":18344:18345   */\n      0x00\n        /* \"#utility.yul\":18336:18342   */\n      dup3\n        /* \"#utility.yul\":18332:18346   */\n      add\n        /* \"#utility.yul\":18325:18383   */\n      mstore\n        /* \"#utility.yul\":18417:18434   */\n      0x6e6578697374656e7420746f6b656e0000000000000000000000000000000000\n        /* \"#utility.yul\":18412:18414   */\n      0x20\n        /* \"#utility.yul\":18404:18410   */\n      dup3\n        /* \"#utility.yul\":18400:18415   */\n      add\n        /* \"#utility.yul\":18393:18435   */\n      mstore\n        /* \"#utility.yul\":18208:18442   */\n      pop\n      jump\t// out\n        /* \"#utility.yul\":18448:18814   */\n    tag_330:\n        /* \"#utility.yul\":18590:18593   */\n      0x00\n        /* \"#utility.yul\":18611:18678   */\n      tag_526\n        /* \"#utility.yul\":18675:18677   */\n      0x2f\n        /* \"#utility.yul\":18670:18673   */\n      dup4\n        /* \"#utility.yul\":18611:18678   */\n      tag_291\n      jump\t// in\n    tag_526:\n        /* \"#utility.yul\":18604:18678   */\n      swap2\n      pop\n        /* \"#utility.yul\":18687:18780   */\n      tag_527\n        /* \"#utility.yul\":18776:18779   */\n      dup3\n        /* \"#utility.yul\":18687:18780   */\n      tag_329\n      jump\t// in\n    tag_527:\n        /* \"#utility.yul\":18805:18807   */\n      0x40\n        /* \"#utility.yul\":18800:18803   */\n      dup3\n        /* \"#utility.yul\":18796:18808   */\n      add\n        /* \"#utility.yul\":18789:18808   */\n      swap1\n      pop\n        /* \"#utility.yul\":18448:18814   */\n      swap2\n      swap1\n      pop\n      jump\t// out\n        /* \"#utility.yul\":18820:19239   */\n    tag_170:\n        /* \"#utility.yul\":18986:18990   */\n      0x00\n        /* \"#utility.yul\":19024:19026   */\n      0x20\n        /* \"#utility.yul\":19013:19022   */\n      dup3\n        /* \"#utility.yul\":19009:19027   */\n      add\n        /* \"#utility.yul\":19001:19027   */\n      swap1\n      pop\n        /* \"#utility.yul\":19073:19082   */\n      dup2\n        /* \"#utility.yul\":19067:19071   */\n      dup2\n        /* \"#utility.yul\":19063:19083   */\n      sub\n        /* \"#utility.yul\":19059:19060   */\n      0x00\n        /* \"#utility.yul\":19048:19057   */\n      dup4\n        /* \"#utility.yul\":19044:19061   */\n      add\n        /* \"#utility.yul\":19037:19084   */\n      mstore\n        /* \"#utility.yul\":19101:19232   */\n      tag_529\n        /* \"#utility.yul\":19227:19231   */\n      dup2\n        /* \"#utility.yul\":19101:19232   */\n      tag_330\n      jump\t// in\n    tag_529:\n        /* \"#utility.yul\":19093:19232   */\n      swap1\n      pop\n        /* \"#utility.yul\":18820:19239   */\n      swap2\n      swap1\n      pop\n      jump\t// out\n        /* \"#utility.yul\":19245:19393   */\n    tag_331:\n        /* \"#utility.yul\":19347:19358   */\n      0x00\n        /* \"#utility.yul\":19384:19387   */\n      dup2\n        /* \"#utility.yul\":19369:19387   */\n      swap1\n      pop\n        /* \"#utility.yul\":19245:19393   */\n      swap3\n      swap2\n      pop\n      pop\n      jump\t// out\n        /* \"#utility.yul\":19399:19776   */\n    tag_332:\n        /* \"#utility.yul\":19505:19508   */\n      0x00\n        /* \"#utility.yul\":19533:19572   */\n      tag_532\n        /* \"#utility.yul\":19566:19571   */\n      dup3\n        /* \"#utility.yul\":19533:19572   */\n      tag_290\n      jump\t// in\n    tag_532:\n        /* \"#utility.yul\":19588:19677   */\n      tag_533\n        /* \"#utility.yul\":19670:19676   */\n      dup2\n        /* \"#utility.yul\":19665:19668   */\n      dup6\n        /* \"#utility.yul\":19588:19677   */\n      tag_331\n      jump\t// in\n    tag_533:\n        /* \"#utility.yul\":19581:19677   */\n      swap4\n      pop\n        /* \"#utility.yul\":19686:19738   */\n      tag_534\n        /* \"#utility.yul\":19731:19737   */\n      dup2\n        /* \"#utility.yul\":19726:19729   */\n      dup6\n        /* \"#utility.yul\":19719:19723   */\n      0x20\n        /* \"#utility.yul\":19712:19717   */\n      dup7\n        /* \"#utility.yul\":19708:19724   */\n      add\n        /* \"#utility.yul\":19686:19738   */\n      tag_292\n      jump\t// in\n    tag_534:\n        /* \"#utility.yul\":19763:19769   */\n      dup1\n        /* \"#utility.yul\":19758:19761   */\n      dup5\n        /* \"#utility.yul\":19754:19770   */\n      add\n        /* \"#utility.yul\":19747:19770   */\n      swap2\n      pop\n        /* \"#utility.yul\":19509:19776   */\n      pop\n        /* \"#utility.yul\":19399:19776   */\n      swap3\n      swap2\n      pop\n      pop\n      jump\t// out\n        /* \"#utility.yul\":19782:20217   */\n    tag_178:\n        /* \"#utility.yul\":19962:19965   */\n      0x00\n        /* \"#utility.yul\":19984:20079   */\n      tag_536\n        /* \"#utility.yul\":20075:20078   */\n      dup3\n        /* \"#utility.yul\":20066:20072   */\n      dup6\n        /* \"#utility.yul\":19984:20079   */\n      tag_332\n      jump\t// in\n    tag_536:\n        /* \"#utility.yul\":19977:20079   */\n      swap2\n      pop\n        /* \"#utility.yul\":20096:20191   */\n      tag_537\n        /* \"#utility.yul\":20187:20190   */\n      dup3\n        /* \"#utility.yul\":20178:20184   */\n      dup5\n        /* \"#utility.yul\":20096:20191   */\n      tag_332\n      jump\t// in\n    tag_537:\n        /* \"#utility.yul\":20089:20191   */\n      swap2\n      pop\n        /* \"#utility.yul\":20208:20211   */\n      dup2\n        /* \"#utility.yul\":20201:20211   */\n      swap1\n      pop\n        /* \"#utility.yul\":19782:20217   */\n      swap4\n      swap3\n      pop\n      pop\n      pop\n      jump\t// out\n        /* \"#utility.yul\":20223:20405   */\n    tag_333:\n        /* \"#utility.yul\":20363:20397   */\n      0x4552433732313a206d696e7420746f20746865207a65726f2061646472657373\n        /* \"#utility.yul\":20359:20360   */\n      0x00\n        /* \"#utility.yul\":20351:20357   */\n      dup3\n        /* \"#utility.yul\":20347:20361   */\n      add\n        /* \"#utility.yul\":20340:20398   */\n      mstore\n        /* \"#utility.yul\":20223:20405   */\n      pop\n      jump\t// out\n        /* \"#utility.yul\":20411:20777   */\n    tag_334:\n        /* \"#utility.yul\":20553:20556   */\n      0x00\n        /* \"#utility.yul\":20574:20641   */\n      tag_540\n        /* \"#utility.yul\":20638:20640   */\n      0x20\n        /* \"#utility.yul\":20633:20636   */\n      dup4\n        /* \"#utility.yul\":20574:20641   */\n      tag_291\n      jump\t// in\n    tag_540:\n        /* \"#utility.yul\":20567:20641   */\n      swap2\n      pop\n        /* \"#utility.yul\":20650:20743   */\n      tag_541\n        /* \"#utility.yul\":20739:20742   */\n      dup3\n        /* \"#utility.yul\":20650:20743   */\n      tag_333\n      jump\t// in\n    tag_541:\n        /* \"#utility.yul\":20768:20770   */\n      0x20\n        /* \"#utility.yul\":20763:20766   */\n      dup3\n        /* \"#utility.yul\":20759:20771   */\n      add\n        /* \"#utility.yul\":20752:20771   */\n      swap1\n      pop\n        /* \"#utility.yul\":20411:20777   */\n      swap2\n      swap1\n      pop\n      jump\t// out\n        /* \"#utility.yul\":20783:21202   */\n    tag_188:\n        /* \"#utility.yul\":20949:20953   */\n      0x00\n        /* \"#utility.yul\":20987:20989   */\n      0x20\n        /* \"#utility.yul\":20976:20985   */\n      dup3\n        /* \"#utility.yul\":20972:20990   */\n      add\n        /* \"#utility.yul\":20964:20990   */\n      swap1\n      pop\n        /* \"#utility.yul\":21036:21045   */\n      dup2\n        /* \"#utility.yul\":21030:21034   */\n      dup2\n        /* \"#utility.yul\":21026:21046   */\n      sub\n        /* \"#utility.yul\":21022:21023   */\n      0x00\n        /* \"#utility.yul\":21011:21020   */\n      dup4\n        /* \"#utility.yul\":21007:21024   */\n      add\n        /* \"#utility.yul\":21000:21047   */\n      mstore\n        /* \"#utility.yul\":21064:21195   */\n      tag_543\n        /* \"#utility.yul\":21190:21194   */\n      dup2\n        /* \"#utility.yul\":21064:21195   */\n      tag_334\n      jump\t// in\n    tag_543:\n        /* \"#utility.yul\":21056:21195   */\n      swap1\n      pop\n        /* \"#utility.yul\":20783:21202   */\n      swap2\n      swap1\n      pop\n      jump\t// out\n        /* \"#utility.yul\":21208:21386   */\n    tag_335:\n        /* \"#utility.yul\":21348:21378   */\n      0x4552433732313a20746f6b656e20616c7265616479206d696e74656400000000\n        /* \"#utility.yul\":21344:21345   */\n      0x00\n        /* \"#utility.yul\":21336:21342   */\n      dup3\n        /* \"#utility.yul\":21332:21346   */\n      add\n        /* \"#utility.yul\":21325:21379   */\n      mstore\n        /* \"#utility.yul\":21208:21386   */\n      pop\n      jump\t// out\n        /* \"#utility.yul\":21392:21758   */\n    tag_336:\n        /* \"#utility.yul\":21534:21537   */\n      0x00\n        /* \"#utility.yul\":21555:21622   */\n      tag_546\n        /* \"#utility.yul\":21619:21621   */\n      0x1c\n        /* \"#utility.yul\":21614:21617   */\n      dup4\n        /* \"#utility.yul\":21555:21622   */\n      tag_291\n      jump\t// in\n    tag_546:\n        /* \"#utility.yul\":21548:21622   */\n      swap2\n      pop\n        /* \"#utility.yul\":21631:21724   */\n      tag_547\n        /* \"#utility.yul\":21720:21723   */\n      dup3\n        /* \"#utility.yul\":21631:21724   */\n      tag_335\n      jump\t// in\n    tag_547:\n        /* \"#utility.yul\":21749:21751   */\n      0x20\n        /* \"#utility.yul\":21744:21747   */\n      dup3\n        /* \"#utility.yul\":21740:21752   */\n      add\n        /* \"#utility.yul\":21733:21752   */\n      swap1\n      pop\n        /* \"#utility.yul\":21392:21758   */\n      swap2\n      swap1\n      pop\n      jump\t// out\n        /* \"#utility.yul\":21764:22183   */\n    tag_192:\n        /* \"#utility.yul\":21930:21934   */\n      0x00\n        /* \"#utility.yul\":21968:21970   */\n      0x20\n        /* \"#utility.yul\":21957:21966   */\n      dup3\n        /* \"#utility.yul\":21953:21971   */\n      add\n        /* \"#utility.yul\":21945:21971   */\n      swap1\n      pop\n        /* \"#utility.yul\":22017:22026   */\n      dup2\n        /* \"#utility.yul\":22011:22015   */\n      dup2\n        /* \"#utility.yul\":22007:22027   */\n      sub\n        /* \"#utility.yul\":22003:22004   */\n      0x00\n        /* \"#utility.yul\":21992:22001   */\n      dup4\n        /* \"#utility.yul\":21988:22005   */\n      add\n        /* \"#utility.yul\":21981:22028   */\n      mstore\n        /* \"#utility.yul\":22045:22176   */\n      tag_549\n        /* \"#utility.yul\":22171:22175   */\n      dup2\n        /* \"#utility.yul\":22045:22176   */\n      tag_336\n      jump\t// in\n    tag_549:\n        /* \"#utility.yul\":22037:22176   */\n      swap1\n      pop\n        /* \"#utility.yul\":21764:22183   */\n      swap2\n      swap1\n      pop\n      jump\t// out\n        /* \"#utility.yul\":22189:22369   */\n    tag_337:\n        /* \"#utility.yul\":22237:22314   */\n      0x4e487b7100000000000000000000000000000000000000000000000000000000\n        /* \"#utility.yul\":22234:22235   */\n      0x00\n        /* \"#utility.yul\":22227:22315   */\n      mstore\n        /* \"#utility.yul\":22334:22338   */\n      0x11\n        /* \"#utility.yul\":22331:22332   */\n      0x04\n        /* \"#utility.yul\":22324:22339   */\n      mstore\n        /* \"#utility.yul\":22358:22362   */\n      0x24\n        /* \"#utility.yul\":22355:22356   */\n      0x00\n        /* \"#utility.yul\":22348:22363   */\n      revert\n        /* \"#utility.yul\":22375:22680   */\n    tag_196:\n        /* \"#utility.yul\":22415:22418   */\n      0x00\n        /* \"#utility.yul\":22434:22454   */\n      tag_552\n        /* \"#utility.yul\":22452:22453   */\n      dup3\n        /* \"#utility.yul\":22434:22454   */\n      tag_295\n      jump\t// in\n    tag_552:\n        /* \"#utility.yul\":22429:22454   */\n      swap2\n      pop\n        /* \"#utility.yul\":22468:22488   */\n      tag_553\n        /* \"#utility.yul\":22486:22487   */\n      dup4\n        /* \"#utility.yul\":22468:22488   */\n      tag_295\n      jump\t// in\n    tag_553:\n        /* \"#utility.yul\":22463:22488   */\n      swap3\n      pop\n        /* \"#utility.yul\":22622:22623   */\n      dup3\n        /* \"#utility.yul\":22554:22620   */\n      0xffffffffffffffffffffffffffffffffffffffffffffffffffffffffffffffff\n        /* \"#utility.yul\":22550:22624   */\n      sub\n        /* \"#utility.yul\":22547:22548   */\n      dup3\n        /* \"#utility.yul\":22544:22625   */\n      gt\n        /* \"#utility.yul\":22541:22648   */\n      iszero\n      tag_554\n      jumpi\n        /* \"#utility.yul\":22628:22646   */\n      tag_555\n      tag_337\n      jump\t// in\n    tag_555:\n        /* \"#utility.yul\":22541:22648   */\n    tag_554:\n        /* \"#utility.yul\":22672:22673   */\n      dup3\n        /* \"#utility.yul\":22669:22670   */\n      dup3\n        /* \"#utility.yul\":22665:22674   */\n      add\n        /* \"#utility.yul\":22658:22674   */\n      swap1\n      pop\n        /* \"#utility.yul\":22375:22680   */\n      swap3\n      swap2\n      pop\n      pop\n      jump\t// out\n        /* \"#utility.yul\":22686:22917   */\n    tag_338:\n        /* \"#utility.yul\":22826:22860   */\n      0x4552433732313a206f70657261746f7220717565727920666f72206e6f6e6578\n        /* \"#utility.yul\":22822:22823   */\n      0x00\n        /* \"#utility.yul\":22814:22820   */\n      dup3\n        /* \"#utility.yul\":22810:22824   */\n      add\n        /* \"#utility.yul\":22803:22861   */\n      mstore\n        /* \"#utility.yul\":22895:22909   */\n      0x697374656e7420746f6b656e0000000000000000000000000000000000000000\n        /* \"#utility.yul\":22890:22892   */\n      0x20\n        /* \"#utility.yul\":22882:22888   */\n      dup3\n        /* \"#utility.yul\":22878:22893   */\n      add\n        /* \"#utility.yul\":22871:22910   */\n      mstore\n        /* \"#utility.yul\":22686:22917   */\n      pop\n      jump\t// out\n        /* \"#utility.yul\":22923:23289   */\n    tag_339:\n        /* \"#utility.yul\":23065:23068   */\n      0x00\n        /* \"#utility.yul\":23086:23153   */\n      tag_558\n        /* \"#utility.yul\":23150:23152   */\n      0x2c\n        /* \"#utility.yul\":23145:23148   */\n      dup4\n        /* \"#utility.yul\":23086:23153   */\n      tag_291\n      jump\t// in\n    tag_558:\n        /* \"#utility.yul\":23079:23153   */\n      swap2\n      pop\n        /* \"#utility.yul\":23162:23255   */\n      tag_559\n        /* \"#utility.yul\":23251:23254   */\n      dup3\n        /* \"#utility.yul\":23162:23255   */\n      tag_338\n      jump\t// in\n    tag_559:\n        /* \"#utility.yul\":23280:23282   */\n      0x40\n        /* \"#utility.yul\":23275:23278   */\n      dup3\n        /* \"#utility.yul\":23271:23283   */\n      add\n        /* \"#utility.yul\":23264:23283   */\n      swap1\n      pop\n        /* \"#utility.yul\":22923:23289   */\n      swap2\n      swap1\n      pop\n      jump\t// out\n        /* \"#utility.yul\":23295:23714   */\n    tag_203:\n        /* \"#utility.yul\":23461:23465   */\n      0x00\n        /* \"#utility.yul\":23499:23501   */\n      0x20\n        /* \"#utility.yul\":23488:23497   */\n      dup3\n        /* \"#utility.yul\":23484:23502   */\n      add\n        /* \"#utility.yul\":23476:23502   */\n      swap1\n      pop\n        /* \"#utility.yul\":23548:23557   */\n      dup2\n        /* \"#utility.yul\":23542:23546   */\n      dup2\n        /* \"#utility.yul\":23538:23558   */\n      sub\n        /* \"#utility.yul\":23534:23535   */\n      0x00\n        /* \"#utility.yul\":23523:23532   */\n      dup4\n        /* \"#utility.yul\":23519:23536   */\n      add\n        /* \"#utility.yul\":23512:23559   */\n      mstore\n        /* \"#utility.yul\":23576:23707   */\n      tag_561\n        /* \"#utility.yul\":23702:23706   */\n      dup2\n        /* \"#utility.yul\":23576:23707   */\n      tag_339\n      jump\t// in\n    tag_561:\n        /* \"#utility.yul\":23568:23707   */\n      swap1\n      pop\n        /* \"#utility.yul\":23295:23714   */\n      swap2\n      swap1\n      pop\n      jump\t// out\n        /* \"#utility.yul\":23720:23944   */\n    tag_340:\n        /* \"#utility.yul\":23860:23894   */\n      0x4552433732313a207472616e736665722066726f6d20696e636f727265637420\n        /* \"#utility.yul\":23856:23857   */\n      0x00\n        /* \"#utility.yul\":23848:23854   */\n      dup3\n        /* \"#utility.yul\":23844:23858   */\n      add\n        /* \"#utility.yul\":23837:23895   */\n      mstore\n        /* \"#utility.yul\":23929:23936   */\n      0x6f776e6572000000000000000000000000000000000000000000000000000000\n        /* \"#utility.yul\":23924:23926   */\n      0x20\n        /* \"#utility.yul\":23916:23922   */\n      dup3\n        /* \"#utility.yul\":23912:23927   */\n      add\n        /* \"#utility.yul\":23905:23937   */\n      mstore\n        /* \"#utility.yul\":23720:23944   */\n      pop\n      jump\t// out\n        /* \"#utility.yul\":23950:24316   */\n    tag_341:\n        /* \"#utility.yul\":24092:24095   */\n      0x00\n        /* \"#utility.yul\":24113:24180   */\n      tag_564\n        /* \"#utility.yul\":24177:24179   */\n      0x25\n        /* \"#utility.yul\":24172:24175   */\n      dup4\n        /* \"#utility.yul\":24113:24180   */\n      tag_291\n      jump\t// in\n    tag_564:\n        /* \"#utility.yul\":24106:24180   */\n      swap2\n      pop\n        /* \"#utility.yul\":24189:24282   */\n      tag_565\n        /* \"#utility.yul\":24278:24281   */\n      dup3\n        /* \"#utility.yul\":24189:24282   */\n      tag_340\n      jump\t// in\n    tag_565:\n        /* \"#utility.yul\":24307:24309   */\n      0x40\n        /* \"#utility.yul\":24302:24305   */\n      dup3\n        /* \"#utility.yul\":24298:24310   */\n      add\n        /* \"#utility.yul\":24291:24310   */\n      swap1\n      pop\n        /* \"#utility.yul\":23950:24316   */\n      swap2\n      swap1\n      pop\n      jump\t// out\n        /* \"#utility.yul\":24322:24741   */\n    tag_213:\n        /* \"#utility.yul\":24488:24492   */\n      0x00\n        /* \"#utility.yul\":24526:24528   */\n      0x20\n        /* \"#utility.yul\":24515:24524   */\n      dup3\n        /* \"#utility.yul\":24511:24529   */\n      add\n        /* \"#utility.yul\":24503:24529   */\n      swap1\n      pop\n        /* \"#utility.yul\":24575:24584   */\n      dup2\n        /* \"#utility.yul\":24569:24573   */\n      dup2\n        /* \"#utility.yul\":24565:24585   */\n      sub\n        /* \"#utility.yul\":24561:24562   */\n      0x00\n        /* \"#utility.yul\":24550:24559   */\n      dup4\n        /* \"#utility.yul\":24546:24563   */\n      add\n        /* \"#utility.yul\":24539:24586   */\n      mstore\n        /* \"#utility.yul\":24603:24734   */\n      tag_567\n        /* \"#utility.yul\":24729:24733   */\n      dup2\n        /* \"#utility.yul\":24603:24734   */\n      tag_341\n      jump\t// in\n    tag_567:\n        /* \"#utility.yul\":24595:24734   */\n      swap1\n      pop\n        /* \"#utility.yul\":24322:24741   */\n      swap2\n      swap1\n      pop\n      jump\t// out\n        /* \"#utility.yul\":24747:24970   */\n    tag_342:\n        /* \"#utility.yul\":24887:24921   */\n      0x4552433732313a207472616e7366657220746f20746865207a65726f20616464\n        /* \"#utility.yul\":24883:24884   */\n      0x00\n        /* \"#utility.yul\":24875:24881   */\n      dup3\n        /* \"#utility.yul\":24871:24885   */\n      add\n        /* \"#utility.yul\":24864:24922   */\n      mstore\n        /* \"#utility.yul\":24956:24962   */\n      0x7265737300000000000000000000000000000000000000000000000000000000\n        /* \"#utility.yul\":24951:24953   */\n      0x20\n        /* \"#utility.yul\":24943:24949   */\n      dup3\n        /* \"#utility.yul\":24939:24954   */\n      add\n        /* \"#utility.yul\":24932:24963   */\n      mstore\n        /* \"#utility.yul\":24747:24970   */\n      pop\n      jump\t// out\n        /* \"#utility.yul\":24976:25342   */\n    tag_343:\n        /* \"#utility.yul\":25118:25121   */\n      0x00\n        /* \"#utility.yul\":25139:25206   */\n      tag_570\n        /* \"#utility.yul\":25203:25205   */\n      0x24\n        /* \"#utility.yul\":25198:25201   */\n      dup4\n        /* \"#utility.yul\":25139:25206   */\n      tag_291\n      jump\t// in\n    tag_570:\n        /* \"#utility.yul\":25132:25206   */\n      swap2\n      pop\n        /* \"#utility.yul\":25215:25308   */\n      tag_571\n        /* \"#utility.yul\":25304:25307   */\n      dup3\n        /* \"#utility.yul\":25215:25308   */\n      tag_342\n      jump\t// in\n    tag_571:\n        /* \"#utility.yul\":25333:25335   */\n      0x40\n        /* \"#utility.yul\":25328:25331   */\n      dup3\n        /* \"#utility.yul\":25324:25336   */\n      add\n        /* \"#utility.yul\":25317:25336   */\n      swap1\n      pop\n        /* \"#utility.yul\":24976:25342   */\n      swap2\n      swap1\n      pop\n      jump\t// out\n        /* \"#utility.yul\":25348:25767   */\n    tag_216:\n        /* \"#utility.yul\":25514:25518   */\n      0x00\n        /* \"#utility.yul\":25552:25554   */\n      0x20\n        /* \"#utility.yul\":25541:25550   */\n      dup3\n        /* \"#utility.yul\":25537:25555   */\n      add\n        /* \"#utility.yul\":25529:25555   */\n      swap1\n      pop\n        /* \"#utility.yul\":25601:25610   */\n      dup2\n        /* \"#utility.yul\":25595:25599   */\n      dup2\n        /* \"#utility.yul\":25591:25611   */\n      sub\n        /* \"#utility.yul\":25587:25588   */\n      0x00\n        /* \"#utility.yul\":25576:25585   */\n      dup4\n        /* \"#utility.yul\":25572:25589   */\n      add\n        /* \"#utility.yul\":25565:25612   */\n      mstore\n        /* \"#utility.yul\":25629:25760   */\n      tag_573\n        /* \"#utility.yul\":25755:25759   */\n      dup2\n        /* \"#utility.yul\":25629:25760   */\n      tag_343\n      jump\t// in\n    tag_573:\n        /* \"#utility.yul\":25621:25760   */\n      swap1\n      pop\n        /* \"#utility.yul\":25348:25767   */\n      swap2\n      swap1\n      pop\n      jump\t// out\n        /* \"#utility.yul\":25773:25964   */\n    tag_220:\n        /* \"#utility.yul\":25813:25817   */\n      0x00\n        /* \"#utility.yul\":25833:25853   */\n      tag_575\n        /* \"#utility.yul\":25851:25852   */\n      dup3\n        /* \"#utility.yul\":25833:25853   */\n      tag_295\n      jump\t// in\n    tag_575:\n        /* \"#utility.yul\":25828:25853   */\n      swap2\n      pop\n        /* \"#utility.yul\":25867:25887   */\n      tag_576\n        /* \"#utility.yul\":25885:25886   */\n      dup4\n        /* \"#utility.yul\":25867:25887   */\n      tag_295\n      jump\t// in\n    tag_576:\n        /* \"#utility.yul\":25862:25887   */\n      swap3\n      pop\n        /* \"#utility.yul\":25906:25907   */\n      dup3\n        /* \"#utility.yul\":25903:25904   */\n      dup3\n        /* \"#utility.yul\":25900:25908   */\n      lt\n        /* \"#utility.yul\":25897:25931   */\n      iszero\n      tag_577\n      jumpi\n        /* \"#utility.yul\":25911:25929   */\n      tag_578\n      tag_337\n      jump\t// in\n    tag_578:\n        /* \"#utility.yul\":25897:25931   */\n    tag_577:\n        /* \"#utility.yul\":25956:25957   */\n      dup3\n        /* \"#utility.yul\":25953:25954   */\n      dup3\n        /* \"#utility.yul\":25949:25958   */\n      sub\n        /* \"#utility.yul\":25941:25958   */\n      swap1\n      pop\n        /* \"#utility.yul\":25773:25964   */\n      swap3\n      swap2\n      pop\n      pop\n      jump\t// out\n        /* \"#utility.yul\":25970:26145   */\n    tag_344:\n        /* \"#utility.yul\":26110:26137   */\n      0x4552433732313a20617070726f766520746f2063616c6c657200000000000000\n        /* \"#utility.yul\":26106:26107   */\n      0x00\n        /* \"#utility.yul\":26098:26104   */\n      dup3\n        /* \"#utility.yul\":26094:26108   */\n      add\n        /* \"#utility.yul\":26087:26138   */\n      mstore\n        /* \"#utility.yul\":25970:26145   */\n      pop\n      jump\t// out\n        /* \"#utility.yul\":26151:26517   */\n    tag_345:\n        /* \"#utility.yul\":26293:26296   */\n      0x00\n        /* \"#utility.yul\":26314:26381   */\n      tag_581\n        /* \"#utility.yul\":26378:26380   */\n      0x19\n        /* \"#utility.yul\":26373:26376   */\n      dup4\n        /* \"#utility.yul\":26314:26381   */\n      tag_291\n      jump\t// in\n    tag_581:\n        /* \"#utility.yul\":26307:26381   */\n      swap2\n      pop\n        /* \"#utility.yul\":26390:26483   */\n      tag_582\n        /* \"#utility.yul\":26479:26482   */\n      dup3\n        /* \"#utility.yul\":26390:26483   */\n      tag_344\n      jump\t// in\n    tag_582:\n        /* \"#utility.yul\":26508:26510   */\n      0x20\n        /* \"#utility.yul\":26503:26506   */\n      dup3\n        /* \"#utility.yul\":26499:26511   */\n      add\n        /* \"#utility.yul\":26492:26511   */\n      swap1\n      pop\n        /* \"#utility.yul\":26151:26517   */\n      swap2\n      swap1\n      pop\n      jump\t// out\n        /* \"#utility.yul\":26523:26942   */\n    tag_226:\n        /* \"#utility.yul\":26689:26693   */\n      0x00\n        /* \"#utility.yul\":26727:26729   */\n      0x20\n        /* \"#utility.yul\":26716:26725   */\n      dup3\n        /* \"#utility.yul\":26712:26730   */\n      add\n        /* \"#utility.yul\":26704:26730   */\n      swap1\n      pop\n        /* \"#utility.yul\":26776:26785   */\n      dup2\n        /* \"#utility.yul\":26770:26774   */\n      dup2\n        /* \"#utility.yul\":26766:26786   */\n      sub\n        /* \"#utility.yul\":26762:26763   */\n      0x00\n        /* \"#utility.yul\":26751:26760   */\n      dup4\n        /* \"#utility.yul\":26747:26764   */\n      add\n        /* \"#utility.yul\":26740:26787   */\n      mstore\n        /* \"#utility.yul\":26804:26935   */\n      tag_584\n        /* \"#utility.yul\":26930:26934   */\n      dup2\n        /* \"#utility.yul\":26804:26935   */\n      tag_345\n      jump\t// in\n    tag_584:\n        /* \"#utility.yul\":26796:26935   */\n      swap1\n      pop\n        /* \"#utility.yul\":26523:26942   */\n      swap2\n      swap1\n      pop\n      jump\t// out\n        /* \"#utility.yul\":26948:27185   */\n    tag_346:\n        /* \"#utility.yul\":27088:27122   */\n      0x4552433732313a207472616e7366657220746f206e6f6e204552433732315265\n        /* \"#utility.yul\":27084:27085   */\n      0x00\n        /* \"#utility.yul\":27076:27082   */\n      dup3\n        /* \"#utility.yul\":27072:27086   */\n      add\n        /* \"#utility.yul\":27065:27123   */\n      mstore\n        /* \"#utility.yul\":27157:27177   */\n      0x63656976657220696d706c656d656e7465720000000000000000000000000000\n        /* \"#utility.yul\":27152:27154   */\n      0x20\n        /* \"#utility.yul\":27144:27150   */\n      dup3\n        /* \"#utility.yul\":27140:27155   */\n      add\n        /* \"#utility.yul\":27133:27178   */\n      mstore\n        /* \"#utility.yul\":26948:27185   */\n      pop\n      jump\t// out\n        /* \"#utility.yul\":27191:27557   */\n    tag_347:\n        /* \"#utility.yul\":27333:27336   */\n      0x00\n        /* \"#utility.yul\":27354:27421   */\n      tag_587\n        /* \"#utility.yul\":27418:27420   */\n      0x32\n        /* \"#utility.yul\":27413:27416   */\n      dup4\n        /* \"#utility.yul\":27354:27421   */\n      tag_291\n      jump\t// in\n    tag_587:\n        /* \"#utility.yul\":27347:27421   */\n      swap2\n      pop\n        /* \"#utility.yul\":27430:27523   */\n      tag_588\n        /* \"#utility.yul\":27519:27522   */\n      dup3\n        /* \"#utility.yul\":27430:27523   */\n      tag_346\n      jump\t// in\n    tag_588:\n        /* \"#utility.yul\":27548:27550   */\n      0x40\n        /* \"#utility.yul\":27543:27546   */\n      dup3\n        /* \"#utility.yul\":27539:27551   */\n      add\n        /* \"#utility.yul\":27532:27551   */\n      swap1\n      pop\n        /* \"#utility.yul\":27191:27557   */\n      swap2\n      swap1\n      pop\n      jump\t// out\n        /* \"#utility.yul\":27563:27982   */\n    tag_234:\n        /* \"#utility.yul\":27729:27733   */\n      0x00\n        /* \"#utility.yul\":27767:27769   */\n      0x20\n        /* \"#utility.yul\":27756:27765   */\n      dup3\n        /* \"#utility.yul\":27752:27770   */\n      add\n        /* \"#utility.yul\":27744:27770   */\n      swap1\n      pop\n        /* \"#utility.yul\":27816:27825   */\n      dup2\n        /* \"#utility.yul\":27810:27814   */\n      dup2\n        /* \"#utility.yul\":27806:27826   */\n      sub\n        /* \"#utility.yul\":27802:27803   */\n      0x00\n        /* \"#utility.yul\":27791:27800   */\n      dup4\n        /* \"#utility.yul\":27787:27804   */\n      add\n        /* \"#utility.yul\":27780:27827   */\n      mstore\n        /* \"#utility.yul\":27844:27975   */\n      tag_590\n        /* \"#utility.yul\":27970:27974   */\n      dup2\n        /* \"#utility.yul\":27844:27975   */\n      tag_347\n      jump\t// in\n    tag_590:\n        /* \"#utility.yul\":27836:27975   */\n      swap1\n      pop\n        /* \"#utility.yul\":27563:27982   */\n      swap2\n      swap1\n      pop\n      jump\t// out\n        /* \"#utility.yul\":27988:28221   */\n    tag_241:\n        /* \"#utility.yul\":28027:28030   */\n      0x00\n        /* \"#utility.yul\":28050:28074   */\n      tag_592\n        /* \"#utility.yul\":28068:28073   */\n      dup3\n        /* \"#utility.yul\":28050:28074   */\n      tag_295\n      jump\t// in\n    tag_592:\n        /* \"#utility.yul\":28041:28074   */\n      swap2\n      pop\n        /* \"#utility.yul\":28096:28162   */\n      0xffffffffffffffffffffffffffffffffffffffffffffffffffffffffffffffff\n        /* \"#utility.yul\":28089:28094   */\n      dup3\n        /* \"#utility.yul\":28086:28163   */\n      sub\n        /* \"#utility.yul\":28083:28186   */\n      tag_593\n      jumpi\n        /* \"#utility.yul\":28166:28184   */\n      tag_594\n      tag_337\n      jump\t// in\n    tag_594:\n        /* \"#utility.yul\":28083:28186   */\n    tag_593:\n        /* \"#utility.yul\":28213:28214   */\n      0x01\n        /* \"#utility.yul\":28206:28211   */\n      dup3\n        /* \"#utility.yul\":28202:28215   */\n      add\n        /* \"#utility.yul\":28195:28215   */\n      swap1\n      pop\n        /* \"#utility.yul\":27988:28221   */\n      swap2\n      swap1\n      pop\n      jump\t// out\n        /* \"#utility.yul\":28227:28407   */\n    tag_348:\n        /* \"#utility.yul\":28275:28352   */\n      0x4e487b7100000000000000000000000000000000000000000000000000000000\n        /* \"#utility.yul\":28272:28273   */\n      0x00\n        /* \"#utility.yul\":28265:28353   */\n      mstore\n        /* \"#utility.yul\":28372:28376   */\n      0x12\n        /* \"#utility.yul\":28369:28370   */\n      0x04\n        /* \"#utility.yul\":28362:28377   */\n      mstore\n        /* \"#utility.yul\":28396:28400   */\n      0x24\n        /* \"#utility.yul\":28393:28394   */\n      0x00\n        /* \"#utility.yul\":28386:28401   */\n      revert\n        /* \"#utility.yul\":28413:28598   */\n    tag_243:\n        /* \"#utility.yul\":28453:28454   */\n      0x00\n        /* \"#utility.yul\":28470:28490   */\n      tag_597\n        /* \"#utility.yul\":28488:28489   */\n      dup3\n        /* \"#utility.yul\":28470:28490   */\n      tag_295\n      jump\t// in\n    tag_597:\n        /* \"#utility.yul\":28465:28490   */\n      swap2\n      pop\n        /* \"#utility.yul\":28504:28524   */\n      tag_598\n        /* \"#utility.yul\":28522:28523   */\n      dup4\n        /* \"#utility.yul\":28504:28524   */\n      tag_295\n      jump\t// in\n    tag_598:\n        /* \"#utility.yul\":28499:28524   */\n      swap3\n      pop\n        /* \"#utility.yul\":28543:28544   */\n      dup3\n        /* \"#utility.yul\":28533:28568   */\n      tag_599\n      jumpi\n        /* \"#utility.yul\":28548:28566   */\n      tag_600\n      tag_348\n      jump\t// in\n    tag_600:\n        /* \"#utility.yul\":28533:28568   */\n    tag_599:\n        /* \"#utility.yul\":28590:28591   */\n      dup3\n        /* \"#utility.yul\":28587:28588   */\n      dup3\n        /* \"#utility.yul\":28583:28592   */\n      div\n        /* \"#utility.yul\":28578:28592   */\n      swap1\n      pop\n        /* \"#utility.yul\":28413:28598   */\n      swap3\n      swap2\n      pop\n      pop\n      jump\t// out\n        /* \"#utility.yul\":28604:28780   */\n    tag_252:\n        /* \"#utility.yul\":28636:28637   */\n      0x00\n        /* \"#utility.yul\":28653:28673   */\n      tag_602\n        /* \"#utility.yul\":28671:28672   */\n      dup3\n        /* \"#utility.yul\":28653:28673   */\n      tag_295\n      jump\t// in\n    tag_602:\n        /* \"#utility.yul\":28648:28673   */\n      swap2\n      pop\n        /* \"#utility.yul\":28687:28707   */\n      tag_603\n        /* \"#utility.yul\":28705:28706   */\n      dup4\n        /* \"#utility.yul\":28687:28707   */\n      tag_295\n      jump\t// in\n    tag_603:\n        /* \"#utility.yul\":28682:28707   */\n      swap3\n      pop\n        /* \"#utility.yul\":28726:28727   */\n      dup3\n        /* \"#utility.yul\":28716:28751   */\n      tag_604\n      jumpi\n        /* \"#utility.yul\":28731:28749   */\n      tag_605\n      tag_348\n      jump\t// in\n    tag_605:\n        /* \"#utility.yul\":28716:28751   */\n    tag_604:\n        /* \"#utility.yul\":28772:28773   */\n      dup3\n        /* \"#utility.yul\":28769:28770   */\n      dup3\n        /* \"#utility.yul\":28765:28774   */\n      mod\n        /* \"#utility.yul\":28760:28774   */\n      swap1\n      pop\n        /* \"#utility.yul\":28604:28780   */\n      swap3\n      swap2\n      pop\n      pop\n      jump\t// out\n        /* \"#utility.yul\":28786:28966   */\n    tag_256:\n        /* \"#utility.yul\":28834:28911   */\n      0x4e487b7100000000000000000000000000000000000000000000000000000000\n        /* \"#utility.yul\":28831:28832   */\n      0x00\n        /* \"#utility.yul\":28824:28912   */\n      mstore\n        /* \"#utility.yul\":28931:28935   */\n      0x32\n        /* \"#utility.yul\":28928:28929   */\n      0x04\n        /* \"#utility.yul\":28921:28936   */\n      mstore\n        /* \"#utility.yul\":28955:28959   */\n      0x24\n        /* \"#utility.yul\":28952:28953   */\n      0x00\n        /* \"#utility.yul\":28945:28960   */\n      revert\n        /* \"#utility.yul\":28972:29070   */\n    tag_349:\n        /* \"#utility.yul\":29023:29029   */\n      0x00\n        /* \"#utility.yul\":29057:29062   */\n      dup2\n        /* \"#utility.yul\":29051:29063   */\n      mload\n        /* \"#utility.yul\":29041:29063   */\n      swap1\n      pop\n        /* \"#utility.yul\":28972:29070   */\n      swap2\n      swap1\n      pop\n      jump\t// out\n        /* \"#utility.yul\":29076:29244   */\n    tag_350:\n        /* \"#utility.yul\":29159:29170   */\n      0x00\n        /* \"#utility.yul\":29193:29199   */\n      dup3\n        /* \"#utility.yul\":29188:29191   */\n      dup3\n        /* \"#utility.yul\":29181:29200   */\n      mstore\n        /* \"#utility.yul\":29233:29237   */\n      0x20\n        /* \"#utility.yul\":29228:29231   */\n      dup3\n        /* \"#utility.yul\":29224:29238   */\n      add\n        /* \"#utility.yul\":29209:29238   */\n      swap1\n      pop\n        /* \"#utility.yul\":29076:29244   */\n      swap3\n      swap2\n      pop\n      pop\n      jump\t// out\n        /* \"#utility.yul\":29250:29610   */\n    tag_351:\n        /* \"#utility.yul\":29336:29339   */\n      0x00\n        /* \"#utility.yul\":29364:29402   */\n      tag_610\n        /* \"#utility.yul\":29396:29401   */\n      dup3\n        /* \"#utility.yul\":29364:29402   */\n      tag_349\n      jump\t// in\n    tag_610:\n        /* \"#utility.yul\":29418:29488   */\n      tag_611\n        /* \"#utility.yul\":29481:29487   */\n      dup2\n        /* \"#utility.yul\":29476:29479   */\n      dup6\n        /* \"#utility.yul\":29418:29488   */\n      tag_350\n      jump\t// in\n    tag_611:\n        /* \"#utility.yul\":29411:29488   */\n      swap4\n      pop\n        /* \"#utility.yul\":29497:29549   */\n      tag_612\n        /* \"#utility.yul\":29542:29548   */\n      dup2\n        /* \"#utility.yul\":29537:29540   */\n      dup6\n        /* \"#utility.yul\":29530:29534   */\n      0x20\n        /* \"#utility.yul\":29523:29528   */\n      dup7\n        /* \"#utility.yul\":29519:29535   */\n      add\n        /* \"#utility.yul\":29497:29549   */\n      tag_292\n      jump\t// in\n    tag_612:\n        /* \"#utility.yul\":29574:29603   */\n      tag_613\n        /* \"#utility.yul\":29596:29602   */\n      dup2\n        /* \"#utility.yul\":29574:29603   */\n      tag_293\n      jump\t// in\n    tag_613:\n        /* \"#utility.yul\":29569:29572   */\n      dup5\n        /* \"#utility.yul\":29565:29604   */\n      add\n        /* \"#utility.yul\":29558:29604   */\n      swap2\n      pop\n        /* \"#utility.yul\":29340:29610   */\n      pop\n        /* \"#utility.yul\":29250:29610   */\n      swap3\n      swap2\n      pop\n      pop\n      jump\t// out\n        /* \"#utility.yul\":29616:30256   */\n    tag_266:\n        /* \"#utility.yul\":29811:29815   */\n      0x00\n        /* \"#utility.yul\":29849:29852   */\n      0x80\n        /* \"#utility.yul\":29838:29847   */\n      dup3\n        /* \"#utility.yul\":29834:29853   */\n      add\n        /* \"#utility.yul\":29826:29853   */\n      swap1\n      pop\n        /* \"#utility.yul\":29863:29934   */\n      tag_615\n        /* \"#utility.yul\":29931:29932   */\n      0x00\n        /* \"#utility.yul\":29920:29929   */\n      dup4\n        /* \"#utility.yul\":29916:29933   */\n      add\n        /* \"#utility.yul\":29907:29913   */\n      dup8\n        /* \"#utility.yul\":29863:29934   */\n      tag_300\n      jump\t// in\n    tag_615:\n        /* \"#utility.yul\":29944:30016   */\n      tag_616\n        /* \"#utility.yul\":30012:30014   */\n      0x20\n        /* \"#utility.yul\":30001:30010   */\n      dup4\n        /* \"#utility.yul\":29997:30015   */\n      add\n        /* \"#utility.yul\":29988:29994   */\n      dup7\n        /* \"#utility.yul\":29944:30016   */\n      tag_300\n      jump\t// in\n    tag_616:\n        /* \"#utility.yul\":30026:30098   */\n      tag_617\n        /* \"#utility.yul\":30094:30096   */\n      0x40\n        /* \"#utility.yul\":30083:30092   */\n      dup4\n        /* \"#utility.yul\":30079:30097   */\n      add\n        /* \"#utility.yul\":30070:30076   */\n      dup6\n        /* \"#utility.yul\":30026:30098   */\n      tag_303\n      jump\t// in\n    tag_617:\n        /* \"#utility.yul\":30145:30154   */\n      dup2\n        /* \"#utility.yul\":30139:30143   */\n      dup2\n        /* \"#utility.yul\":30135:30155   */\n      sub\n        /* \"#utility.yul\":30130:30132   */\n      0x60\n        /* \"#utility.yul\":30119:30128   */\n      dup4\n        /* \"#utility.yul\":30115:30133   */\n      add\n        /* \"#utility.yul\":30108:30156   */\n      mstore\n        /* \"#utility.yul\":30173:30249   */\n      tag_618\n        /* \"#utility.yul\":30244:30248   */\n      dup2\n        /* \"#utility.yul\":30235:30241   */\n      dup5\n        /* \"#utility.yul\":30173:30249   */\n      tag_351\n      jump\t// in\n    tag_618:\n        /* \"#utility.yul\":30165:30249   */\n      swap1\n      pop\n        /* \"#utility.yul\":29616:30256   */\n      swap6\n      swap5\n      pop\n      pop\n      pop\n      pop\n      pop\n      jump\t// out\n        /* \"#utility.yul\":30262:30403   */\n    tag_352:\n        /* \"#utility.yul\":30318:30323   */\n      0x00\n        /* \"#utility.yul\":30349:30355   */\n      dup2\n        /* \"#utility.yul\":30343:30356   */\n      mload\n        /* \"#utility.yul\":30334:30356   */\n      swap1\n      pop\n        /* \"#utility.yul\":30365:30397   */\n      tag_620\n        /* \"#utility.yul\":30391:30396   */\n      dup2\n        /* \"#utility.yul\":30365:30397   */\n      tag_286\n      jump\t// in\n    tag_620:\n        /* \"#utility.yul\":30262:30403   */\n      swap3\n      swap2\n      pop\n      pop\n      jump\t// out\n        /* \"#utility.yul\":30409:30758   */\n    tag_269:\n        /* \"#utility.yul\":30478:30484   */\n      0x00\n        /* \"#utility.yul\":30527:30529   */\n      0x20\n        /* \"#utility.yul\":30515:30524   */\n      dup3\n        /* \"#utility.yul\":30506:30513   */\n      dup5\n        /* \"#utility.yul\":30502:30525   */\n      sub\n        /* \"#utility.yul\":30498:30530   */\n      slt\n        /* \"#utility.yul\":30495:30614   */\n      iszero\n      tag_622\n      jumpi\n        /* \"#utility.yul\":30533:30612   */\n      tag_623\n      tag_283\n      jump\t// in\n    tag_623:\n        /* \"#utility.yul\":30495:30614   */\n    tag_622:\n        /* \"#utility.yul\":30653:30654   */\n      0x00\n        /* \"#utility.yul\":30678:30741   */\n      tag_624\n        /* \"#utility.yul\":30733:30740   */\n      dup5\n        /* \"#utility.yul\":30724:30730   */\n      dup3\n        /* \"#utility.yul\":30713:30722   */\n      dup6\n        /* \"#utility.yul\":30709:30731   */\n      add\n        /* \"#utility.yul\":30678:30741   */\n      tag_352\n      jump\t// in\n    tag_624:\n        /* \"#utility.yul\":30668:30741   */\n      swap2\n      pop\n        /* \"#utility.yul\":30624:30751   */\n      pop\n        /* \"#utility.yul\":30409:30758   */\n      swap3\n      swap2\n      pop\n      pop\n      jump\t// out\n\n    auxdata: 0xa2646970667358221220778644507da78e2a039480f0e1ead8cbbc9c609e403b8f67404610f6f8cd84ba64736f6c634300080e0033\n}\n",
				"bytecode": {
					"linkReferences": {},
					"object": "60806040523480156200001157600080fd5b506040518060400160405280601981526020017f4f6e6c794f776e65724d696e74576974684d6f646966696572000000000000008152506040518060400160405280600881526020017f4f774e46544d4f4400000000000000000000000000000000000000000000000081525081600090805190602001906200009692919062000110565b508060019080519060200190620000af92919062000110565b505050620000c26200010860201b60201c565b600660006101000a81548173ffffffffffffffffffffffffffffffffffffffff021916908373ffffffffffffffffffffffffffffffffffffffff16021790555062000224565b600033905090565b8280546200011e90620001ef565b90600052602060002090601f0160209004810192826200014257600085556200018e565b82601f106200015d57805160ff19168380011785556200018e565b828001600101855582156200018e579182015b828111156200018d57825182559160200191906001019062000170565b5b5090506200019d9190620001a1565b5090565b5b80821115620001bc576000816000905550600101620001a2565b5090565b7f4e487b7100000000000000000000000000000000000000000000000000000000600052602260045260246000fd5b600060028204905060018216806200020857607f821691505b6020821081036200021e576200021d620001c0565b5b50919050565b61283b80620002346000396000f3fe608060405234801561001057600080fd5b50600436106101005760003560e01c806370a0823111610097578063a22cb46511610066578063a22cb46514610299578063b88d4fde146102b5578063c87b56dd146102d1578063e985e9c51461030157610100565b806370a0823114610223578063719414b4146102535780638da5cb5b1461025d57806395d89b411461027b57610100565b806320e3dfee116100d357806320e3dfee1461019f57806323b872dd146101bb57806342842e0e146101d75780636352211e146101f357610100565b806301ffc9a71461010557806306fdde0314610135578063081812fc14610153578063095ea7b314610183575b600080fd5b61011f600480360381019061011a9190611754565b610331565b60405161012c919061179c565b60405180910390f35b61013d610413565b60405161014a9190611850565b60405180910390f35b61016d600480360381019061016891906118a8565b6104a5565b60405161017a9190611916565b60405180910390f35b61019d6004803603810190610198919061195d565b61052a565b005b6101b960048036038101906101b491906118a8565b610641565b005b6101d560048036038101906101d0919061199d565b6106ec565b005b6101f160048036038101906101ec919061199d565b61074c565b005b61020d600480360381019061020891906118a8565b61076c565b60405161021a9190611916565b60405180910390f35b61023d600480360381019061023891906119f0565b61081d565b60405161024a9190611a2c565b60405180910390f35b61025b6108d4565b005b6102656108d6565b6040516102729190611916565b60405180910390f35b6102836108fc565b6040516102909190611850565b60405180910390f35b6102b360048036038101906102ae9190611a73565b61098e565b005b6102cf60048036038101906102ca9190611be8565b6109a4565b005b6102eb60048036038101906102e691906118a8565b610a06565b6040516102f89190611850565b60405180910390f35b61031b60048036038101906103169190611c6b565b610aad565b604051610328919061179c565b60405180910390f35b60007f80ac58cd000000000000000000000000000000000000000000000000000000007bffffffffffffffffffffffffffffffffffffffffffffffffffffffff1916827bffffffffffffffffffffffffffffffffffffffffffffffffffffffff191614806103fc57507f5b5e139f000000000000000000000000000000000000000000000000000000007bffffffffffffffffffffffffffffffffffffffffffffffffffffffff1916827bffffffffffffffffffffffffffffffffffffffffffffffffffffffff1916145b8061040c575061040b82610b41565b5b9050919050565b60606000805461042290611cda565b80601f016020809104026020016040519081016040528092919081815260200182805461044e90611cda565b801561049b5780601f106104705761010080835404028352916020019161049b565b820191906000526020600020905b81548152906001019060200180831161047e57829003601f168201915b5050505050905090565b60006104b082610bab565b6104ef576040517f08c379a00000000000000000000000000000000000000000000000000000000081526004016104e690611d7d565b60405180910390fd5b6004600083815260200190815260200160002060009054906101000a900473ffffffffffffffffffffffffffffffffffffffff169050919050565b60006105358261076c565b90508073ffffffffffffffffffffffffffffffffffffffff168373ffffffffffffffffffffffffffffffffffffffff16036105a5576040517f08c379a000000000000000000000000000000000000000000000000000000000815260040161059c90611e0f565b60405180910390fd5b8073ffffffffffffffffffffffffffffffffffffffff166105c4610c17565b73ffffffffffffffffffffffffffffffffffffffff1614806105f357506105f2816105ed610c17565b610aad565b5b610632576040517f08c379a000000000000000000000000000000000000000000000000000000000815260040161062990611ea1565b60405180910390fd5b61063c8383610c1f565b505050565b610649610c17565b73ffffffffffffffffffffffffffffffffffffffff16600660009054906101000a900473ffffffffffffffffffffffffffffffffffffffff1673ffffffffffffffffffffffffffffffffffffffff16146106d8576040517f08c379a00000000000000000000000000000000000000000000000000000000081526004016106cf90611f0d565b60405180910390fd5b6106e96106e3610c17565b82610cd8565b50565b6106fd6106f7610c17565b82610eb1565b61073c576040517f08c379a000000000000000000000000000000000000000000000000000000000815260040161073390611f9f565b60405180910390fd5b610747838383610f8f565b505050565b610767838383604051806020016040528060008152506109a4565b505050565b6000806002600084815260200190815260200160002060009054906101000a900473ffffffffffffffffffffffffffffffffffffffff169050600073ffffffffffffffffffffffffffffffffffffffff168173ffffffffffffffffffffffffffffffffffffffff1603610814576040517f08c379a000000000000000000000000000000000000000000000000000000000815260040161080b90612031565b60405180910390fd5b80915050919050565b60008073ffffffffffffffffffffffffffffffffffffffff168273ffffffffffffffffffffffffffffffffffffffff160361088d576040517f08c379a0000000000000000000000000000000000000000000000000000000008152600401610884906120c3565b60405180910390fd5b600360008373ffffffffffffffffffffffffffffffffffffffff1673ffffffffffffffffffffffffffffffffffffffff168152602001908152602001600020549050919050565b565b600660009054906101000a900473ffffffffffffffffffffffffffffffffffffffff1681565b60606001805461090b90611cda565b80601f016020809104026020016040519081016040528092919081815260200182805461093790611cda565b80156109845780601f1061095957610100808354040283529160200191610984565b820191906000526020600020905b81548152906001019060200180831161096757829003601f168201915b5050505050905090565b6109a0610999610c17565b83836111f5565b5050565b6109b56109af610c17565b83610eb1565b6109f4576040517f08c379a00000000000000000000000000000000000000000000000000000000081526004016109eb90611f9f565b60405180910390fd5b610a0084848484611361565b50505050565b6060610a1182610bab565b610a50576040517f08c379a0000000000000000000000000000000000000000000000000000000008152600401610a4790612155565b60405180910390fd5b6000610a5a6113bd565b90506000815111610a7a5760405180602001604052806000815250610aa5565b80610a84846113d4565b604051602001610a959291906121b1565b6040516020818303038152906040525b915050919050565b6000600560008473ffffffffffffffffffffffffffffffffffffffff1673ffffffffffffffffffffffffffffffffffffffff16815260200190815260200160002060008373ffffffffffffffffffffffffffffffffffffffff1673ffffffffffffffffffffffffffffffffffffffff16815260200190815260200160002060009054906101000a900460ff16905092915050565b60007f01ffc9a7000000000000000000000000000000000000000000000000000000007bffffffffffffffffffffffffffffffffffffffffffffffffffffffff1916827bffffffffffffffffffffffffffffffffffffffffffffffffffffffff1916149050919050565b60008073ffffffffffffffffffffffffffffffffffffffff166002600084815260200190815260200160002060009054906101000a900473ffffffffffffffffffffffffffffffffffffffff1673ffffffffffffffffffffffffffffffffffffffff1614159050919050565b600033905090565b816004600083815260200190815260200160002060006101000a81548173ffffffffffffffffffffffffffffffffffffffff021916908373ffffffffffffffffffffffffffffffffffffffff160217905550808273ffffffffffffffffffffffffffffffffffffffff16610c928361076c565b73ffffffffffffffffffffffffffffffffffffffff167f8c5be1e5ebec7d5bd14f71427d1e84f3dd0314c0f7b2291e5b200ac8c7c3b92560405160405180910390a45050565b600073ffffffffffffffffffffffffffffffffffffffff168273ffffffffffffffffffffffffffffffffffffffff1603610d47576040517f08c379a0000000000000000000000000000000000000000000000000000000008152600401610d3e90612221565b60405180910390fd5b610d5081610bab565b15610d90576040517f08c379a0000000000000000000000000000000000000000000000000000000008152600401610d879061228d565b60405180910390fd5b610d9c60008383611534565b6001600360008473ffffffffffffffffffffffffffffffffffffffff1673ffffffffffffffffffffffffffffffffffffffff1681526020019081526020016000206000828254610dec91906122dc565b92505081905550816002600083815260200190815260200160002060006101000a81548173ffffffffffffffffffffffffffffffffffffffff021916908373ffffffffffffffffffffffffffffffffffffffff160217905550808273ffffffffffffffffffffffffffffffffffffffff16600073ffffffffffffffffffffffffffffffffffffffff167fddf252ad1be2c89b69c2b068fc378daa952ba7f163c4a11628f55a4df523b3ef60405160405180910390a4610ead60008383611539565b5050565b6000610ebc82610bab565b610efb576040517f08c379a0000000000000000000000000000000000000000000000000000000008152600401610ef2906123a4565b60405180910390fd5b6000610f068361076c565b90508073ffffffffffffffffffffffffffffffffffffffff168473ffffffffffffffffffffffffffffffffffffffff161480610f485750610f478185610aad565b5b80610f8657508373ffffffffffffffffffffffffffffffffffffffff16610f6e846104a5565b73ffffffffffffffffffffffffffffffffffffffff16145b91505092915050565b8273ffffffffffffffffffffffffffffffffffffffff16610faf8261076c565b73ffffffffffffffffffffffffffffffffffffffff1614611005576040517f08c379a0000000000000000000000000000000000000000000000000000000008152600401610ffc90612436565b60405180910390fd5b600073ffffffffffffffffffffffffffffffffffffffff168273ffffffffffffffffffffffffffffffffffffffff1603611074576040517f08c379a000000000000000000000000000000000000000000000000000000000815260040161106b906124c8565b60405180910390fd5b61107f838383611534565b61108a600082610c1f565b6001600360008573ffffffffffffffffffffffffffffffffffffffff1673ffffffffffffffffffffffffffffffffffffffff16815260200190815260200160002060008282546110da91906124e8565b925050819055506001600360008473ffffffffffffffffffffffffffffffffffffffff1673ffffffffffffffffffffffffffffffffffffffff168152602001908152602001600020600082825461113191906122dc565b92505081905550816002600083815260200190815260200160002060006101000a81548173ffffffffffffffffffffffffffffffffffffffff021916908373ffffffffffffffffffffffffffffffffffffffff160217905550808273ffffffffffffffffffffffffffffffffffffffff168473ffffffffffffffffffffffffffffffffffffffff167fddf252ad1be2c89b69c2b068fc378daa952ba7f163c4a11628f55a4df523b3ef60405160405180910390a46111f0838383611539565b505050565b8173ffffffffffffffffffffffffffffffffffffffff168373ffffffffffffffffffffffffffffffffffffffff1603611263576040517f08c379a000000000000000000000000000000000000000000000000000000000815260040161125a90612568565b60405180910390fd5b80600560008573ffffffffffffffffffffffffffffffffffffffff1673ffffffffffffffffffffffffffffffffffffffff16815260200190815260200160002060008473ffffffffffffffffffffffffffffffffffffffff1673ffffffffffffffffffffffffffffffffffffffff16815260200190815260200160002060006101000a81548160ff0219169083151502179055508173ffffffffffffffffffffffffffffffffffffffff168373ffffffffffffffffffffffffffffffffffffffff167f17307eab39ab6107e8899845ad3d59bd9653f200f220920489ca2b5937696c3183604051611354919061179c565b60405180910390a3505050565b61136c848484610f8f565b6113788484848461153e565b6113b7576040517f08c379a00000000000000000000000000000000000000000000000000000000081526004016113ae906125fa565b60405180910390fd5b50505050565b606060405180602001604052806000815250905090565b60606000820361141b576040518060400160405280600181526020017f3000000000000000000000000000000000000000000000000000000000000000815250905061152f565b600082905060005b6000821461144d5780806114369061261a565b915050600a826114469190612691565b9150611423565b60008167ffffffffffffffff81111561146957611468611abd565b5b6040519080825280601f01601f19166020018201604052801561149b5781602001600182028036833780820191505090505b5090505b60008514611528576001826114b491906124e8565b9150600a856114c391906126c2565b60306114cf91906122dc565b60f81b8183815181106114e5576114e46126f3565b5b60200101907effffffffffffffffffffffffffffffffffffffffffffffffffffffffffffff1916908160001a905350600a856115219190612691565b945061149f565b8093505050505b919050565b505050565b505050565b600061155f8473ffffffffffffffffffffffffffffffffffffffff166116c5565b156116b8578373ffffffffffffffffffffffffffffffffffffffff1663150b7a02611588610c17565b8786866040518563ffffffff1660e01b81526004016115aa9493929190612777565b6020604051808303816000875af19250505080156115e657506040513d601f19601f820116820180604052508101906115e391906127d8565b60015b611668573d8060008114611616576040519150601f19603f3d011682016040523d82523d6000602084013e61161b565b606091505b506000815103611660576040517f08c379a0000000000000000000000000000000000000000000000000000000008152600401611657906125fa565b60405180910390fd5b805181602001fd5b63150b7a0260e01b7bffffffffffffffffffffffffffffffffffffffffffffffffffffffff1916817bffffffffffffffffffffffffffffffffffffffffffffffffffffffff1916149150506116bd565b600190505b949350505050565b6000808273ffffffffffffffffffffffffffffffffffffffff163b119050919050565b6000604051905090565b600080fd5b600080fd5b60007fffffffff0000000000000000000000000000000000000000000000000000000082169050919050565b611731816116fc565b811461173c57600080fd5b50565b60008135905061174e81611728565b92915050565b60006020828403121561176a576117696116f2565b5b60006117788482850161173f565b91505092915050565b60008115159050919050565b61179681611781565b82525050565b60006020820190506117b1600083018461178d565b92915050565b600081519050919050565b600082825260208201905092915050565b60005b838110156117f15780820151818401526020810190506117d6565b83811115611800576000848401525b50505050565b6000601f19601f8301169050919050565b6000611822826117b7565b61182c81856117c2565b935061183c8185602086016117d3565b61184581611806565b840191505092915050565b6000602082019050818103600083015261186a8184611817565b905092915050565b6000819050919050565b61188581611872565b811461189057600080fd5b50565b6000813590506118a28161187c565b92915050565b6000602082840312156118be576118bd6116f2565b5b60006118cc84828501611893565b91505092915050565b600073ffffffffffffffffffffffffffffffffffffffff82169050919050565b6000611900826118d5565b9050919050565b611910816118f5565b82525050565b600060208201905061192b6000830184611907565b92915050565b61193a816118f5565b811461194557600080fd5b50565b60008135905061195781611931565b92915050565b60008060408385031215611974576119736116f2565b5b600061198285828601611948565b925050602061199385828601611893565b9150509250929050565b6000806000606084860312156119b6576119b56116f2565b5b60006119c486828701611948565b93505060206119d586828701611948565b92505060406119e686828701611893565b9150509250925092565b600060208284031215611a0657611a056116f2565b5b6000611a1484828501611948565b91505092915050565b611a2681611872565b82525050565b6000602082019050611a416000830184611a1d565b92915050565b611a5081611781565b8114611a5b57600080fd5b50565b600081359050611a6d81611a47565b92915050565b60008060408385031215611a8a57611a896116f2565b5b6000611a9885828601611948565b9250506020611aa985828601611a5e565b9150509250929050565b600080fd5b600080fd5b7f4e487b7100000000000000000000000000000000000000000000000000000000600052604160045260246000fd5b611af582611806565b810181811067ffffffffffffffff82111715611b1457611b13611abd565b5b80604052505050565b6000611b276116e8565b9050611b338282611aec565b919050565b600067ffffffffffffffff821115611b5357611b52611abd565b5b611b5c82611806565b9050602081019050919050565b82818337600083830152505050565b6000611b8b611b8684611b38565b611b1d565b905082815260208101848484011115611ba757611ba6611ab8565b5b611bb2848285611b69565b509392505050565b600082601f830112611bcf57611bce611ab3565b5b8135611bdf848260208601611b78565b91505092915050565b60008060008060808587031215611c0257611c016116f2565b5b6000611c1087828801611948565b9450506020611c2187828801611948565b9350506040611c3287828801611893565b925050606085013567ffffffffffffffff811115611c5357611c526116f7565b5b611c5f87828801611bba565b91505092959194509250565b60008060408385031215611c8257611c816116f2565b5b6000611c9085828601611948565b9250506020611ca185828601611948565b9150509250929050565b7f4e487b7100000000000000000000000000000000000000000000000000000000600052602260045260246000fd5b60006002820490506001821680611cf257607f821691505b602082108103611d0557611d04611cab565b5b50919050565b7f4552433732313a20617070726f76656420717565727920666f72206e6f6e657860008201527f697374656e7420746f6b656e0000000000000000000000000000000000000000602082015250565b6000611d67602c836117c2565b9150611d7282611d0b565b604082019050919050565b60006020820190508181036000830152611d9681611d5a565b9050919050565b7f4552433732313a20617070726f76616c20746f2063757272656e74206f776e6560008201527f7200000000000000000000000000000000000000000000000000000000000000602082015250565b6000611df96021836117c2565b9150611e0482611d9d565b604082019050919050565b60006020820190508181036000830152611e2881611dec565b9050919050565b7f4552433732313a20617070726f76652063616c6c6572206973206e6f74206f7760008201527f6e6572206e6f7220617070726f76656420666f7220616c6c0000000000000000602082015250565b6000611e8b6038836117c2565b9150611e9682611e2f565b604082019050919050565b60006020820190508181036000830152611eba81611e7e565b9050919050565b7f43616c6c6572206973206e6f7420746865206f776e65722e0000000000000000600082015250565b6000611ef76018836117c2565b9150611f0282611ec1565b602082019050919050565b60006020820190508181036000830152611f2681611eea565b9050919050565b7f4552433732313a207472616e736665722063616c6c6572206973206e6f74206f60008201527f776e6572206e6f7220617070726f766564000000000000000000000000000000602082015250565b6000611f896031836117c2565b9150611f9482611f2d565b604082019050919050565b60006020820190508181036000830152611fb881611f7c565b9050919050565b7f4552433732313a206f776e657220717565727920666f72206e6f6e657869737460008201527f656e7420746f6b656e0000000000000000000000000000000000000000000000602082015250565b600061201b6029836117c2565b915061202682611fbf565b604082019050919050565b6000602082019050818103600083015261204a8161200e565b9050919050565b7f4552433732313a2062616c616e636520717565727920666f7220746865207a6560008201527f726f206164647265737300000000000000000000000000000000000000000000602082015250565b60006120ad602a836117c2565b91506120b882612051565b604082019050919050565b600060208201905081810360008301526120dc816120a0565b9050919050565b7f4552433732314d657461646174613a2055524920717565727920666f72206e6f60008201527f6e6578697374656e7420746f6b656e0000000000000000000000000000000000602082015250565b600061213f602f836117c2565b915061214a826120e3565b604082019050919050565b6000602082019050818103600083015261216e81612132565b9050919050565b600081905092915050565b600061218b826117b7565b6121958185612175565b93506121a58185602086016117d3565b80840191505092915050565b60006121bd8285612180565b91506121c98284612180565b91508190509392505050565b7f4552433732313a206d696e7420746f20746865207a65726f2061646472657373600082015250565b600061220b6020836117c2565b9150612216826121d5565b602082019050919050565b6000602082019050818103600083015261223a816121fe565b9050919050565b7f4552433732313a20746f6b656e20616c7265616479206d696e74656400000000600082015250565b6000612277601c836117c2565b915061228282612241565b602082019050919050565b600060208201905081810360008301526122a68161226a565b9050919050565b7f4e487b7100000000000000000000000000000000000000000000000000000000600052601160045260246000fd5b60006122e782611872565b91506122f283611872565b9250827fffffffffffffffffffffffffffffffffffffffffffffffffffffffffffffffff03821115612327576123266122ad565b5b828201905092915050565b7f4552433732313a206f70657261746f7220717565727920666f72206e6f6e657860008201527f697374656e7420746f6b656e0000000000000000000000000000000000000000602082015250565b600061238e602c836117c2565b915061239982612332565b604082019050919050565b600060208201905081810360008301526123bd81612381565b9050919050565b7f4552433732313a207472616e736665722066726f6d20696e636f72726563742060008201527f6f776e6572000000000000000000000000000000000000000000000000000000602082015250565b60006124206025836117c2565b915061242b826123c4565b604082019050919050565b6000602082019050818103600083015261244f81612413565b9050919050565b7f4552433732313a207472616e7366657220746f20746865207a65726f2061646460008201527f7265737300000000000000000000000000000000000000000000000000000000602082015250565b60006124b26024836117c2565b91506124bd82612456565b604082019050919050565b600060208201905081810360008301526124e1816124a5565b9050919050565b60006124f382611872565b91506124fe83611872565b925082821015612511576125106122ad565b5b828203905092915050565b7f4552433732313a20617070726f766520746f2063616c6c657200000000000000600082015250565b60006125526019836117c2565b915061255d8261251c565b602082019050919050565b6000602082019050818103600083015261258181612545565b9050919050565b7f4552433732313a207472616e7366657220746f206e6f6e20455243373231526560008201527f63656976657220696d706c656d656e7465720000000000000000000000000000602082015250565b60006125e46032836117c2565b91506125ef82612588565b604082019050919050565b60006020820190508181036000830152612613816125d7565b9050919050565b600061262582611872565b91507fffffffffffffffffffffffffffffffffffffffffffffffffffffffffffffffff8203612657576126566122ad565b5b600182019050919050565b7f4e487b7100000000000000000000000000000000000000000000000000000000600052601260045260246000fd5b600061269c82611872565b91506126a783611872565b9250826126b7576126b6612662565b5b828204905092915050565b60006126cd82611872565b91506126d883611872565b9250826126e8576126e7612662565b5b828206905092915050565b7f4e487b7100000000000000000000000000000000000000000000000000000000600052603260045260246000fd5b600081519050919050565b600082825260208201905092915050565b600061274982612722565b612753818561272d565b93506127638185602086016117d3565b61276c81611806565b840191505092915050565b600060808201905061278c6000830187611907565b6127996020830186611907565b6127a66040830185611a1d565b81810360608301526127b8818461273e565b905095945050505050565b6000815190506127d281611728565b92915050565b6000602082840312156127ee576127ed6116f2565b5b60006127fc848285016127c3565b9150509291505056fea2646970667358221220778644507da78e2a039480f0e1ead8cbbc9c609e403b8f67404610f6f8cd84ba64736f6c634300080e0033",
					"opcodes": "PUSH1 0x80 PUSH1 0x40 MSTORE CALLVALUE DUP1 ISZERO PUSH3 0x11 JUMPI PUSH1 0x0 DUP1 REVERT JUMPDEST POP PUSH1 0x40 MLOAD DUP1 PUSH1 0x40 ADD PUSH1 0x40 MSTORE DUP1 PUSH1 0x19 DUP2 MSTORE PUSH1 0x20 ADD PUSH32 0x4F6E6C794F776E65724D696E74576974684D6F64696669657200000000000000 DUP2 MSTORE POP PUSH1 0x40 MLOAD DUP1 PUSH1 0x40 ADD PUSH1 0x40 MSTORE DUP1 PUSH1 0x8 DUP2 MSTORE PUSH1 0x20 ADD PUSH32 0x4F774E46544D4F44000000000000000000000000000000000000000000000000 DUP2 MSTORE POP DUP2 PUSH1 0x0 SWAP1 DUP1 MLOAD SWAP1 PUSH1 0x20 ADD SWAP1 PUSH3 0x96 SWAP3 SWAP2 SWAP1 PUSH3 0x110 JUMP JUMPDEST POP DUP1 PUSH1 0x1 SWAP1 DUP1 MLOAD SWAP1 PUSH1 0x20 ADD SWAP1 PUSH3 0xAF SWAP3 SWAP2 SWAP1 PUSH3 0x110 JUMP JUMPDEST POP POP POP PUSH3 0xC2 PUSH3 0x108 PUSH1 0x20 SHL PUSH1 0x20 SHR JUMP JUMPDEST PUSH1 0x6 PUSH1 0x0 PUSH2 0x100 EXP DUP2 SLOAD DUP2 PUSH20 0xFFFFFFFFFFFFFFFFFFFFFFFFFFFFFFFFFFFFFFFF MUL NOT AND SWAP1 DUP4 PUSH20 0xFFFFFFFFFFFFFFFFFFFFFFFFFFFFFFFFFFFFFFFF AND MUL OR SWAP1 SSTORE POP PUSH3 0x224 JUMP JUMPDEST PUSH1 0x0 CALLER SWAP1 POP SWAP1 JUMP JUMPDEST DUP3 DUP1 SLOAD PUSH3 0x11E SWAP1 PUSH3 0x1EF JUMP JUMPDEST SWAP1 PUSH1 0x0 MSTORE PUSH1 0x20 PUSH1 0x0 KECCAK256 SWAP1 PUSH1 0x1F ADD PUSH1 0x20 SWAP1 DIV DUP2 ADD SWAP3 DUP3 PUSH3 0x142 JUMPI PUSH1 0x0 DUP6 SSTORE PUSH3 0x18E JUMP JUMPDEST DUP3 PUSH1 0x1F LT PUSH3 0x15D JUMPI DUP1 MLOAD PUSH1 0xFF NOT AND DUP4 DUP1 ADD OR DUP6 SSTORE PUSH3 0x18E JUMP JUMPDEST DUP3 DUP1 ADD PUSH1 0x1 ADD DUP6 SSTORE DUP3 ISZERO PUSH3 0x18E JUMPI SWAP2 DUP3 ADD JUMPDEST DUP3 DUP2 GT ISZERO PUSH3 0x18D JUMPI DUP3 MLOAD DUP3 SSTORE SWAP2 PUSH1 0x20 ADD SWAP2 SWAP1 PUSH1 0x1 ADD SWAP1 PUSH3 0x170 JUMP JUMPDEST JUMPDEST POP SWAP1 POP PUSH3 0x19D SWAP2 SWAP1 PUSH3 0x1A1 JUMP JUMPDEST POP SWAP1 JUMP JUMPDEST JUMPDEST DUP1 DUP3 GT ISZERO PUSH3 0x1BC JUMPI PUSH1 0x0 DUP2 PUSH1 0x0 SWAP1 SSTORE POP PUSH1 0x1 ADD PUSH3 0x1A2 JUMP JUMPDEST POP SWAP1 JUMP JUMPDEST PUSH32 0x4E487B7100000000000000000000000000000000000000000000000000000000 PUSH1 0x0 MSTORE PUSH1 0x22 PUSH1 0x4 MSTORE PUSH1 0x24 PUSH1 0x0 REVERT JUMPDEST PUSH1 0x0 PUSH1 0x2 DUP3 DIV SWAP1 POP PUSH1 0x1 DUP3 AND DUP1 PUSH3 0x208 JUMPI PUSH1 0x7F DUP3 AND SWAP2 POP JUMPDEST PUSH1 0x20 DUP3 LT DUP2 SUB PUSH3 0x21E JUMPI PUSH3 0x21D PUSH3 0x1C0 JUMP JUMPDEST JUMPDEST POP SWAP2 SWAP1 POP JUMP JUMPDEST PUSH2 0x283B DUP1 PUSH3 0x234 PUSH1 0x0 CODECOPY PUSH1 0x0 RETURN INVALID PUSH1 0x80 PUSH1 0x40 MSTORE CALLVALUE DUP1 ISZERO PUSH2 0x10 JUMPI PUSH1 0x0 DUP1 REVERT JUMPDEST POP PUSH1 0x4 CALLDATASIZE LT PUSH2 0x100 JUMPI PUSH1 0x0 CALLDATALOAD PUSH1 0xE0 SHR DUP1 PUSH4 0x70A08231 GT PUSH2 0x97 JUMPI DUP1 PUSH4 0xA22CB465 GT PUSH2 0x66 JUMPI DUP1 PUSH4 0xA22CB465 EQ PUSH2 0x299 JUMPI DUP1 PUSH4 0xB88D4FDE EQ PUSH2 0x2B5 JUMPI DUP1 PUSH4 0xC87B56DD EQ PUSH2 0x2D1 JUMPI DUP1 PUSH4 0xE985E9C5 EQ PUSH2 0x301 JUMPI PUSH2 0x100 JUMP JUMPDEST DUP1 PUSH4 0x70A08231 EQ PUSH2 0x223 JUMPI DUP1 PUSH4 0x719414B4 EQ PUSH2 0x253 JUMPI DUP1 PUSH4 0x8DA5CB5B EQ PUSH2 0x25D JUMPI DUP1 PUSH4 0x95D89B41 EQ PUSH2 0x27B JUMPI PUSH2 0x100 JUMP JUMPDEST DUP1 PUSH4 0x20E3DFEE GT PUSH2 0xD3 JUMPI DUP1 PUSH4 0x20E3DFEE EQ PUSH2 0x19F JUMPI DUP1 PUSH4 0x23B872DD EQ PUSH2 0x1BB JUMPI DUP1 PUSH4 0x42842E0E EQ PUSH2 0x1D7 JUMPI DUP1 PUSH4 0x6352211E EQ PUSH2 0x1F3 JUMPI PUSH2 0x100 JUMP JUMPDEST DUP1 PUSH4 0x1FFC9A7 EQ PUSH2 0x105 JUMPI DUP1 PUSH4 0x6FDDE03 EQ PUSH2 0x135 JUMPI DUP1 PUSH4 0x81812FC EQ PUSH2 0x153 JUMPI DUP1 PUSH4 0x95EA7B3 EQ PUSH2 0x183 JUMPI JUMPDEST PUSH1 0x0 DUP1 REVERT JUMPDEST PUSH2 0x11F PUSH1 0x4 DUP1 CALLDATASIZE SUB DUP2 ADD SWAP1 PUSH2 0x11A SWAP2 SWAP1 PUSH2 0x1754 JUMP JUMPDEST PUSH2 0x331 JUMP JUMPDEST PUSH1 0x40 MLOAD PUSH2 0x12C SWAP2 SWAP1 PUSH2 0x179C JUMP JUMPDEST PUSH1 0x40 MLOAD DUP1 SWAP2 SUB SWAP1 RETURN JUMPDEST PUSH2 0x13D PUSH2 0x413 JUMP JUMPDEST PUSH1 0x40 MLOAD PUSH2 0x14A SWAP2 SWAP1 PUSH2 0x1850 JUMP JUMPDEST PUSH1 0x40 MLOAD DUP1 SWAP2 SUB SWAP1 RETURN JUMPDEST PUSH2 0x16D PUSH1 0x4 DUP1 CALLDATASIZE SUB DUP2 ADD SWAP1 PUSH2 0x168 SWAP2 SWAP1 PUSH2 0x18A8 JUMP JUMPDEST PUSH2 0x4A5 JUMP JUMPDEST PUSH1 0x40 MLOAD PUSH2 0x17A SWAP2 SWAP1 PUSH2 0x1916 JUMP JUMPDEST PUSH1 0x40 MLOAD DUP1 SWAP2 SUB SWAP1 RETURN JUMPDEST PUSH2 0x19D PUSH1 0x4 DUP1 CALLDATASIZE SUB DUP2 ADD SWAP1 PUSH2 0x198 SWAP2 SWAP1 PUSH2 0x195D JUMP JUMPDEST PUSH2 0x52A JUMP JUMPDEST STOP JUMPDEST PUSH2 0x1B9 PUSH1 0x4 DUP1 CALLDATASIZE SUB DUP2 ADD SWAP1 PUSH2 0x1B4 SWAP2 SWAP1 PUSH2 0x18A8 JUMP JUMPDEST PUSH2 0x641 JUMP JUMPDEST STOP JUMPDEST PUSH2 0x1D5 PUSH1 0x4 DUP1 CALLDATASIZE SUB DUP2 ADD SWAP1 PUSH2 0x1D0 SWAP2 SWAP1 PUSH2 0x199D JUMP JUMPDEST PUSH2 0x6EC JUMP JUMPDEST STOP JUMPDEST PUSH2 0x1F1 PUSH1 0x4 DUP1 CALLDATASIZE SUB DUP2 ADD SWAP1 PUSH2 0x1EC SWAP2 SWAP1 PUSH2 0x199D JUMP JUMPDEST PUSH2 0x74C JUMP JUMPDEST STOP JUMPDEST PUSH2 0x20D PUSH1 0x4 DUP1 CALLDATASIZE SUB DUP2 ADD SWAP1 PUSH2 0x208 SWAP2 SWAP1 PUSH2 0x18A8 JUMP JUMPDEST PUSH2 0x76C JUMP JUMPDEST PUSH1 0x40 MLOAD PUSH2 0x21A SWAP2 SWAP1 PUSH2 0x1916 JUMP JUMPDEST PUSH1 0x40 MLOAD DUP1 SWAP2 SUB SWAP1 RETURN JUMPDEST PUSH2 0x23D PUSH1 0x4 DUP1 CALLDATASIZE SUB DUP2 ADD SWAP1 PUSH2 0x238 SWAP2 SWAP1 PUSH2 0x19F0 JUMP JUMPDEST PUSH2 0x81D JUMP JUMPDEST PUSH1 0x40 MLOAD PUSH2 0x24A SWAP2 SWAP1 PUSH2 0x1A2C JUMP JUMPDEST PUSH1 0x40 MLOAD DUP1 SWAP2 SUB SWAP1 RETURN JUMPDEST PUSH2 0x25B PUSH2 0x8D4 JUMP JUMPDEST STOP JUMPDEST PUSH2 0x265 PUSH2 0x8D6 JUMP JUMPDEST PUSH1 0x40 MLOAD PUSH2 0x272 SWAP2 SWAP1 PUSH2 0x1916 JUMP JUMPDEST PUSH1 0x40 MLOAD DUP1 SWAP2 SUB SWAP1 RETURN JUMPDEST PUSH2 0x283 PUSH2 0x8FC JUMP JUMPDEST PUSH1 0x40 MLOAD PUSH2 0x290 SWAP2 SWAP1 PUSH2 0x1850 JUMP JUMPDEST PUSH1 0x40 MLOAD DUP1 SWAP2 SUB SWAP1 RETURN JUMPDEST PUSH2 0x2B3 PUSH1 0x4 DUP1 CALLDATASIZE SUB DUP2 ADD SWAP1 PUSH2 0x2AE SWAP2 SWAP1 PUSH2 0x1A73 JUMP JUMPDEST PUSH2 0x98E JUMP JUMPDEST STOP JUMPDEST PUSH2 0x2CF PUSH1 0x4 DUP1 CALLDATASIZE SUB DUP2 ADD SWAP1 PUSH2 0x2CA SWAP2 SWAP1 PUSH2 0x1BE8 JUMP JUMPDEST PUSH2 0x9A4 JUMP JUMPDEST STOP JUMPDEST PUSH2 0x2EB PUSH1 0x4 DUP1 CALLDATASIZE SUB DUP2 ADD SWAP1 PUSH2 0x2E6 SWAP2 SWAP1 PUSH2 0x18A8 JUMP JUMPDEST PUSH2 0xA06 JUMP JUMPDEST PUSH1 0x40 MLOAD PUSH2 0x2F8 SWAP2 SWAP1 PUSH2 0x1850 JUMP JUMPDEST PUSH1 0x40 MLOAD DUP1 SWAP2 SUB SWAP1 RETURN JUMPDEST PUSH2 0x31B PUSH1 0x4 DUP1 CALLDATASIZE SUB DUP2 ADD SWAP1 PUSH2 0x316 SWAP2 SWAP1 PUSH2 0x1C6B JUMP JUMPDEST PUSH2 0xAAD JUMP JUMPDEST PUSH1 0x40 MLOAD PUSH2 0x328 SWAP2 SWAP1 PUSH2 0x179C JUMP JUMPDEST PUSH1 0x40 MLOAD DUP1 SWAP2 SUB SWAP1 RETURN JUMPDEST PUSH1 0x0 PUSH32 0x80AC58CD00000000000000000000000000000000000000000000000000000000 PUSH28 0xFFFFFFFFFFFFFFFFFFFFFFFFFFFFFFFFFFFFFFFFFFFFFFFFFFFFFFFF NOT AND DUP3 PUSH28 0xFFFFFFFFFFFFFFFFFFFFFFFFFFFFFFFFFFFFFFFFFFFFFFFFFFFFFFFF NOT AND EQ DUP1 PUSH2 0x3FC JUMPI POP PUSH32 0x5B5E139F00000000000000000000000000000000000000000000000000000000 PUSH28 0xFFFFFFFFFFFFFFFFFFFFFFFFFFFFFFFFFFFFFFFFFFFFFFFFFFFFFFFF NOT AND DUP3 PUSH28 0xFFFFFFFFFFFFFFFFFFFFFFFFFFFFFFFFFFFFFFFFFFFFFFFFFFFFFFFF NOT AND EQ JUMPDEST DUP1 PUSH2 0x40C JUMPI POP PUSH2 0x40B DUP3 PUSH2 0xB41 JUMP JUMPDEST JUMPDEST SWAP1 POP SWAP2 SWAP1 POP JUMP JUMPDEST PUSH1 0x60 PUSH1 0x0 DUP1 SLOAD PUSH2 0x422 SWAP1 PUSH2 0x1CDA JUMP JUMPDEST DUP1 PUSH1 0x1F ADD PUSH1 0x20 DUP1 SWAP2 DIV MUL PUSH1 0x20 ADD PUSH1 0x40 MLOAD SWAP1 DUP2 ADD PUSH1 0x40 MSTORE DUP1 SWAP3 SWAP2 SWAP1 DUP2 DUP2 MSTORE PUSH1 0x20 ADD DUP3 DUP1 SLOAD PUSH2 0x44E SWAP1 PUSH2 0x1CDA JUMP JUMPDEST DUP1 ISZERO PUSH2 0x49B JUMPI DUP1 PUSH1 0x1F LT PUSH2 0x470 JUMPI PUSH2 0x100 DUP1 DUP4 SLOAD DIV MUL DUP4 MSTORE SWAP2 PUSH1 0x20 ADD SWAP2 PUSH2 0x49B JUMP JUMPDEST DUP3 ADD SWAP2 SWAP1 PUSH1 0x0 MSTORE PUSH1 0x20 PUSH1 0x0 KECCAK256 SWAP1 JUMPDEST DUP2 SLOAD DUP2 MSTORE SWAP1 PUSH1 0x1 ADD SWAP1 PUSH1 0x20 ADD DUP1 DUP4 GT PUSH2 0x47E JUMPI DUP3 SWAP1 SUB PUSH1 0x1F AND DUP3 ADD SWAP2 JUMPDEST POP POP POP POP POP SWAP1 POP SWAP1 JUMP JUMPDEST PUSH1 0x0 PUSH2 0x4B0 DUP3 PUSH2 0xBAB JUMP JUMPDEST PUSH2 0x4EF JUMPI PUSH1 0x40 MLOAD PUSH32 0x8C379A000000000000000000000000000000000000000000000000000000000 DUP2 MSTORE PUSH1 0x4 ADD PUSH2 0x4E6 SWAP1 PUSH2 0x1D7D JUMP JUMPDEST PUSH1 0x40 MLOAD DUP1 SWAP2 SUB SWAP1 REVERT JUMPDEST PUSH1 0x4 PUSH1 0x0 DUP4 DUP2 MSTORE PUSH1 0x20 ADD SWAP1 DUP2 MSTORE PUSH1 0x20 ADD PUSH1 0x0 KECCAK256 PUSH1 0x0 SWAP1 SLOAD SWAP1 PUSH2 0x100 EXP SWAP1 DIV PUSH20 0xFFFFFFFFFFFFFFFFFFFFFFFFFFFFFFFFFFFFFFFF AND SWAP1 POP SWAP2 SWAP1 POP JUMP JUMPDEST PUSH1 0x0 PUSH2 0x535 DUP3 PUSH2 0x76C JUMP JUMPDEST SWAP1 POP DUP1 PUSH20 0xFFFFFFFFFFFFFFFFFFFFFFFFFFFFFFFFFFFFFFFF AND DUP4 PUSH20 0xFFFFFFFFFFFFFFFFFFFFFFFFFFFFFFFFFFFFFFFF AND SUB PUSH2 0x5A5 JUMPI PUSH1 0x40 MLOAD PUSH32 0x8C379A000000000000000000000000000000000000000000000000000000000 DUP2 MSTORE PUSH1 0x4 ADD PUSH2 0x59C SWAP1 PUSH2 0x1E0F JUMP JUMPDEST PUSH1 0x40 MLOAD DUP1 SWAP2 SUB SWAP1 REVERT JUMPDEST DUP1 PUSH20 0xFFFFFFFFFFFFFFFFFFFFFFFFFFFFFFFFFFFFFFFF AND PUSH2 0x5C4 PUSH2 0xC17 JUMP JUMPDEST PUSH20 0xFFFFFFFFFFFFFFFFFFFFFFFFFFFFFFFFFFFFFFFF AND EQ DUP1 PUSH2 0x5F3 JUMPI POP PUSH2 0x5F2 DUP2 PUSH2 0x5ED PUSH2 0xC17 JUMP JUMPDEST PUSH2 0xAAD JUMP JUMPDEST JUMPDEST PUSH2 0x632 JUMPI PUSH1 0x40 MLOAD PUSH32 0x8C379A000000000000000000000000000000000000000000000000000000000 DUP2 MSTORE PUSH1 0x4 ADD PUSH2 0x629 SWAP1 PUSH2 0x1EA1 JUMP JUMPDEST PUSH1 0x40 MLOAD DUP1 SWAP2 SUB SWAP1 REVERT JUMPDEST PUSH2 0x63C DUP4 DUP4 PUSH2 0xC1F JUMP JUMPDEST POP POP POP JUMP JUMPDEST PUSH2 0x649 PUSH2 0xC17 JUMP JUMPDEST PUSH20 0xFFFFFFFFFFFFFFFFFFFFFFFFFFFFFFFFFFFFFFFF AND PUSH1 0x6 PUSH1 0x0 SWAP1 SLOAD SWAP1 PUSH2 0x100 EXP SWAP1 DIV PUSH20 0xFFFFFFFFFFFFFFFFFFFFFFFFFFFFFFFFFFFFFFFF AND PUSH20 0xFFFFFFFFFFFFFFFFFFFFFFFFFFFFFFFFFFFFFFFF AND EQ PUSH2 0x6D8 JUMPI PUSH1 0x40 MLOAD PUSH32 0x8C379A000000000000000000000000000000000000000000000000000000000 DUP2 MSTORE PUSH1 0x4 ADD PUSH2 0x6CF SWAP1 PUSH2 0x1F0D JUMP JUMPDEST PUSH1 0x40 MLOAD DUP1 SWAP2 SUB SWAP1 REVERT JUMPDEST PUSH2 0x6E9 PUSH2 0x6E3 PUSH2 0xC17 JUMP JUMPDEST DUP3 PUSH2 0xCD8 JUMP JUMPDEST POP JUMP JUMPDEST PUSH2 0x6FD PUSH2 0x6F7 PUSH2 0xC17 JUMP JUMPDEST DUP3 PUSH2 0xEB1 JUMP JUMPDEST PUSH2 0x73C JUMPI PUSH1 0x40 MLOAD PUSH32 0x8C379A000000000000000000000000000000000000000000000000000000000 DUP2 MSTORE PUSH1 0x4 ADD PUSH2 0x733 SWAP1 PUSH2 0x1F9F JUMP JUMPDEST PUSH1 0x40 MLOAD DUP1 SWAP2 SUB SWAP1 REVERT JUMPDEST PUSH2 0x747 DUP4 DUP4 DUP4 PUSH2 0xF8F JUMP JUMPDEST POP POP POP JUMP JUMPDEST PUSH2 0x767 DUP4 DUP4 DUP4 PUSH1 0x40 MLOAD DUP1 PUSH1 0x20 ADD PUSH1 0x40 MSTORE DUP1 PUSH1 0x0 DUP2 MSTORE POP PUSH2 0x9A4 JUMP JUMPDEST POP POP POP JUMP JUMPDEST PUSH1 0x0 DUP1 PUSH1 0x2 PUSH1 0x0 DUP5 DUP2 MSTORE PUSH1 0x20 ADD SWAP1 DUP2 MSTORE PUSH1 0x20 ADD PUSH1 0x0 KECCAK256 PUSH1 0x0 SWAP1 SLOAD SWAP1 PUSH2 0x100 EXP SWAP1 DIV PUSH20 0xFFFFFFFFFFFFFFFFFFFFFFFFFFFFFFFFFFFFFFFF AND SWAP1 POP PUSH1 0x0 PUSH20 0xFFFFFFFFFFFFFFFFFFFFFFFFFFFFFFFFFFFFFFFF AND DUP2 PUSH20 0xFFFFFFFFFFFFFFFFFFFFFFFFFFFFFFFFFFFFFFFF AND SUB PUSH2 0x814 JUMPI PUSH1 0x40 MLOAD PUSH32 0x8C379A000000000000000000000000000000000000000000000000000000000 DUP2 MSTORE PUSH1 0x4 ADD PUSH2 0x80B SWAP1 PUSH2 0x2031 JUMP JUMPDEST PUSH1 0x40 MLOAD DUP1 SWAP2 SUB SWAP1 REVERT JUMPDEST DUP1 SWAP2 POP POP SWAP2 SWAP1 POP JUMP JUMPDEST PUSH1 0x0 DUP1 PUSH20 0xFFFFFFFFFFFFFFFFFFFFFFFFFFFFFFFFFFFFFFFF AND DUP3 PUSH20 0xFFFFFFFFFFFFFFFFFFFFFFFFFFFFFFFFFFFFFFFF AND SUB PUSH2 0x88D JUMPI PUSH1 0x40 MLOAD PUSH32 0x8C379A000000000000000000000000000000000000000000000000000000000 DUP2 MSTORE PUSH1 0x4 ADD PUSH2 0x884 SWAP1 PUSH2 0x20C3 JUMP JUMPDEST PUSH1 0x40 MLOAD DUP1 SWAP2 SUB SWAP1 REVERT JUMPDEST PUSH1 0x3 PUSH1 0x0 DUP4 PUSH20 0xFFFFFFFFFFFFFFFFFFFFFFFFFFFFFFFFFFFFFFFF AND PUSH20 0xFFFFFFFFFFFFFFFFFFFFFFFFFFFFFFFFFFFFFFFF AND DUP2 MSTORE PUSH1 0x20 ADD SWAP1 DUP2 MSTORE PUSH1 0x20 ADD PUSH1 0x0 KECCAK256 SLOAD SWAP1 POP SWAP2 SWAP1 POP JUMP JUMPDEST JUMP JUMPDEST PUSH1 0x6 PUSH1 0x0 SWAP1 SLOAD SWAP1 PUSH2 0x100 EXP SWAP1 DIV PUSH20 0xFFFFFFFFFFFFFFFFFFFFFFFFFFFFFFFFFFFFFFFF AND DUP2 JUMP JUMPDEST PUSH1 0x60 PUSH1 0x1 DUP1 SLOAD PUSH2 0x90B SWAP1 PUSH2 0x1CDA JUMP JUMPDEST DUP1 PUSH1 0x1F ADD PUSH1 0x20 DUP1 SWAP2 DIV MUL PUSH1 0x20 ADD PUSH1 0x40 MLOAD SWAP1 DUP2 ADD PUSH1 0x40 MSTORE DUP1 SWAP3 SWAP2 SWAP1 DUP2 DUP2 MSTORE PUSH1 0x20 ADD DUP3 DUP1 SLOAD PUSH2 0x937 SWAP1 PUSH2 0x1CDA JUMP JUMPDEST DUP1 ISZERO PUSH2 0x984 JUMPI DUP1 PUSH1 0x1F LT PUSH2 0x959 JUMPI PUSH2 0x100 DUP1 DUP4 SLOAD DIV MUL DUP4 MSTORE SWAP2 PUSH1 0x20 ADD SWAP2 PUSH2 0x984 JUMP JUMPDEST DUP3 ADD SWAP2 SWAP1 PUSH1 0x0 MSTORE PUSH1 0x20 PUSH1 0x0 KECCAK256 SWAP1 JUMPDEST DUP2 SLOAD DUP2 MSTORE SWAP1 PUSH1 0x1 ADD SWAP1 PUSH1 0x20 ADD DUP1 DUP4 GT PUSH2 0x967 JUMPI DUP3 SWAP1 SUB PUSH1 0x1F AND DUP3 ADD SWAP2 JUMPDEST POP POP POP POP POP SWAP1 POP SWAP1 JUMP JUMPDEST PUSH2 0x9A0 PUSH2 0x999 PUSH2 0xC17 JUMP JUMPDEST DUP4 DUP4 PUSH2 0x11F5 JUMP JUMPDEST POP POP JUMP JUMPDEST PUSH2 0x9B5 PUSH2 0x9AF PUSH2 0xC17 JUMP JUMPDEST DUP4 PUSH2 0xEB1 JUMP JUMPDEST PUSH2 0x9F4 JUMPI PUSH1 0x40 MLOAD PUSH32 0x8C379A000000000000000000000000000000000000000000000000000000000 DUP2 MSTORE PUSH1 0x4 ADD PUSH2 0x9EB SWAP1 PUSH2 0x1F9F JUMP JUMPDEST PUSH1 0x40 MLOAD DUP1 SWAP2 SUB SWAP1 REVERT JUMPDEST PUSH2 0xA00 DUP5 DUP5 DUP5 DUP5 PUSH2 0x1361 JUMP JUMPDEST POP POP POP POP JUMP JUMPDEST PUSH1 0x60 PUSH2 0xA11 DUP3 PUSH2 0xBAB JUMP JUMPDEST PUSH2 0xA50 JUMPI PUSH1 0x40 MLOAD PUSH32 0x8C379A000000000000000000000000000000000000000000000000000000000 DUP2 MSTORE PUSH1 0x4 ADD PUSH2 0xA47 SWAP1 PUSH2 0x2155 JUMP JUMPDEST PUSH1 0x40 MLOAD DUP1 SWAP2 SUB SWAP1 REVERT JUMPDEST PUSH1 0x0 PUSH2 0xA5A PUSH2 0x13BD JUMP JUMPDEST SWAP1 POP PUSH1 0x0 DUP2 MLOAD GT PUSH2 0xA7A JUMPI PUSH1 0x40 MLOAD DUP1 PUSH1 0x20 ADD PUSH1 0x40 MSTORE DUP1 PUSH1 0x0 DUP2 MSTORE POP PUSH2 0xAA5 JUMP JUMPDEST DUP1 PUSH2 0xA84 DUP5 PUSH2 0x13D4 JUMP JUMPDEST PUSH1 0x40 MLOAD PUSH1 0x20 ADD PUSH2 0xA95 SWAP3 SWAP2 SWAP1 PUSH2 0x21B1 JUMP JUMPDEST PUSH1 0x40 MLOAD PUSH1 0x20 DUP2 DUP4 SUB SUB DUP2 MSTORE SWAP1 PUSH1 0x40 MSTORE JUMPDEST SWAP2 POP POP SWAP2 SWAP1 POP JUMP JUMPDEST PUSH1 0x0 PUSH1 0x5 PUSH1 0x0 DUP5 PUSH20 0xFFFFFFFFFFFFFFFFFFFFFFFFFFFFFFFFFFFFFFFF AND PUSH20 0xFFFFFFFFFFFFFFFFFFFFFFFFFFFFFFFFFFFFFFFF AND DUP2 MSTORE PUSH1 0x20 ADD SWAP1 DUP2 MSTORE PUSH1 0x20 ADD PUSH1 0x0 KECCAK256 PUSH1 0x0 DUP4 PUSH20 0xFFFFFFFFFFFFFFFFFFFFFFFFFFFFFFFFFFFFFFFF AND PUSH20 0xFFFFFFFFFFFFFFFFFFFFFFFFFFFFFFFFFFFFFFFF AND DUP2 MSTORE PUSH1 0x20 ADD SWAP1 DUP2 MSTORE PUSH1 0x20 ADD PUSH1 0x0 KECCAK256 PUSH1 0x0 SWAP1 SLOAD SWAP1 PUSH2 0x100 EXP SWAP1 DIV PUSH1 0xFF AND SWAP1 POP SWAP3 SWAP2 POP POP JUMP JUMPDEST PUSH1 0x0 PUSH32 0x1FFC9A700000000000000000000000000000000000000000000000000000000 PUSH28 0xFFFFFFFFFFFFFFFFFFFFFFFFFFFFFFFFFFFFFFFFFFFFFFFFFFFFFFFF NOT AND DUP3 PUSH28 0xFFFFFFFFFFFFFFFFFFFFFFFFFFFFFFFFFFFFFFFFFFFFFFFFFFFFFFFF NOT AND EQ SWAP1 POP SWAP2 SWAP1 POP JUMP JUMPDEST PUSH1 0x0 DUP1 PUSH20 0xFFFFFFFFFFFFFFFFFFFFFFFFFFFFFFFFFFFFFFFF AND PUSH1 0x2 PUSH1 0x0 DUP5 DUP2 MSTORE PUSH1 0x20 ADD SWAP1 DUP2 MSTORE PUSH1 0x20 ADD PUSH1 0x0 KECCAK256 PUSH1 0x0 SWAP1 SLOAD SWAP1 PUSH2 0x100 EXP SWAP1 DIV PUSH20 0xFFFFFFFFFFFFFFFFFFFFFFFFFFFFFFFFFFFFFFFF AND PUSH20 0xFFFFFFFFFFFFFFFFFFFFFFFFFFFFFFFFFFFFFFFF AND EQ ISZERO SWAP1 POP SWAP2 SWAP1 POP JUMP JUMPDEST PUSH1 0x0 CALLER SWAP1 POP SWAP1 JUMP JUMPDEST DUP2 PUSH1 0x4 PUSH1 0x0 DUP4 DUP2 MSTORE PUSH1 0x20 ADD SWAP1 DUP2 MSTORE PUSH1 0x20 ADD PUSH1 0x0 KECCAK256 PUSH1 0x0 PUSH2 0x100 EXP DUP2 SLOAD DUP2 PUSH20 0xFFFFFFFFFFFFFFFFFFFFFFFFFFFFFFFFFFFFFFFF MUL NOT AND SWAP1 DUP4 PUSH20 0xFFFFFFFFFFFFFFFFFFFFFFFFFFFFFFFFFFFFFFFF AND MUL OR SWAP1 SSTORE POP DUP1 DUP3 PUSH20 0xFFFFFFFFFFFFFFFFFFFFFFFFFFFFFFFFFFFFFFFF AND PUSH2 0xC92 DUP4 PUSH2 0x76C JUMP JUMPDEST PUSH20 0xFFFFFFFFFFFFFFFFFFFFFFFFFFFFFFFFFFFFFFFF AND PUSH32 0x8C5BE1E5EBEC7D5BD14F71427D1E84F3DD0314C0F7B2291E5B200AC8C7C3B925 PUSH1 0x40 MLOAD PUSH1 0x40 MLOAD DUP1 SWAP2 SUB SWAP1 LOG4 POP POP JUMP JUMPDEST PUSH1 0x0 PUSH20 0xFFFFFFFFFFFFFFFFFFFFFFFFFFFFFFFFFFFFFFFF AND DUP3 PUSH20 0xFFFFFFFFFFFFFFFFFFFFFFFFFFFFFFFFFFFFFFFF AND SUB PUSH2 0xD47 JUMPI PUSH1 0x40 MLOAD PUSH32 0x8C379A000000000000000000000000000000000000000000000000000000000 DUP2 MSTORE PUSH1 0x4 ADD PUSH2 0xD3E SWAP1 PUSH2 0x2221 JUMP JUMPDEST PUSH1 0x40 MLOAD DUP1 SWAP2 SUB SWAP1 REVERT JUMPDEST PUSH2 0xD50 DUP2 PUSH2 0xBAB JUMP JUMPDEST ISZERO PUSH2 0xD90 JUMPI PUSH1 0x40 MLOAD PUSH32 0x8C379A000000000000000000000000000000000000000000000000000000000 DUP2 MSTORE PUSH1 0x4 ADD PUSH2 0xD87 SWAP1 PUSH2 0x228D JUMP JUMPDEST PUSH1 0x40 MLOAD DUP1 SWAP2 SUB SWAP1 REVERT JUMPDEST PUSH2 0xD9C PUSH1 0x0 DUP4 DUP4 PUSH2 0x1534 JUMP JUMPDEST PUSH1 0x1 PUSH1 0x3 PUSH1 0x0 DUP5 PUSH20 0xFFFFFFFFFFFFFFFFFFFFFFFFFFFFFFFFFFFFFFFF AND PUSH20 0xFFFFFFFFFFFFFFFFFFFFFFFFFFFFFFFFFFFFFFFF AND DUP2 MSTORE PUSH1 0x20 ADD SWAP1 DUP2 MSTORE PUSH1 0x20 ADD PUSH1 0x0 KECCAK256 PUSH1 0x0 DUP3 DUP3 SLOAD PUSH2 0xDEC SWAP2 SWAP1 PUSH2 0x22DC JUMP JUMPDEST SWAP3 POP POP DUP2 SWAP1 SSTORE POP DUP2 PUSH1 0x2 PUSH1 0x0 DUP4 DUP2 MSTORE PUSH1 0x20 ADD SWAP1 DUP2 MSTORE PUSH1 0x20 ADD PUSH1 0x0 KECCAK256 PUSH1 0x0 PUSH2 0x100 EXP DUP2 SLOAD DUP2 PUSH20 0xFFFFFFFFFFFFFFFFFFFFFFFFFFFFFFFFFFFFFFFF MUL NOT AND SWAP1 DUP4 PUSH20 0xFFFFFFFFFFFFFFFFFFFFFFFFFFFFFFFFFFFFFFFF AND MUL OR SWAP1 SSTORE POP DUP1 DUP3 PUSH20 0xFFFFFFFFFFFFFFFFFFFFFFFFFFFFFFFFFFFFFFFF AND PUSH1 0x0 PUSH20 0xFFFFFFFFFFFFFFFFFFFFFFFFFFFFFFFFFFFFFFFF AND PUSH32 0xDDF252AD1BE2C89B69C2B068FC378DAA952BA7F163C4A11628F55A4DF523B3EF PUSH1 0x40 MLOAD PUSH1 0x40 MLOAD DUP1 SWAP2 SUB SWAP1 LOG4 PUSH2 0xEAD PUSH1 0x0 DUP4 DUP4 PUSH2 0x1539 JUMP JUMPDEST POP POP JUMP JUMPDEST PUSH1 0x0 PUSH2 0xEBC DUP3 PUSH2 0xBAB JUMP JUMPDEST PUSH2 0xEFB JUMPI PUSH1 0x40 MLOAD PUSH32 0x8C379A000000000000000000000000000000000000000000000000000000000 DUP2 MSTORE PUSH1 0x4 ADD PUSH2 0xEF2 SWAP1 PUSH2 0x23A4 JUMP JUMPDEST PUSH1 0x40 MLOAD DUP1 SWAP2 SUB SWAP1 REVERT JUMPDEST PUSH1 0x0 PUSH2 0xF06 DUP4 PUSH2 0x76C JUMP JUMPDEST SWAP1 POP DUP1 PUSH20 0xFFFFFFFFFFFFFFFFFFFFFFFFFFFFFFFFFFFFFFFF AND DUP5 PUSH20 0xFFFFFFFFFFFFFFFFFFFFFFFFFFFFFFFFFFFFFFFF AND EQ DUP1 PUSH2 0xF48 JUMPI POP PUSH2 0xF47 DUP2 DUP6 PUSH2 0xAAD JUMP JUMPDEST JUMPDEST DUP1 PUSH2 0xF86 JUMPI POP DUP4 PUSH20 0xFFFFFFFFFFFFFFFFFFFFFFFFFFFFFFFFFFFFFFFF AND PUSH2 0xF6E DUP5 PUSH2 0x4A5 JUMP JUMPDEST PUSH20 0xFFFFFFFFFFFFFFFFFFFFFFFFFFFFFFFFFFFFFFFF AND EQ JUMPDEST SWAP2 POP POP SWAP3 SWAP2 POP POP JUMP JUMPDEST DUP3 PUSH20 0xFFFFFFFFFFFFFFFFFFFFFFFFFFFFFFFFFFFFFFFF AND PUSH2 0xFAF DUP3 PUSH2 0x76C JUMP JUMPDEST PUSH20 0xFFFFFFFFFFFFFFFFFFFFFFFFFFFFFFFFFFFFFFFF AND EQ PUSH2 0x1005 JUMPI PUSH1 0x40 MLOAD PUSH32 0x8C379A000000000000000000000000000000000000000000000000000000000 DUP2 MSTORE PUSH1 0x4 ADD PUSH2 0xFFC SWAP1 PUSH2 0x2436 JUMP JUMPDEST PUSH1 0x40 MLOAD DUP1 SWAP2 SUB SWAP1 REVERT JUMPDEST PUSH1 0x0 PUSH20 0xFFFFFFFFFFFFFFFFFFFFFFFFFFFFFFFFFFFFFFFF AND DUP3 PUSH20 0xFFFFFFFFFFFFFFFFFFFFFFFFFFFFFFFFFFFFFFFF AND SUB PUSH2 0x1074 JUMPI PUSH1 0x40 MLOAD PUSH32 0x8C379A000000000000000000000000000000000000000000000000000000000 DUP2 MSTORE PUSH1 0x4 ADD PUSH2 0x106B SWAP1 PUSH2 0x24C8 JUMP JUMPDEST PUSH1 0x40 MLOAD DUP1 SWAP2 SUB SWAP1 REVERT JUMPDEST PUSH2 0x107F DUP4 DUP4 DUP4 PUSH2 0x1534 JUMP JUMPDEST PUSH2 0x108A PUSH1 0x0 DUP3 PUSH2 0xC1F JUMP JUMPDEST PUSH1 0x1 PUSH1 0x3 PUSH1 0x0 DUP6 PUSH20 0xFFFFFFFFFFFFFFFFFFFFFFFFFFFFFFFFFFFFFFFF AND PUSH20 0xFFFFFFFFFFFFFFFFFFFFFFFFFFFFFFFFFFFFFFFF AND DUP2 MSTORE PUSH1 0x20 ADD SWAP1 DUP2 MSTORE PUSH1 0x20 ADD PUSH1 0x0 KECCAK256 PUSH1 0x0 DUP3 DUP3 SLOAD PUSH2 0x10DA SWAP2 SWAP1 PUSH2 0x24E8 JUMP JUMPDEST SWAP3 POP POP DUP2 SWAP1 SSTORE POP PUSH1 0x1 PUSH1 0x3 PUSH1 0x0 DUP5 PUSH20 0xFFFFFFFFFFFFFFFFFFFFFFFFFFFFFFFFFFFFFFFF AND PUSH20 0xFFFFFFFFFFFFFFFFFFFFFFFFFFFFFFFFFFFFFFFF AND DUP2 MSTORE PUSH1 0x20 ADD SWAP1 DUP2 MSTORE PUSH1 0x20 ADD PUSH1 0x0 KECCAK256 PUSH1 0x0 DUP3 DUP3 SLOAD PUSH2 0x1131 SWAP2 SWAP1 PUSH2 0x22DC JUMP JUMPDEST SWAP3 POP POP DUP2 SWAP1 SSTORE POP DUP2 PUSH1 0x2 PUSH1 0x0 DUP4 DUP2 MSTORE PUSH1 0x20 ADD SWAP1 DUP2 MSTORE PUSH1 0x20 ADD PUSH1 0x0 KECCAK256 PUSH1 0x0 PUSH2 0x100 EXP DUP2 SLOAD DUP2 PUSH20 0xFFFFFFFFFFFFFFFFFFFFFFFFFFFFFFFFFFFFFFFF MUL NOT AND SWAP1 DUP4 PUSH20 0xFFFFFFFFFFFFFFFFFFFFFFFFFFFFFFFFFFFFFFFF AND MUL OR SWAP1 SSTORE POP DUP1 DUP3 PUSH20 0xFFFFFFFFFFFFFFFFFFFFFFFFFFFFFFFFFFFFFFFF AND DUP5 PUSH20 0xFFFFFFFFFFFFFFFFFFFFFFFFFFFFFFFFFFFFFFFF AND PUSH32 0xDDF252AD1BE2C89B69C2B068FC378DAA952BA7F163C4A11628F55A4DF523B3EF PUSH1 0x40 MLOAD PUSH1 0x40 MLOAD DUP1 SWAP2 SUB SWAP1 LOG4 PUSH2 0x11F0 DUP4 DUP4 DUP4 PUSH2 0x1539 JUMP JUMPDEST POP POP POP JUMP JUMPDEST DUP2 PUSH20 0xFFFFFFFFFFFFFFFFFFFFFFFFFFFFFFFFFFFFFFFF AND DUP4 PUSH20 0xFFFFFFFFFFFFFFFFFFFFFFFFFFFFFFFFFFFFFFFF AND SUB PUSH2 0x1263 JUMPI PUSH1 0x40 MLOAD PUSH32 0x8C379A000000000000000000000000000000000000000000000000000000000 DUP2 MSTORE PUSH1 0x4 ADD PUSH2 0x125A SWAP1 PUSH2 0x2568 JUMP JUMPDEST PUSH1 0x40 MLOAD DUP1 SWAP2 SUB SWAP1 REVERT JUMPDEST DUP1 PUSH1 0x5 PUSH1 0x0 DUP6 PUSH20 0xFFFFFFFFFFFFFFFFFFFFFFFFFFFFFFFFFFFFFFFF AND PUSH20 0xFFFFFFFFFFFFFFFFFFFFFFFFFFFFFFFFFFFFFFFF AND DUP2 MSTORE PUSH1 0x20 ADD SWAP1 DUP2 MSTORE PUSH1 0x20 ADD PUSH1 0x0 KECCAK256 PUSH1 0x0 DUP5 PUSH20 0xFFFFFFFFFFFFFFFFFFFFFFFFFFFFFFFFFFFFFFFF AND PUSH20 0xFFFFFFFFFFFFFFFFFFFFFFFFFFFFFFFFFFFFFFFF AND DUP2 MSTORE PUSH1 0x20 ADD SWAP1 DUP2 MSTORE PUSH1 0x20 ADD PUSH1 0x0 KECCAK256 PUSH1 0x0 PUSH2 0x100 EXP DUP2 SLOAD DUP2 PUSH1 0xFF MUL NOT AND SWAP1 DUP4 ISZERO ISZERO MUL OR SWAP1 SSTORE POP DUP2 PUSH20 0xFFFFFFFFFFFFFFFFFFFFFFFFFFFFFFFFFFFFFFFF AND DUP4 PUSH20 0xFFFFFFFFFFFFFFFFFFFFFFFFFFFFFFFFFFFFFFFF AND PUSH32 0x17307EAB39AB6107E8899845AD3D59BD9653F200F220920489CA2B5937696C31 DUP4 PUSH1 0x40 MLOAD PUSH2 0x1354 SWAP2 SWAP1 PUSH2 0x179C JUMP JUMPDEST PUSH1 0x40 MLOAD DUP1 SWAP2 SUB SWAP1 LOG3 POP POP POP JUMP JUMPDEST PUSH2 0x136C DUP5 DUP5 DUP5 PUSH2 0xF8F JUMP JUMPDEST PUSH2 0x1378 DUP5 DUP5 DUP5 DUP5 PUSH2 0x153E JUMP JUMPDEST PUSH2 0x13B7 JUMPI PUSH1 0x40 MLOAD PUSH32 0x8C379A000000000000000000000000000000000000000000000000000000000 DUP2 MSTORE PUSH1 0x4 ADD PUSH2 0x13AE SWAP1 PUSH2 0x25FA JUMP JUMPDEST PUSH1 0x40 MLOAD DUP1 SWAP2 SUB SWAP1 REVERT JUMPDEST POP POP POP POP JUMP JUMPDEST PUSH1 0x60 PUSH1 0x40 MLOAD DUP1 PUSH1 0x20 ADD PUSH1 0x40 MSTORE DUP1 PUSH1 0x0 DUP2 MSTORE POP SWAP1 POP SWAP1 JUMP JUMPDEST PUSH1 0x60 PUSH1 0x0 DUP3 SUB PUSH2 0x141B JUMPI PUSH1 0x40 MLOAD DUP1 PUSH1 0x40 ADD PUSH1 0x40 MSTORE DUP1 PUSH1 0x1 DUP2 MSTORE PUSH1 0x20 ADD PUSH32 0x3000000000000000000000000000000000000000000000000000000000000000 DUP2 MSTORE POP SWAP1 POP PUSH2 0x152F JUMP JUMPDEST PUSH1 0x0 DUP3 SWAP1 POP PUSH1 0x0 JUMPDEST PUSH1 0x0 DUP3 EQ PUSH2 0x144D JUMPI DUP1 DUP1 PUSH2 0x1436 SWAP1 PUSH2 0x261A JUMP JUMPDEST SWAP2 POP POP PUSH1 0xA DUP3 PUSH2 0x1446 SWAP2 SWAP1 PUSH2 0x2691 JUMP JUMPDEST SWAP2 POP PUSH2 0x1423 JUMP JUMPDEST PUSH1 0x0 DUP2 PUSH8 0xFFFFFFFFFFFFFFFF DUP2 GT ISZERO PUSH2 0x1469 JUMPI PUSH2 0x1468 PUSH2 0x1ABD JUMP JUMPDEST JUMPDEST PUSH1 0x40 MLOAD SWAP1 DUP1 DUP3 MSTORE DUP1 PUSH1 0x1F ADD PUSH1 0x1F NOT AND PUSH1 0x20 ADD DUP3 ADD PUSH1 0x40 MSTORE DUP1 ISZERO PUSH2 0x149B JUMPI DUP2 PUSH1 0x20 ADD PUSH1 0x1 DUP3 MUL DUP1 CALLDATASIZE DUP4 CALLDATACOPY DUP1 DUP3 ADD SWAP2 POP POP SWAP1 POP JUMPDEST POP SWAP1 POP JUMPDEST PUSH1 0x0 DUP6 EQ PUSH2 0x1528 JUMPI PUSH1 0x1 DUP3 PUSH2 0x14B4 SWAP2 SWAP1 PUSH2 0x24E8 JUMP JUMPDEST SWAP2 POP PUSH1 0xA DUP6 PUSH2 0x14C3 SWAP2 SWAP1 PUSH2 0x26C2 JUMP JUMPDEST PUSH1 0x30 PUSH2 0x14CF SWAP2 SWAP1 PUSH2 0x22DC JUMP JUMPDEST PUSH1 0xF8 SHL DUP2 DUP4 DUP2 MLOAD DUP2 LT PUSH2 0x14E5 JUMPI PUSH2 0x14E4 PUSH2 0x26F3 JUMP JUMPDEST JUMPDEST PUSH1 0x20 ADD ADD SWAP1 PUSH31 0xFFFFFFFFFFFFFFFFFFFFFFFFFFFFFFFFFFFFFFFFFFFFFFFFFFFFFFFFFFFFFF NOT AND SWAP1 DUP2 PUSH1 0x0 BYTE SWAP1 MSTORE8 POP PUSH1 0xA DUP6 PUSH2 0x1521 SWAP2 SWAP1 PUSH2 0x2691 JUMP JUMPDEST SWAP5 POP PUSH2 0x149F JUMP JUMPDEST DUP1 SWAP4 POP POP POP POP JUMPDEST SWAP2 SWAP1 POP JUMP JUMPDEST POP POP POP JUMP JUMPDEST POP POP POP JUMP JUMPDEST PUSH1 0x0 PUSH2 0x155F DUP5 PUSH20 0xFFFFFFFFFFFFFFFFFFFFFFFFFFFFFFFFFFFFFFFF AND PUSH2 0x16C5 JUMP JUMPDEST ISZERO PUSH2 0x16B8 JUMPI DUP4 PUSH20 0xFFFFFFFFFFFFFFFFFFFFFFFFFFFFFFFFFFFFFFFF AND PUSH4 0x150B7A02 PUSH2 0x1588 PUSH2 0xC17 JUMP JUMPDEST DUP8 DUP7 DUP7 PUSH1 0x40 MLOAD DUP6 PUSH4 0xFFFFFFFF AND PUSH1 0xE0 SHL DUP2 MSTORE PUSH1 0x4 ADD PUSH2 0x15AA SWAP5 SWAP4 SWAP3 SWAP2 SWAP1 PUSH2 0x2777 JUMP JUMPDEST PUSH1 0x20 PUSH1 0x40 MLOAD DUP1 DUP4 SUB DUP2 PUSH1 0x0 DUP8 GAS CALL SWAP3 POP POP POP DUP1 ISZERO PUSH2 0x15E6 JUMPI POP PUSH1 0x40 MLOAD RETURNDATASIZE PUSH1 0x1F NOT PUSH1 0x1F DUP3 ADD AND DUP3 ADD DUP1 PUSH1 0x40 MSTORE POP DUP2 ADD SWAP1 PUSH2 0x15E3 SWAP2 SWAP1 PUSH2 0x27D8 JUMP JUMPDEST PUSH1 0x1 JUMPDEST PUSH2 0x1668 JUMPI RETURNDATASIZE DUP1 PUSH1 0x0 DUP2 EQ PUSH2 0x1616 JUMPI PUSH1 0x40 MLOAD SWAP2 POP PUSH1 0x1F NOT PUSH1 0x3F RETURNDATASIZE ADD AND DUP3 ADD PUSH1 0x40 MSTORE RETURNDATASIZE DUP3 MSTORE RETURNDATASIZE PUSH1 0x0 PUSH1 0x20 DUP5 ADD RETURNDATACOPY PUSH2 0x161B JUMP JUMPDEST PUSH1 0x60 SWAP2 POP JUMPDEST POP PUSH1 0x0 DUP2 MLOAD SUB PUSH2 0x1660 JUMPI PUSH1 0x40 MLOAD PUSH32 0x8C379A000000000000000000000000000000000000000000000000000000000 DUP2 MSTORE PUSH1 0x4 ADD PUSH2 0x1657 SWAP1 PUSH2 0x25FA JUMP JUMPDEST PUSH1 0x40 MLOAD DUP1 SWAP2 SUB SWAP1 REVERT JUMPDEST DUP1 MLOAD DUP2 PUSH1 0x20 ADD REVERT JUMPDEST PUSH4 0x150B7A02 PUSH1 0xE0 SHL PUSH28 0xFFFFFFFFFFFFFFFFFFFFFFFFFFFFFFFFFFFFFFFFFFFFFFFFFFFFFFFF NOT AND DUP2 PUSH28 0xFFFFFFFFFFFFFFFFFFFFFFFFFFFFFFFFFFFFFFFFFFFFFFFFFFFFFFFF NOT AND EQ SWAP2 POP POP PUSH2 0x16BD JUMP JUMPDEST PUSH1 0x1 SWAP1 POP JUMPDEST SWAP5 SWAP4 POP POP POP POP JUMP JUMPDEST PUSH1 0x0 DUP1 DUP3 PUSH20 0xFFFFFFFFFFFFFFFFFFFFFFFFFFFFFFFFFFFFFFFF AND EXTCODESIZE GT SWAP1 POP SWAP2 SWAP1 POP JUMP JUMPDEST PUSH1 0x0 PUSH1 0x40 MLOAD SWAP1 POP SWAP1 JUMP JUMPDEST PUSH1 0x0 DUP1 REVERT JUMPDEST PUSH1 0x0 DUP1 REVERT JUMPDEST PUSH1 0x0 PUSH32 0xFFFFFFFF00000000000000000000000000000000000000000000000000000000 DUP3 AND SWAP1 POP SWAP2 SWAP1 POP JUMP JUMPDEST PUSH2 0x1731 DUP2 PUSH2 0x16FC JUMP JUMPDEST DUP2 EQ PUSH2 0x173C JUMPI PUSH1 0x0 DUP1 REVERT JUMPDEST POP JUMP JUMPDEST PUSH1 0x0 DUP2 CALLDATALOAD SWAP1 POP PUSH2 0x174E DUP2 PUSH2 0x1728 JUMP JUMPDEST SWAP3 SWAP2 POP POP JUMP JUMPDEST PUSH1 0x0 PUSH1 0x20 DUP3 DUP5 SUB SLT ISZERO PUSH2 0x176A JUMPI PUSH2 0x1769 PUSH2 0x16F2 JUMP JUMPDEST JUMPDEST PUSH1 0x0 PUSH2 0x1778 DUP5 DUP3 DUP6 ADD PUSH2 0x173F JUMP JUMPDEST SWAP2 POP POP SWAP3 SWAP2 POP POP JUMP JUMPDEST PUSH1 0x0 DUP2 ISZERO ISZERO SWAP1 POP SWAP2 SWAP1 POP JUMP JUMPDEST PUSH2 0x1796 DUP2 PUSH2 0x1781 JUMP JUMPDEST DUP3 MSTORE POP POP JUMP JUMPDEST PUSH1 0x0 PUSH1 0x20 DUP3 ADD SWAP1 POP PUSH2 0x17B1 PUSH1 0x0 DUP4 ADD DUP5 PUSH2 0x178D JUMP JUMPDEST SWAP3 SWAP2 POP POP JUMP JUMPDEST PUSH1 0x0 DUP2 MLOAD SWAP1 POP SWAP2 SWAP1 POP JUMP JUMPDEST PUSH1 0x0 DUP3 DUP3 MSTORE PUSH1 0x20 DUP3 ADD SWAP1 POP SWAP3 SWAP2 POP POP JUMP JUMPDEST PUSH1 0x0 JUMPDEST DUP4 DUP2 LT ISZERO PUSH2 0x17F1 JUMPI DUP1 DUP3 ADD MLOAD DUP2 DUP5 ADD MSTORE PUSH1 0x20 DUP2 ADD SWAP1 POP PUSH2 0x17D6 JUMP JUMPDEST DUP4 DUP2 GT ISZERO PUSH2 0x1800 JUMPI PUSH1 0x0 DUP5 DUP5 ADD MSTORE JUMPDEST POP POP POP POP JUMP JUMPDEST PUSH1 0x0 PUSH1 0x1F NOT PUSH1 0x1F DUP4 ADD AND SWAP1 POP SWAP2 SWAP1 POP JUMP JUMPDEST PUSH1 0x0 PUSH2 0x1822 DUP3 PUSH2 0x17B7 JUMP JUMPDEST PUSH2 0x182C DUP2 DUP6 PUSH2 0x17C2 JUMP JUMPDEST SWAP4 POP PUSH2 0x183C DUP2 DUP6 PUSH1 0x20 DUP7 ADD PUSH2 0x17D3 JUMP JUMPDEST PUSH2 0x1845 DUP2 PUSH2 0x1806 JUMP JUMPDEST DUP5 ADD SWAP2 POP POP SWAP3 SWAP2 POP POP JUMP JUMPDEST PUSH1 0x0 PUSH1 0x20 DUP3 ADD SWAP1 POP DUP2 DUP2 SUB PUSH1 0x0 DUP4 ADD MSTORE PUSH2 0x186A DUP2 DUP5 PUSH2 0x1817 JUMP JUMPDEST SWAP1 POP SWAP3 SWAP2 POP POP JUMP JUMPDEST PUSH1 0x0 DUP2 SWAP1 POP SWAP2 SWAP1 POP JUMP JUMPDEST PUSH2 0x1885 DUP2 PUSH2 0x1872 JUMP JUMPDEST DUP2 EQ PUSH2 0x1890 JUMPI PUSH1 0x0 DUP1 REVERT JUMPDEST POP JUMP JUMPDEST PUSH1 0x0 DUP2 CALLDATALOAD SWAP1 POP PUSH2 0x18A2 DUP2 PUSH2 0x187C JUMP JUMPDEST SWAP3 SWAP2 POP POP JUMP JUMPDEST PUSH1 0x0 PUSH1 0x20 DUP3 DUP5 SUB SLT ISZERO PUSH2 0x18BE JUMPI PUSH2 0x18BD PUSH2 0x16F2 JUMP JUMPDEST JUMPDEST PUSH1 0x0 PUSH2 0x18CC DUP5 DUP3 DUP6 ADD PUSH2 0x1893 JUMP JUMPDEST SWAP2 POP POP SWAP3 SWAP2 POP POP JUMP JUMPDEST PUSH1 0x0 PUSH20 0xFFFFFFFFFFFFFFFFFFFFFFFFFFFFFFFFFFFFFFFF DUP3 AND SWAP1 POP SWAP2 SWAP1 POP JUMP JUMPDEST PUSH1 0x0 PUSH2 0x1900 DUP3 PUSH2 0x18D5 JUMP JUMPDEST SWAP1 POP SWAP2 SWAP1 POP JUMP JUMPDEST PUSH2 0x1910 DUP2 PUSH2 0x18F5 JUMP JUMPDEST DUP3 MSTORE POP POP JUMP JUMPDEST PUSH1 0x0 PUSH1 0x20 DUP3 ADD SWAP1 POP PUSH2 0x192B PUSH1 0x0 DUP4 ADD DUP5 PUSH2 0x1907 JUMP JUMPDEST SWAP3 SWAP2 POP POP JUMP JUMPDEST PUSH2 0x193A DUP2 PUSH2 0x18F5 JUMP JUMPDEST DUP2 EQ PUSH2 0x1945 JUMPI PUSH1 0x0 DUP1 REVERT JUMPDEST POP JUMP JUMPDEST PUSH1 0x0 DUP2 CALLDATALOAD SWAP1 POP PUSH2 0x1957 DUP2 PUSH2 0x1931 JUMP JUMPDEST SWAP3 SWAP2 POP POP JUMP JUMPDEST PUSH1 0x0 DUP1 PUSH1 0x40 DUP4 DUP6 SUB SLT ISZERO PUSH2 0x1974 JUMPI PUSH2 0x1973 PUSH2 0x16F2 JUMP JUMPDEST JUMPDEST PUSH1 0x0 PUSH2 0x1982 DUP6 DUP3 DUP7 ADD PUSH2 0x1948 JUMP JUMPDEST SWAP3 POP POP PUSH1 0x20 PUSH2 0x1993 DUP6 DUP3 DUP7 ADD PUSH2 0x1893 JUMP JUMPDEST SWAP2 POP POP SWAP3 POP SWAP3 SWAP1 POP JUMP JUMPDEST PUSH1 0x0 DUP1 PUSH1 0x0 PUSH1 0x60 DUP5 DUP7 SUB SLT ISZERO PUSH2 0x19B6 JUMPI PUSH2 0x19B5 PUSH2 0x16F2 JUMP JUMPDEST JUMPDEST PUSH1 0x0 PUSH2 0x19C4 DUP7 DUP3 DUP8 ADD PUSH2 0x1948 JUMP JUMPDEST SWAP4 POP POP PUSH1 0x20 PUSH2 0x19D5 DUP7 DUP3 DUP8 ADD PUSH2 0x1948 JUMP JUMPDEST SWAP3 POP POP PUSH1 0x40 PUSH2 0x19E6 DUP7 DUP3 DUP8 ADD PUSH2 0x1893 JUMP JUMPDEST SWAP2 POP POP SWAP3 POP SWAP3 POP SWAP3 JUMP JUMPDEST PUSH1 0x0 PUSH1 0x20 DUP3 DUP5 SUB SLT ISZERO PUSH2 0x1A06 JUMPI PUSH2 0x1A05 PUSH2 0x16F2 JUMP JUMPDEST JUMPDEST PUSH1 0x0 PUSH2 0x1A14 DUP5 DUP3 DUP6 ADD PUSH2 0x1948 JUMP JUMPDEST SWAP2 POP POP SWAP3 SWAP2 POP POP JUMP JUMPDEST PUSH2 0x1A26 DUP2 PUSH2 0x1872 JUMP JUMPDEST DUP3 MSTORE POP POP JUMP JUMPDEST PUSH1 0x0 PUSH1 0x20 DUP3 ADD SWAP1 POP PUSH2 0x1A41 PUSH1 0x0 DUP4 ADD DUP5 PUSH2 0x1A1D JUMP JUMPDEST SWAP3 SWAP2 POP POP JUMP JUMPDEST PUSH2 0x1A50 DUP2 PUSH2 0x1781 JUMP JUMPDEST DUP2 EQ PUSH2 0x1A5B JUMPI PUSH1 0x0 DUP1 REVERT JUMPDEST POP JUMP JUMPDEST PUSH1 0x0 DUP2 CALLDATALOAD SWAP1 POP PUSH2 0x1A6D DUP2 PUSH2 0x1A47 JUMP JUMPDEST SWAP3 SWAP2 POP POP JUMP JUMPDEST PUSH1 0x0 DUP1 PUSH1 0x40 DUP4 DUP6 SUB SLT ISZERO PUSH2 0x1A8A JUMPI PUSH2 0x1A89 PUSH2 0x16F2 JUMP JUMPDEST JUMPDEST PUSH1 0x0 PUSH2 0x1A98 DUP6 DUP3 DUP7 ADD PUSH2 0x1948 JUMP JUMPDEST SWAP3 POP POP PUSH1 0x20 PUSH2 0x1AA9 DUP6 DUP3 DUP7 ADD PUSH2 0x1A5E JUMP JUMPDEST SWAP2 POP POP SWAP3 POP SWAP3 SWAP1 POP JUMP JUMPDEST PUSH1 0x0 DUP1 REVERT JUMPDEST PUSH1 0x0 DUP1 REVERT JUMPDEST PUSH32 0x4E487B7100000000000000000000000000000000000000000000000000000000 PUSH1 0x0 MSTORE PUSH1 0x41 PUSH1 0x4 MSTORE PUSH1 0x24 PUSH1 0x0 REVERT JUMPDEST PUSH2 0x1AF5 DUP3 PUSH2 0x1806 JUMP JUMPDEST DUP2 ADD DUP2 DUP2 LT PUSH8 0xFFFFFFFFFFFFFFFF DUP3 GT OR ISZERO PUSH2 0x1B14 JUMPI PUSH2 0x1B13 PUSH2 0x1ABD JUMP JUMPDEST JUMPDEST DUP1 PUSH1 0x40 MSTORE POP POP POP JUMP JUMPDEST PUSH1 0x0 PUSH2 0x1B27 PUSH2 0x16E8 JUMP JUMPDEST SWAP1 POP PUSH2 0x1B33 DUP3 DUP3 PUSH2 0x1AEC JUMP JUMPDEST SWAP2 SWAP1 POP JUMP JUMPDEST PUSH1 0x0 PUSH8 0xFFFFFFFFFFFFFFFF DUP3 GT ISZERO PUSH2 0x1B53 JUMPI PUSH2 0x1B52 PUSH2 0x1ABD JUMP JUMPDEST JUMPDEST PUSH2 0x1B5C DUP3 PUSH2 0x1806 JUMP JUMPDEST SWAP1 POP PUSH1 0x20 DUP2 ADD SWAP1 POP SWAP2 SWAP1 POP JUMP JUMPDEST DUP3 DUP2 DUP4 CALLDATACOPY PUSH1 0x0 DUP4 DUP4 ADD MSTORE POP POP POP JUMP JUMPDEST PUSH1 0x0 PUSH2 0x1B8B PUSH2 0x1B86 DUP5 PUSH2 0x1B38 JUMP JUMPDEST PUSH2 0x1B1D JUMP JUMPDEST SWAP1 POP DUP3 DUP2 MSTORE PUSH1 0x20 DUP2 ADD DUP5 DUP5 DUP5 ADD GT ISZERO PUSH2 0x1BA7 JUMPI PUSH2 0x1BA6 PUSH2 0x1AB8 JUMP JUMPDEST JUMPDEST PUSH2 0x1BB2 DUP5 DUP3 DUP6 PUSH2 0x1B69 JUMP JUMPDEST POP SWAP4 SWAP3 POP POP POP JUMP JUMPDEST PUSH1 0x0 DUP3 PUSH1 0x1F DUP4 ADD SLT PUSH2 0x1BCF JUMPI PUSH2 0x1BCE PUSH2 0x1AB3 JUMP JUMPDEST JUMPDEST DUP2 CALLDATALOAD PUSH2 0x1BDF DUP5 DUP3 PUSH1 0x20 DUP7 ADD PUSH2 0x1B78 JUMP JUMPDEST SWAP2 POP POP SWAP3 SWAP2 POP POP JUMP JUMPDEST PUSH1 0x0 DUP1 PUSH1 0x0 DUP1 PUSH1 0x80 DUP6 DUP8 SUB SLT ISZERO PUSH2 0x1C02 JUMPI PUSH2 0x1C01 PUSH2 0x16F2 JUMP JUMPDEST JUMPDEST PUSH1 0x0 PUSH2 0x1C10 DUP8 DUP3 DUP9 ADD PUSH2 0x1948 JUMP JUMPDEST SWAP5 POP POP PUSH1 0x20 PUSH2 0x1C21 DUP8 DUP3 DUP9 ADD PUSH2 0x1948 JUMP JUMPDEST SWAP4 POP POP PUSH1 0x40 PUSH2 0x1C32 DUP8 DUP3 DUP9 ADD PUSH2 0x1893 JUMP JUMPDEST SWAP3 POP POP PUSH1 0x60 DUP6 ADD CALLDATALOAD PUSH8 0xFFFFFFFFFFFFFFFF DUP2 GT ISZERO PUSH2 0x1C53 JUMPI PUSH2 0x1C52 PUSH2 0x16F7 JUMP JUMPDEST JUMPDEST PUSH2 0x1C5F DUP8 DUP3 DUP9 ADD PUSH2 0x1BBA JUMP JUMPDEST SWAP2 POP POP SWAP3 SWAP6 SWAP2 SWAP5 POP SWAP3 POP JUMP JUMPDEST PUSH1 0x0 DUP1 PUSH1 0x40 DUP4 DUP6 SUB SLT ISZERO PUSH2 0x1C82 JUMPI PUSH2 0x1C81 PUSH2 0x16F2 JUMP JUMPDEST JUMPDEST PUSH1 0x0 PUSH2 0x1C90 DUP6 DUP3 DUP7 ADD PUSH2 0x1948 JUMP JUMPDEST SWAP3 POP POP PUSH1 0x20 PUSH2 0x1CA1 DUP6 DUP3 DUP7 ADD PUSH2 0x1948 JUMP JUMPDEST SWAP2 POP POP SWAP3 POP SWAP3 SWAP1 POP JUMP JUMPDEST PUSH32 0x4E487B7100000000000000000000000000000000000000000000000000000000 PUSH1 0x0 MSTORE PUSH1 0x22 PUSH1 0x4 MSTORE PUSH1 0x24 PUSH1 0x0 REVERT JUMPDEST PUSH1 0x0 PUSH1 0x2 DUP3 DIV SWAP1 POP PUSH1 0x1 DUP3 AND DUP1 PUSH2 0x1CF2 JUMPI PUSH1 0x7F DUP3 AND SWAP2 POP JUMPDEST PUSH1 0x20 DUP3 LT DUP2 SUB PUSH2 0x1D05 JUMPI PUSH2 0x1D04 PUSH2 0x1CAB JUMP JUMPDEST JUMPDEST POP SWAP2 SWAP1 POP JUMP JUMPDEST PUSH32 0x4552433732313A20617070726F76656420717565727920666F72206E6F6E6578 PUSH1 0x0 DUP3 ADD MSTORE PUSH32 0x697374656E7420746F6B656E0000000000000000000000000000000000000000 PUSH1 0x20 DUP3 ADD MSTORE POP JUMP JUMPDEST PUSH1 0x0 PUSH2 0x1D67 PUSH1 0x2C DUP4 PUSH2 0x17C2 JUMP JUMPDEST SWAP2 POP PUSH2 0x1D72 DUP3 PUSH2 0x1D0B JUMP JUMPDEST PUSH1 0x40 DUP3 ADD SWAP1 POP SWAP2 SWAP1 POP JUMP JUMPDEST PUSH1 0x0 PUSH1 0x20 DUP3 ADD SWAP1 POP DUP2 DUP2 SUB PUSH1 0x0 DUP4 ADD MSTORE PUSH2 0x1D96 DUP2 PUSH2 0x1D5A JUMP JUMPDEST SWAP1 POP SWAP2 SWAP1 POP JUMP JUMPDEST PUSH32 0x4552433732313A20617070726F76616C20746F2063757272656E74206F776E65 PUSH1 0x0 DUP3 ADD MSTORE PUSH32 0x7200000000000000000000000000000000000000000000000000000000000000 PUSH1 0x20 DUP3 ADD MSTORE POP JUMP JUMPDEST PUSH1 0x0 PUSH2 0x1DF9 PUSH1 0x21 DUP4 PUSH2 0x17C2 JUMP JUMPDEST SWAP2 POP PUSH2 0x1E04 DUP3 PUSH2 0x1D9D JUMP JUMPDEST PUSH1 0x40 DUP3 ADD SWAP1 POP SWAP2 SWAP1 POP JUMP JUMPDEST PUSH1 0x0 PUSH1 0x20 DUP3 ADD SWAP1 POP DUP2 DUP2 SUB PUSH1 0x0 DUP4 ADD MSTORE PUSH2 0x1E28 DUP2 PUSH2 0x1DEC JUMP JUMPDEST SWAP1 POP SWAP2 SWAP1 POP JUMP JUMPDEST PUSH32 0x4552433732313A20617070726F76652063616C6C6572206973206E6F74206F77 PUSH1 0x0 DUP3 ADD MSTORE PUSH32 0x6E6572206E6F7220617070726F76656420666F7220616C6C0000000000000000 PUSH1 0x20 DUP3 ADD MSTORE POP JUMP JUMPDEST PUSH1 0x0 PUSH2 0x1E8B PUSH1 0x38 DUP4 PUSH2 0x17C2 JUMP JUMPDEST SWAP2 POP PUSH2 0x1E96 DUP3 PUSH2 0x1E2F JUMP JUMPDEST PUSH1 0x40 DUP3 ADD SWAP1 POP SWAP2 SWAP1 POP JUMP JUMPDEST PUSH1 0x0 PUSH1 0x20 DUP3 ADD SWAP1 POP DUP2 DUP2 SUB PUSH1 0x0 DUP4 ADD MSTORE PUSH2 0x1EBA DUP2 PUSH2 0x1E7E JUMP JUMPDEST SWAP1 POP SWAP2 SWAP1 POP JUMP JUMPDEST PUSH32 0x43616C6C6572206973206E6F7420746865206F776E65722E0000000000000000 PUSH1 0x0 DUP3 ADD MSTORE POP JUMP JUMPDEST PUSH1 0x0 PUSH2 0x1EF7 PUSH1 0x18 DUP4 PUSH2 0x17C2 JUMP JUMPDEST SWAP2 POP PUSH2 0x1F02 DUP3 PUSH2 0x1EC1 JUMP JUMPDEST PUSH1 0x20 DUP3 ADD SWAP1 POP SWAP2 SWAP1 POP JUMP JUMPDEST PUSH1 0x0 PUSH1 0x20 DUP3 ADD SWAP1 POP DUP2 DUP2 SUB PUSH1 0x0 DUP4 ADD MSTORE PUSH2 0x1F26 DUP2 PUSH2 0x1EEA JUMP JUMPDEST SWAP1 POP SWAP2 SWAP1 POP JUMP JUMPDEST PUSH32 0x4552433732313A207472616E736665722063616C6C6572206973206E6F74206F PUSH1 0x0 DUP3 ADD MSTORE PUSH32 0x776E6572206E6F7220617070726F766564000000000000000000000000000000 PUSH1 0x20 DUP3 ADD MSTORE POP JUMP JUMPDEST PUSH1 0x0 PUSH2 0x1F89 PUSH1 0x31 DUP4 PUSH2 0x17C2 JUMP JUMPDEST SWAP2 POP PUSH2 0x1F94 DUP3 PUSH2 0x1F2D JUMP JUMPDEST PUSH1 0x40 DUP3 ADD SWAP1 POP SWAP2 SWAP1 POP JUMP JUMPDEST PUSH1 0x0 PUSH1 0x20 DUP3 ADD SWAP1 POP DUP2 DUP2 SUB PUSH1 0x0 DUP4 ADD MSTORE PUSH2 0x1FB8 DUP2 PUSH2 0x1F7C JUMP JUMPDEST SWAP1 POP SWAP2 SWAP1 POP JUMP JUMPDEST PUSH32 0x4552433732313A206F776E657220717565727920666F72206E6F6E6578697374 PUSH1 0x0 DUP3 ADD MSTORE PUSH32 0x656E7420746F6B656E0000000000000000000000000000000000000000000000 PUSH1 0x20 DUP3 ADD MSTORE POP JUMP JUMPDEST PUSH1 0x0 PUSH2 0x201B PUSH1 0x29 DUP4 PUSH2 0x17C2 JUMP JUMPDEST SWAP2 POP PUSH2 0x2026 DUP3 PUSH2 0x1FBF JUMP JUMPDEST PUSH1 0x40 DUP3 ADD SWAP1 POP SWAP2 SWAP1 POP JUMP JUMPDEST PUSH1 0x0 PUSH1 0x20 DUP3 ADD SWAP1 POP DUP2 DUP2 SUB PUSH1 0x0 DUP4 ADD MSTORE PUSH2 0x204A DUP2 PUSH2 0x200E JUMP JUMPDEST SWAP1 POP SWAP2 SWAP1 POP JUMP JUMPDEST PUSH32 0x4552433732313A2062616C616E636520717565727920666F7220746865207A65 PUSH1 0x0 DUP3 ADD MSTORE PUSH32 0x726F206164647265737300000000000000000000000000000000000000000000 PUSH1 0x20 DUP3 ADD MSTORE POP JUMP JUMPDEST PUSH1 0x0 PUSH2 0x20AD PUSH1 0x2A DUP4 PUSH2 0x17C2 JUMP JUMPDEST SWAP2 POP PUSH2 0x20B8 DUP3 PUSH2 0x2051 JUMP JUMPDEST PUSH1 0x40 DUP3 ADD SWAP1 POP SWAP2 SWAP1 POP JUMP JUMPDEST PUSH1 0x0 PUSH1 0x20 DUP3 ADD SWAP1 POP DUP2 DUP2 SUB PUSH1 0x0 DUP4 ADD MSTORE PUSH2 0x20DC DUP2 PUSH2 0x20A0 JUMP JUMPDEST SWAP1 POP SWAP2 SWAP1 POP JUMP JUMPDEST PUSH32 0x4552433732314D657461646174613A2055524920717565727920666F72206E6F PUSH1 0x0 DUP3 ADD MSTORE PUSH32 0x6E6578697374656E7420746F6B656E0000000000000000000000000000000000 PUSH1 0x20 DUP3 ADD MSTORE POP JUMP JUMPDEST PUSH1 0x0 PUSH2 0x213F PUSH1 0x2F DUP4 PUSH2 0x17C2 JUMP JUMPDEST SWAP2 POP PUSH2 0x214A DUP3 PUSH2 0x20E3 JUMP JUMPDEST PUSH1 0x40 DUP3 ADD SWAP1 POP SWAP2 SWAP1 POP JUMP JUMPDEST PUSH1 0x0 PUSH1 0x20 DUP3 ADD SWAP1 POP DUP2 DUP2 SUB PUSH1 0x0 DUP4 ADD MSTORE PUSH2 0x216E DUP2 PUSH2 0x2132 JUMP JUMPDEST SWAP1 POP SWAP2 SWAP1 POP JUMP JUMPDEST PUSH1 0x0 DUP2 SWAP1 POP SWAP3 SWAP2 POP POP JUMP JUMPDEST PUSH1 0x0 PUSH2 0x218B DUP3 PUSH2 0x17B7 JUMP JUMPDEST PUSH2 0x2195 DUP2 DUP6 PUSH2 0x2175 JUMP JUMPDEST SWAP4 POP PUSH2 0x21A5 DUP2 DUP6 PUSH1 0x20 DUP7 ADD PUSH2 0x17D3 JUMP JUMPDEST DUP1 DUP5 ADD SWAP2 POP POP SWAP3 SWAP2 POP POP JUMP JUMPDEST PUSH1 0x0 PUSH2 0x21BD DUP3 DUP6 PUSH2 0x2180 JUMP JUMPDEST SWAP2 POP PUSH2 0x21C9 DUP3 DUP5 PUSH2 0x2180 JUMP JUMPDEST SWAP2 POP DUP2 SWAP1 POP SWAP4 SWAP3 POP POP POP JUMP JUMPDEST PUSH32 0x4552433732313A206D696E7420746F20746865207A65726F2061646472657373 PUSH1 0x0 DUP3 ADD MSTORE POP JUMP JUMPDEST PUSH1 0x0 PUSH2 0x220B PUSH1 0x20 DUP4 PUSH2 0x17C2 JUMP JUMPDEST SWAP2 POP PUSH2 0x2216 DUP3 PUSH2 0x21D5 JUMP JUMPDEST PUSH1 0x20 DUP3 ADD SWAP1 POP SWAP2 SWAP1 POP JUMP JUMPDEST PUSH1 0x0 PUSH1 0x20 DUP3 ADD SWAP1 POP DUP2 DUP2 SUB PUSH1 0x0 DUP4 ADD MSTORE PUSH2 0x223A DUP2 PUSH2 0x21FE JUMP JUMPDEST SWAP1 POP SWAP2 SWAP1 POP JUMP JUMPDEST PUSH32 0x4552433732313A20746F6B656E20616C7265616479206D696E74656400000000 PUSH1 0x0 DUP3 ADD MSTORE POP JUMP JUMPDEST PUSH1 0x0 PUSH2 0x2277 PUSH1 0x1C DUP4 PUSH2 0x17C2 JUMP JUMPDEST SWAP2 POP PUSH2 0x2282 DUP3 PUSH2 0x2241 JUMP JUMPDEST PUSH1 0x20 DUP3 ADD SWAP1 POP SWAP2 SWAP1 POP JUMP JUMPDEST PUSH1 0x0 PUSH1 0x20 DUP3 ADD SWAP1 POP DUP2 DUP2 SUB PUSH1 0x0 DUP4 ADD MSTORE PUSH2 0x22A6 DUP2 PUSH2 0x226A JUMP JUMPDEST SWAP1 POP SWAP2 SWAP1 POP JUMP JUMPDEST PUSH32 0x4E487B7100000000000000000000000000000000000000000000000000000000 PUSH1 0x0 MSTORE PUSH1 0x11 PUSH1 0x4 MSTORE PUSH1 0x24 PUSH1 0x0 REVERT JUMPDEST PUSH1 0x0 PUSH2 0x22E7 DUP3 PUSH2 0x1872 JUMP JUMPDEST SWAP2 POP PUSH2 0x22F2 DUP4 PUSH2 0x1872 JUMP JUMPDEST SWAP3 POP DUP3 PUSH32 0xFFFFFFFFFFFFFFFFFFFFFFFFFFFFFFFFFFFFFFFFFFFFFFFFFFFFFFFFFFFFFFFF SUB DUP3 GT ISZERO PUSH2 0x2327 JUMPI PUSH2 0x2326 PUSH2 0x22AD JUMP JUMPDEST JUMPDEST DUP3 DUP3 ADD SWAP1 POP SWAP3 SWAP2 POP POP JUMP JUMPDEST PUSH32 0x4552433732313A206F70657261746F7220717565727920666F72206E6F6E6578 PUSH1 0x0 DUP3 ADD MSTORE PUSH32 0x697374656E7420746F6B656E0000000000000000000000000000000000000000 PUSH1 0x20 DUP3 ADD MSTORE POP JUMP JUMPDEST PUSH1 0x0 PUSH2 0x238E PUSH1 0x2C DUP4 PUSH2 0x17C2 JUMP JUMPDEST SWAP2 POP PUSH2 0x2399 DUP3 PUSH2 0x2332 JUMP JUMPDEST PUSH1 0x40 DUP3 ADD SWAP1 POP SWAP2 SWAP1 POP JUMP JUMPDEST PUSH1 0x0 PUSH1 0x20 DUP3 ADD SWAP1 POP DUP2 DUP2 SUB PUSH1 0x0 DUP4 ADD MSTORE PUSH2 0x23BD DUP2 PUSH2 0x2381 JUMP JUMPDEST SWAP1 POP SWAP2 SWAP1 POP JUMP JUMPDEST PUSH32 0x4552433732313A207472616E736665722066726F6D20696E636F727265637420 PUSH1 0x0 DUP3 ADD MSTORE PUSH32 0x6F776E6572000000000000000000000000000000000000000000000000000000 PUSH1 0x20 DUP3 ADD MSTORE POP JUMP JUMPDEST PUSH1 0x0 PUSH2 0x2420 PUSH1 0x25 DUP4 PUSH2 0x17C2 JUMP JUMPDEST SWAP2 POP PUSH2 0x242B DUP3 PUSH2 0x23C4 JUMP JUMPDEST PUSH1 0x40 DUP3 ADD SWAP1 POP SWAP2 SWAP1 POP JUMP JUMPDEST PUSH1 0x0 PUSH1 0x20 DUP3 ADD SWAP1 POP DUP2 DUP2 SUB PUSH1 0x0 DUP4 ADD MSTORE PUSH2 0x244F DUP2 PUSH2 0x2413 JUMP JUMPDEST SWAP1 POP SWAP2 SWAP1 POP JUMP JUMPDEST PUSH32 0x4552433732313A207472616E7366657220746F20746865207A65726F20616464 PUSH1 0x0 DUP3 ADD MSTORE PUSH32 0x7265737300000000000000000000000000000000000000000000000000000000 PUSH1 0x20 DUP3 ADD MSTORE POP JUMP JUMPDEST PUSH1 0x0 PUSH2 0x24B2 PUSH1 0x24 DUP4 PUSH2 0x17C2 JUMP JUMPDEST SWAP2 POP PUSH2 0x24BD DUP3 PUSH2 0x2456 JUMP JUMPDEST PUSH1 0x40 DUP3 ADD SWAP1 POP SWAP2 SWAP1 POP JUMP JUMPDEST PUSH1 0x0 PUSH1 0x20 DUP3 ADD SWAP1 POP DUP2 DUP2 SUB PUSH1 0x0 DUP4 ADD MSTORE PUSH2 0x24E1 DUP2 PUSH2 0x24A5 JUMP JUMPDEST SWAP1 POP SWAP2 SWAP1 POP JUMP JUMPDEST PUSH1 0x0 PUSH2 0x24F3 DUP3 PUSH2 0x1872 JUMP JUMPDEST SWAP2 POP PUSH2 0x24FE DUP4 PUSH2 0x1872 JUMP JUMPDEST SWAP3 POP DUP3 DUP3 LT ISZERO PUSH2 0x2511 JUMPI PUSH2 0x2510 PUSH2 0x22AD JUMP JUMPDEST JUMPDEST DUP3 DUP3 SUB SWAP1 POP SWAP3 SWAP2 POP POP JUMP JUMPDEST PUSH32 0x4552433732313A20617070726F766520746F2063616C6C657200000000000000 PUSH1 0x0 DUP3 ADD MSTORE POP JUMP JUMPDEST PUSH1 0x0 PUSH2 0x2552 PUSH1 0x19 DUP4 PUSH2 0x17C2 JUMP JUMPDEST SWAP2 POP PUSH2 0x255D DUP3 PUSH2 0x251C JUMP JUMPDEST PUSH1 0x20 DUP3 ADD SWAP1 POP SWAP2 SWAP1 POP JUMP JUMPDEST PUSH1 0x0 PUSH1 0x20 DUP3 ADD SWAP1 POP DUP2 DUP2 SUB PUSH1 0x0 DUP4 ADD MSTORE PUSH2 0x2581 DUP2 PUSH2 0x2545 JUMP JUMPDEST SWAP1 POP SWAP2 SWAP1 POP JUMP JUMPDEST PUSH32 0x4552433732313A207472616E7366657220746F206E6F6E204552433732315265 PUSH1 0x0 DUP3 ADD MSTORE PUSH32 0x63656976657220696D706C656D656E7465720000000000000000000000000000 PUSH1 0x20 DUP3 ADD MSTORE POP JUMP JUMPDEST PUSH1 0x0 PUSH2 0x25E4 PUSH1 0x32 DUP4 PUSH2 0x17C2 JUMP JUMPDEST SWAP2 POP PUSH2 0x25EF DUP3 PUSH2 0x2588 JUMP JUMPDEST PUSH1 0x40 DUP3 ADD SWAP1 POP SWAP2 SWAP1 POP JUMP JUMPDEST PUSH1 0x0 PUSH1 0x20 DUP3 ADD SWAP1 POP DUP2 DUP2 SUB PUSH1 0x0 DUP4 ADD MSTORE PUSH2 0x2613 DUP2 PUSH2 0x25D7 JUMP JUMPDEST SWAP1 POP SWAP2 SWAP1 POP JUMP JUMPDEST PUSH1 0x0 PUSH2 0x2625 DUP3 PUSH2 0x1872 JUMP JUMPDEST SWAP2 POP PUSH32 0xFFFFFFFFFFFFFFFFFFFFFFFFFFFFFFFFFFFFFFFFFFFFFFFFFFFFFFFFFFFFFFFF DUP3 SUB PUSH2 0x2657 JUMPI PUSH2 0x2656 PUSH2 0x22AD JUMP JUMPDEST JUMPDEST PUSH1 0x1 DUP3 ADD SWAP1 POP SWAP2 SWAP1 POP JUMP JUMPDEST PUSH32 0x4E487B7100000000000000000000000000000000000000000000000000000000 PUSH1 0x0 MSTORE PUSH1 0x12 PUSH1 0x4 MSTORE PUSH1 0x24 PUSH1 0x0 REVERT JUMPDEST PUSH1 0x0 PUSH2 0x269C DUP3 PUSH2 0x1872 JUMP JUMPDEST SWAP2 POP PUSH2 0x26A7 DUP4 PUSH2 0x1872 JUMP JUMPDEST SWAP3 POP DUP3 PUSH2 0x26B7 JUMPI PUSH2 0x26B6 PUSH2 0x2662 JUMP JUMPDEST JUMPDEST DUP3 DUP3 DIV SWAP1 POP SWAP3 SWAP2 POP POP JUMP JUMPDEST PUSH1 0x0 PUSH2 0x26CD DUP3 PUSH2 0x1872 JUMP JUMPDEST SWAP2 POP PUSH2 0x26D8 DUP4 PUSH2 0x1872 JUMP JUMPDEST SWAP3 POP DUP3 PUSH2 0x26E8 JUMPI PUSH2 0x26E7 PUSH2 0x2662 JUMP JUMPDEST JUMPDEST DUP3 DUP3 MOD SWAP1 POP SWAP3 SWAP2 POP POP JUMP JUMPDEST PUSH32 0x4E487B7100000000000000000000000000000000000000000000000000000000 PUSH1 0x0 MSTORE PUSH1 0x32 PUSH1 0x4 MSTORE PUSH1 0x24 PUSH1 0x0 REVERT JUMPDEST PUSH1 0x0 DUP2 MLOAD SWAP1 POP SWAP2 SWAP1 POP JUMP JUMPDEST PUSH1 0x0 DUP3 DUP3 MSTORE PUSH1 0x20 DUP3 ADD SWAP1 POP SWAP3 SWAP2 POP POP JUMP JUMPDEST PUSH1 0x0 PUSH2 0x2749 DUP3 PUSH2 0x2722 JUMP JUMPDEST PUSH2 0x2753 DUP2 DUP6 PUSH2 0x272D JUMP JUMPDEST SWAP4 POP PUSH2 0x2763 DUP2 DUP6 PUSH1 0x20 DUP7 ADD PUSH2 0x17D3 JUMP JUMPDEST PUSH2 0x276C DUP2 PUSH2 0x1806 JUMP JUMPDEST DUP5 ADD SWAP2 POP POP SWAP3 SWAP2 POP POP JUMP JUMPDEST PUSH1 0x0 PUSH1 0x80 DUP3 ADD SWAP1 POP PUSH2 0x278C PUSH1 0x0 DUP4 ADD DUP8 PUSH2 0x1907 JUMP JUMPDEST PUSH2 0x2799 PUSH1 0x20 DUP4 ADD DUP7 PUSH2 0x1907 JUMP JUMPDEST PUSH2 0x27A6 PUSH1 0x40 DUP4 ADD DUP6 PUSH2 0x1A1D JUMP JUMPDEST DUP2 DUP2 SUB PUSH1 0x60 DUP4 ADD MSTORE PUSH2 0x27B8 DUP2 DUP5 PUSH2 0x273E JUMP JUMPDEST SWAP1 POP SWAP6 SWAP5 POP POP POP POP POP JUMP JUMPDEST PUSH1 0x0 DUP2 MLOAD SWAP1 POP PUSH2 0x27D2 DUP2 PUSH2 0x1728 JUMP JUMPDEST SWAP3 SWAP2 POP POP JUMP JUMPDEST PUSH1 0x0 PUSH1 0x20 DUP3 DUP5 SUB SLT ISZERO PUSH2 0x27EE JUMPI PUSH2 0x27ED PUSH2 0x16F2 JUMP JUMPDEST JUMPDEST PUSH1 0x0 PUSH2 0x27FC DUP5 DUP3 DUP6 ADD PUSH2 0x27C3 JUMP JUMPDEST SWAP2 POP POP SWAP3 SWAP2 POP POP JUMP INVALID LOG2 PUSH5 0x6970667358 0x22 SLT KECCAK256 PUSH24 0x8644507DA78E2A039480F0E1EAD8CBBC9C609E403B8F6740 CHAINID LT 0xF6 0xF8 0xCD DUP5 0xBA PUSH5 0x736F6C6343 STOP ADDMOD 0xE STOP CALLER "
				},
				"gasEstimates": {
					"creation": {
						"codeDepositCost": "2059800",
						"executionCost": "infinite",
						"totalCost": "infinite"
					},
					"external": {
						"approve(address,uint256)": "infinite",
						"balanceOf(address)": "2899",
						"getApproved(uint256)": "5228",
						"isApprovedForAll(address,address)": "infinite",
						"name()": "infinite",
						"nftMint()": "189",
						"nftMint(uint256)": "infinite",
						"owner()": "2581",
						"ownerOf(uint256)": "3063",
						"safeTransferFrom(address,address,uint256)": "infinite",
						"safeTransferFrom(address,address,uint256,bytes)": "infinite",
						"setApprovalForAll(address,bool)": "infinite",
						"supportsInterface(bytes4)": "797",
						"symbol()": "infinite",
						"tokenURI(uint256)": "3395",
						"transferFrom(address,address,uint256)": "infinite"
					}
				},
				"methodIdentifiers": {
					"approve(address,uint256)": "095ea7b3",
					"balanceOf(address)": "70a08231",
					"getApproved(uint256)": "081812fc",
					"isApprovedForAll(address,address)": "e985e9c5",
					"name()": "06fdde03",
					"nftMint()": "719414b4",
					"nftMint(uint256)": "20e3dfee",
					"owner()": "8da5cb5b",
					"ownerOf(uint256)": "6352211e",
					"safeTransferFrom(address,address,uint256)": "42842e0e",
					"safeTransferFrom(address,address,uint256,bytes)": "b88d4fde",
					"setApprovalForAll(address,bool)": "a22cb465",
					"supportsInterface(bytes4)": "01ffc9a7",
					"symbol()": "95d89b41",
					"tokenURI(uint256)": "c87b56dd",
					"transferFrom(address,address,uint256)": "23b872dd"
				}
			},
			"storageLayout": {
				"storage": [
					{
						"astId": 25,
						"contract": "contracts/OnlyOwnerMintWithModifier.sol:OnlyOwnerMintWithModifier",
						"label": "_name",
						"offset": 0,
						"slot": "0",
						"type": "t_string_storage"
					},
					{
						"astId": 27,
						"contract": "contracts/OnlyOwnerMintWithModifier.sol:OnlyOwnerMintWithModifier",
						"label": "_symbol",
						"offset": 0,
						"slot": "1",
						"type": "t_string_storage"
					},
					{
						"astId": 31,
						"contract": "contracts/OnlyOwnerMintWithModifier.sol:OnlyOwnerMintWithModifier",
						"label": "_owners",
						"offset": 0,
						"slot": "2",
						"type": "t_mapping(t_uint256,t_address)"
					},
					{
						"astId": 35,
						"contract": "contracts/OnlyOwnerMintWithModifier.sol:OnlyOwnerMintWithModifier",
						"label": "_balances",
						"offset": 0,
						"slot": "3",
						"type": "t_mapping(t_address,t_uint256)"
					},
					{
						"astId": 39,
						"contract": "contracts/OnlyOwnerMintWithModifier.sol:OnlyOwnerMintWithModifier",
						"label": "_tokenApprovals",
						"offset": 0,
						"slot": "4",
						"type": "t_mapping(t_uint256,t_address)"
					},
					{
						"astId": 45,
						"contract": "contracts/OnlyOwnerMintWithModifier.sol:OnlyOwnerMintWithModifier",
						"label": "_operatorApprovals",
						"offset": 0,
						"slot": "5",
						"type": "t_mapping(t_address,t_mapping(t_address,t_bool))"
					},
					{
						"astId": 1590,
						"contract": "contracts/OnlyOwnerMintWithModifier.sol:OnlyOwnerMintWithModifier",
						"label": "owner",
						"offset": 0,
						"slot": "6",
						"type": "t_address"
					}
				],
				"types": {
					"t_address": {
						"encoding": "inplace",
						"label": "address",
						"numberOfBytes": "20"
					},
					"t_bool": {
						"encoding": "inplace",
						"label": "bool",
						"numberOfBytes": "1"
					},
					"t_mapping(t_address,t_bool)": {
						"encoding": "mapping",
						"key": "t_address",
						"label": "mapping(address => bool)",
						"numberOfBytes": "32",
						"value": "t_bool"
					},
					"t_mapping(t_address,t_mapping(t_address,t_bool))": {
						"encoding": "mapping",
						"key": "t_address",
						"label": "mapping(address => mapping(address => bool))",
						"numberOfBytes": "32",
						"value": "t_mapping(t_address,t_bool)"
					},
					"t_mapping(t_address,t_uint256)": {
						"encoding": "mapping",
						"key": "t_address",
						"label": "mapping(address => uint256)",
						"numberOfBytes": "32",
						"value": "t_uint256"
					},
					"t_mapping(t_uint256,t_address)": {
						"encoding": "mapping",
						"key": "t_uint256",
						"label": "mapping(uint256 => address)",
						"numberOfBytes": "32",
						"value": "t_address"
					},
					"t_string_storage": {
						"encoding": "bytes",
						"label": "string",
						"numberOfBytes": "32"
					},
					"t_uint256": {
						"encoding": "inplace",
						"label": "uint256",
						"numberOfBytes": "32"
					}
				}
			},
			"userdoc": {
				"kind": "user",
				"methods": {},
				"version": 1
			}
		}
	}
}